{"abi":[{"type":"constructor","inputs":[{"name":"owner_","type":"address","internalType":"address"}],"stateMutability":"nonpayable"},{"type":"function","name":"MAX_REF_LEN","inputs":[],"outputs":[{"name":"","type":"uint256","internalType":"uint256"}],"stateMutability":"view"},{"type":"function","name":"agentCount","inputs":[],"outputs":[{"name":"","type":"uint256","internalType":"uint256"}],"stateMutability":"view"},{"type":"function","name":"agents","inputs":[{"name":"","type":"uint256","internalType":"uint256"}],"outputs":[{"name":"exists","type":"bool","internalType":"bool"},{"name":"owner","type":"address","internalType":"address"},{"name":"metadataURI","type":"string","internalType":"string"},{"name":"createdAt","type":"uint64","internalType":"uint64"},{"name":"isActive","type":"bool","internalType":"bool"}],"stateMutability":"view"},{"type":"function","name":"createAgent","inputs":[{"name":"metadataURI","type":"string","internalType":"string"}],"outputs":[{"name":"agentId","type":"uint256","internalType":"uint256"}],"stateMutability":"nonpayable"},{"type":"function","name":"owner","inputs":[],"outputs":[{"name":"","type":"address","internalType":"address"}],"stateMutability":"view"},{"type":"function","name":"registerUser","inputs":[{"name":"username","type":"string","internalType":"string"},{"name":"metadataURI","type":"string","internalType":"string"},{"name":"ensName","type":"string","internalType":"string"}],"outputs":[],"stateMutability":"nonpayable"},{"type":"function","name":"renounceOwnership","inputs":[],"outputs":[],"stateMutability":"nonpayable"},{"type":"function","name":"transferOwnership","inputs":[{"name":"newOwner","type":"address","internalType":"address"}],"outputs":[],"stateMutability":"nonpayable"},{"type":"function","name":"updateAgent","inputs":[{"name":"agentId","type":"uint256","internalType":"uint256"},{"name":"metadataURI","type":"string","internalType":"string"},{"name":"isActive","type":"bool","internalType":"bool"}],"outputs":[],"stateMutability":"nonpayable"},{"type":"function","name":"updateProfile","inputs":[{"name":"metadataURI","type":"string","internalType":"string"},{"name":"ensName","type":"string","internalType":"string"}],"outputs":[],"stateMutability":"nonpayable"},{"type":"function","name":"userAgents","inputs":[{"name":"","type":"address","internalType":"address"},{"name":"","type":"uint256","internalType":"uint256"}],"outputs":[{"name":"","type":"uint256","internalType":"uint256"}],"stateMutability":"view"},{"type":"function","name":"usernameToAddress","inputs":[{"name":"","type":"string","internalType":"string"}],"outputs":[{"name":"","type":"address","internalType":"address"}],"stateMutability":"view"},{"type":"function","name":"users","inputs":[{"name":"","type":"address","internalType":"address"}],"outputs":[{"name":"exists","type":"bool","internalType":"bool"},{"name":"username","type":"string","internalType":"string"},{"name":"ensName","type":"string","internalType":"string"},{"name":"metadataURI","type":"string","internalType":"string"},{"name":"createdAt","type":"uint64","internalType":"uint64"},{"name":"updatedAt","type":"uint64","internalType":"uint64"},{"name":"version","type":"uint64","internalType":"uint64"}],"stateMutability":"view"},{"type":"event","name":"AgentCreated","inputs":[{"name":"owner","type":"address","indexed":true,"internalType":"address"},{"name":"agentId","type":"uint256","indexed":true,"internalType":"uint256"},{"name":"metadataURI","type":"string","indexed":false,"internalType":"string"}],"anonymous":false},{"type":"event","name":"AgentUpdated","inputs":[{"name":"agentId","type":"uint256","indexed":true,"internalType":"uint256"},{"name":"metadataURI","type":"string","indexed":false,"internalType":"string"},{"name":"isActive","type":"bool","indexed":false,"internalType":"bool"}],"anonymous":false},{"type":"event","name":"OwnershipTransferred","inputs":[{"name":"previousOwner","type":"address","indexed":true,"internalType":"address"},{"name":"newOwner","type":"address","indexed":true,"internalType":"address"}],"anonymous":false},{"type":"event","name":"ProfileUpdated","inputs":[{"name":"user","type":"address","indexed":true,"internalType":"address"},{"name":"metadataURI","type":"string","indexed":false,"internalType":"string"},{"name":"version","type":"uint64","indexed":false,"internalType":"uint64"},{"name":"ensName","type":"string","indexed":false,"internalType":"string"}],"anonymous":false},{"type":"event","name":"UserRegistered","inputs":[{"name":"user","type":"address","indexed":true,"internalType":"address"},{"name":"username","type":"string","indexed":false,"internalType":"string"},{"name":"metadataURI","type":"string","indexed":false,"internalType":"string"},{"name":"version","type":"uint64","indexed":false,"internalType":"uint64"}],"anonymous":false},{"type":"error","name":"EmptyMetadata","inputs":[]},{"type":"error","name":"InvalidUsername","inputs":[]},{"type":"error","name":"MetadataTooLong","inputs":[]},{"type":"error","name":"OwnableInvalidOwner","inputs":[{"name":"owner","type":"address","internalType":"address"}]},{"type":"error","name":"OwnableUnauthorizedAccount","inputs":[{"name":"account","type":"address","internalType":"address"}]},{"type":"error","name":"UserNotRegistered","inputs":[{"name":"user","type":"address","internalType":"address"}]},{"type":"error","name":"UsernameTaken","inputs":[{"name":"username","type":"string","internalType":"string"}]}],"bytecode":{"object":"0x6080346100bb57601f61151a38819003918201601f19168301916001600160401b038311848410176100c0578084926020946040528339810103126100bb57516001600160a01b0390818116908190036100bb5780156100a257600080546001600160a01b03198116831782556040519316907f8be0079c531659141344cd1fd0a4f28419497f9722a3daafe3b4186f6b6457e09080a361144390816100d78239f35b604051631e4fbdf760e01b815260006004820152602490fd5b600080fd5b634e487b7160e01b600052604160045260246000fdfe6080604052600436101561001257600080fd5b60003560e01c8063513856c8146110e457806351ca9ff91461108c578063715018a6146110335780638da5cb5b1461100a5780639e9d868414610fed578063a87430ba14610f24578063b7dc128414610f06578063c9d3cc6a14610c29578063d637dcfa1461069f578063e14f9449146104bc578063e4051484146101b7578063f2fde38b146101295763f825f143146100ab57600080fd5b34610124576020366003190112610124576004356001600160401b0381116101245736602382011215610124576100ee6020913690602481600401359101611324565b81610102604051928381519384920161126b565b600290820190815281900382019020546040516001600160a01b039091168152f35b600080fd5b34610124576020366003190112610124576101426112b3565b61014a6113e1565b6001600160a01b0390811690811561019e57600054826bffffffffffffffffffffffff60a01b821617600055167f8be0079c531659141344cd1fd0a4f28419497f9722a3daafe3b4186f6b6457e0600080a3005b604051631e4fbdf760e01b815260006004820152602490fd5b3461012457602080600319360112610124576001600160401b03600435818111610124576101e99036906004016112f7565b3360005260019182855260ff60406000205416156104a457811561049257610100821161048057600554600019919082811461046a57840194856005556040519060a08201828110828211176103cd5760405285825287820190338252610251368786611324565b92604081019384526060810193824216855260808201938985528a60005260038c52610291604060002093511515849060ff801983541691151516179055565b518254610100600160a81b03191660089190911b610100600160a81b0316178255518051898301918482116103cd576102d4826102ce855461116b565b8561136a565b8c908d601f84116001146103ee575082610345989796959360029593610311936000926103e3575b50508160011b916000199060031b1c19161790565b90555b019251166001600160401b031983541617825551151560ff60401b825491151560401b169060ff60401b1916179055565b3360005260048652604060002090815492680100000000000000008410156103cd5761039b846103c29489987f29d35a46f0bbb48a0f33a29f1cb7a33defbcfbb654a75c1ebc027d06a2870ff4970181556112c9565b819291549060031b9188831b921b19161790556040519182918883523395898401916113c0565b0390a3604051908152f35b634e487b7160e01b600052604160045260246000fd5b0151905038806102fc565b90918c9392601f1984168660005283600020936000905b828210610449575050916103459a99989795939185600298969410610432575b505050811b019055610314565b01518c60f88460031b161c191690558f8080610425565b8496978193949596829397870151815501960194018f969594939291610405565b634e487b7160e01b600052601160045260246000fd5b60405163216e38bd60e21b8152600490fd5b60405163ae92135760e01b8152600490fd5b604051635713986560e11b8152336004820152602490fd5b34610124576060366003190112610124576001600160401b03600435602435828111610124576104f09036906004016112f7565b604435938415159081860361012457846000526020906003602052604060002091825460ff811615908115610688575b506104a45784156104925761010085116104805760018084019286116103cd5761054e866102ce855461116b565b600091601f87116001146105f75750506105ca927fab7ca89e1a6978f4f361479ee3ac78f1f008dc397d1806211ee9e9d8f74045bf9798926105aa87806002956000916105ec575b508160011b916000199060031b1c19161790565b90555b019060ff60401b825491151560401b169060ff60401b1916179055565b6105e16040519384936040855260408501916113c0565b9060208301520390a2005b90508a01358d610596565b6000848152602081209392601f19891692905b83831061067157505050926002926105ca9592887fab7ca89e1a6978f4f361479ee3ac78f1f008dc397d1806211ee9e9d8f74045bf9b9c9610610657575b5050600187811b0190556105ad565b89013560001960038a901b60f8161c191690558a80610648565b8a850135865594850194938101939181019161060a565b60081c6001600160a01b0316331415905089610520565b34610124576060366003190112610124576004356001600160401b038111610124576106cf9036906004016112f7565b906024356001600160401b038111610124576106ef9036906004016112f7565b90916044356001600160401b038111610124576107109036906004016112f7565b33600052600160205260ff604060002054166104a457610731368785611324565b5160038110908115610c1e575b50610c0c57831561049257610100808511610480578111610480576040518684823760028188019081528190036020019020546001600160a01b0316610be5576001600160401b0342166040519260e08401908482106001600160401b038311176103cd576107c891604052600185526107b9368a88611324565b93602086019485523691611324565b60408401526107d8368688611324565b606084015280608084015260a0830152600160c083015233600052600160205260406000209061081783511515839060ff801983541691151516179055565b518051906001600160401b0382116103cd576108438261083a600186015461116b565b6001860161136a565b602090601f8311600114610b7357610873929160009183610af65750508160011b916000199060031b1c19161790565b60018201555b60408201518051906001600160401b0382116103cd576108a9826108a0600286015461116b565b6002860161136a565b602090601f8311600114610b01576108d9929160009183610af65750508160011b916000199060031b1c19161790565b60028201555b60608201518051906001600160401b0382116103cd5761090f82610906600386015461116b565b6003860161136a565b602090601f8311600114610a4a57936001600160401b0360c06004610a2c9661097b877fdb5a8e157f9d5c4d9de6b7f8de10c053028307e5c73dd60580173fdc0cbe66d09d9b986109ee98610a3a9e9c6000926103e35750508160011b916000199060031b1c19161790565b60038201555b01928260808201511683198554161784556109c58360a083015116859067ffffffffffffffff60401b82549160401b169067ffffffffffffffff60401b1916179055565b0151825467ffffffffffffffff60801b1916911660801b67ffffffffffffffff60801b16179055565b604051878282376020818981016002815203019020336bffffffffffffffffffffffff60a01b825416179055604051966060885260608801916113c0565b9185830360208701526113c0565b91600160408201528033930390a2005b906003840160005260206000209160005b601f1985168110610ade575060c06004610a2c966001876109ee97610a3a9d9b977fdb5a8e157f9d5c4d9de6b7f8de10c053028307e5c73dd60580173fdc0cbe66d09f9d9a976001600160401b0398601f19811610610ac5575b505050811b016003820155610981565b015160001960f88460031b161c191690558f8080610ab5565b91926020600181928685015181550194019201610a5b565b0151905089806102fc565b9190600284016000526020600020906000935b601f1984168510610b58576001945083601f19811610610b3f575b505050811b0160028201556108df565b015160001960f88460031b161c19169055888080610b2f565b81810151835560209485019460019093019290910190610b14565b9190600184016000526020600020906000935b601f1984168510610bca576001945083601f19811610610bb1575b505050811b016001820155610879565b015160001960f88460031b161c19169055888080610ba1565b81810151835560209485019460019093019290910190610b86565b604051632b4e256760e01b81526020600482015280610c086024820189876113c0565b0390fd5b604051630a1de65160e31b8152600490fd5b60209150118761073e565b34610124576040366003190112610124576001600160401b0360043581811161012457610c5a9036906004016112f7565b9060243583811161012457610c739036906004016112f7565b9290933360005260019360209085825260ff60406000205416156104a45783156104925761010080851161048057811161048057336000528582526040600020600381018486116103cd57610cd286610ccc835461116b565b8361136a565b600086601f8111600114610ea05780610d0092600091610e9557508160011b916000199060031b1c19161790565b90555b60028101908483116103cd57610d2383610d1d845461116b565b8461136a565b60009183601f8111600114610e245780610d5591600495600091610e1957508160011b916000199060031b1c19161790565b90555b0180546fffffffffffffffff0000000000000000191642851660401b67ffffffffffffffff60401b161781559583875460801c16019280841161046a57865467ffffffffffffffff60801b191660809490941b67ffffffffffffffff60801b169390931786557ff74bc542a29a8246b63327f1ad4a5e956a15ee554c026e5aac6aac586b33e48295610e1493905460801c16610e016040519687966060885260608801916113c0565b92850152838203604085015233966113c0565b0390a2005b90508c01358d610596565b508992601f19851690826000528587600020928c896000915b838310610e79575050506004965010610e5f575b50508884811b019055610d58565b8b0135600019600387901b60f8161c191690558a80610e51565b9885013586558f9895909501949384019389935001898e610e3d565b90508901358c610596565b50601f198716908260005287866000209260005b888d8d848410610ef0575050505010610ed6575b50508786811b019055610d03565b880135600019600389901b60f8161c191690558980610ec8565b860135875590950194938401938b935001610eb4565b34610124576000366003190112610124576020600554604051908152f35b34610124576020366003190112610124576001600160a01b03610f456112b3565b166000526001602052604060002060ff815416610f64600183016111c6565b91610f71600282016111c6565b610fcc6004610f82600385016111c6565b93015492610fbe6001600160401b0393610fb06040519889981515895260e060208a015260e089019061128e565b90878203604089015261128e565b90858203606087015261128e565b918181166080850152818160401c1660a085015260801c1660c08301520390f35b346101245760003660031901126101245760206040516101008152f35b34610124576000366003190112610124576000546040516001600160a01b039091168152602090f35b346101245760003660031901126101245761104c6113e1565b600080546001600160a01b0319811682556001600160a01b03167f8be0079c531659141344cd1fd0a4f28419497f9722a3daafe3b4186f6b6457e08280a3005b34610124576040366003190112610124576110a56112b3565b6001600160a01b0316600090815260046020526040902080546024359190821015610124576020916110d6916112c9565b90546040519160031b1c8152f35b34610124576020366003190112610124576004356000526003602052604060002080546002611115600184016111c6565b92015460ff61114c6040519484838796161515865260018060a01b039060081c16602086015260a0604086015260a085019061128e565b916001600160401b038116606085015260401c16151560808301520390f35b90600182811c9216801561119b575b602083101461118557565b634e487b7160e01b600052602260045260246000fd5b91607f169161117a565b90601f801991011681019081106001600160401b038211176103cd57604052565b906040519182600082546111d98161116b565b90818452602094600191600181169081600014611249575060011461120a575b505050611208925003836111a5565b565b600090815285812095935091905b81831061123157505061120893508201013880806111f9565b85548884018501529485019487945091830191611218565b9250505061120894925060ff191682840152151560051b8201013880806111f9565b60005b83811061127e5750506000910152565b818101518382015260200161126e565b906020916112a78151809281855285808601910161126b565b601f01601f1916010190565b600435906001600160a01b038216820361012457565b80548210156112e15760005260206000200190600090565b634e487b7160e01b600052603260045260246000fd5b9181601f84011215610124578235916001600160401b038311610124576020838186019501011161012457565b9291926001600160401b0382116103cd576040519161134d601f8201601f1916602001846111a5565b829481845281830111610124578281602093846000960137010152565b90601f811161137857505050565b6000916000526020600020906020601f850160051c830194106113b6575b601f0160051c01915b8281106113ab57505050565b81815560010161139f565b9092508290611396565b908060209392818452848401376000828201840152601f01601f1916010190565b6000546001600160a01b031633036113f557565b60405163118cdaa760e01b8152336004820152602490fdfea26469706673582212209128e1ba0ad0a41af073239ea4fac74ff07e7158765a01577b4da6118798128464736f6c63430008180033","linkReferences":{}},"methodIdentifiers":{"MAX_REF_LEN()":"9e9d8684","agentCount()":"b7dc1284","agents(uint256)":"513856c8","createAgent(string)":"e4051484","owner()":"8da5cb5b","registerUser(string,string,string)":"d637dcfa","renounceOwnership()":"715018a6","transferOwnership(address)":"f2fde38b","updateAgent(uint256,string,bool)":"e14f9449","updateProfile(string,string)":"c9d3cc6a","userAgents(address,uint256)":"51ca9ff9","usernameToAddress(string)":"f825f143","users(address)":"a87430ba"},"id":47}