{"abi":[{"type":"constructor","inputs":[],"stateMutability":"nonpayable"},{"type":"function","name":"BPS_DENOMINATOR","inputs":[],"outputs":[{"name":"","type":"uint256","internalType":"uint256"}],"stateMutability":"view"},{"type":"function","name":"CHALLENGER_BOND_BPS","inputs":[],"outputs":[{"name":"","type":"uint256","internalType":"uint256"}],"stateMutability":"view"},{"type":"function","name":"CHALLENGER_BOUNTY_BPS","inputs":[],"outputs":[{"name":"","type":"uint256","internalType":"uint256"}],"stateMutability":"view"},{"type":"function","name":"DISPUTE_WINDOW","inputs":[],"outputs":[{"name":"","type":"uint256","internalType":"uint256"}],"stateMutability":"view"},{"type":"function","name":"JUDGE_FEE_BPS","inputs":[],"outputs":[{"name":"","type":"uint256","internalType":"uint256"}],"stateMutability":"view"},{"type":"function","name":"JUDGE_SLASH_BPS","inputs":[],"outputs":[{"name":"","type":"uint256","internalType":"uint256"}],"stateMutability":"view"},{"type":"function","name":"MAX_REF_LEN","inputs":[],"outputs":[{"name":"","type":"uint256","internalType":"uint256"}],"stateMutability":"view"},{"type":"function","name":"MIN_SCORE","inputs":[],"outputs":[{"name":"","type":"uint256","internalType":"uint256"}],"stateMutability":"view"},{"type":"function","name":"PREVRANDAO_MAX_REWARD","inputs":[],"outputs":[{"name":"","type":"uint256","internalType":"uint256"}],"stateMutability":"view"},{"type":"function","name":"PROTOCOL_FEE_BPS","inputs":[],"outputs":[{"name":"","type":"uint256","internalType":"uint256"}],"stateMutability":"view"},{"type":"function","name":"REASSIGN_WINDOW","inputs":[],"outputs":[{"name":"","type":"uint256","internalType":"uint256"}],"stateMutability":"view"},{"type":"function","name":"UPGRADE_INTERFACE_VERSION","inputs":[],"outputs":[{"name":"","type":"string","internalType":"string"}],"stateMutability":"view"},{"type":"function","name":"WINNER_PAYOUT_BPS","inputs":[],"outputs":[{"name":"","type":"uint256","internalType":"uint256"}],"stateMutability":"view"},{"type":"function","name":"applications","inputs":[{"name":"","type":"uint256","internalType":"uint256"},{"name":"","type":"address","internalType":"address"}],"outputs":[{"name":"exists","type":"bool","internalType":"bool"},{"name":"submitted","type":"bool","internalType":"bool"},{"name":"stake","type":"uint256","internalType":"uint256"}],"stateMutability":"view"},{"type":"function","name":"applyForTask","inputs":[{"name":"task_id","type":"uint256","internalType":"uint256"}],"outputs":[],"stateMutability":"payable"},{"type":"function","name":"cancelTask","inputs":[{"name":"task_id","type":"uint256","internalType":"uint256"}],"outputs":[],"stateMutability":"nonpayable"},{"type":"function","name":"claimExpired","inputs":[{"name":"task_id","type":"uint256","internalType":"uint256"}],"outputs":[],"stateMutability":"nonpayable"},{"type":"function","name":"claimStake","inputs":[{"name":"task_id","type":"uint256","internalType":"uint256"}],"outputs":[],"stateMutability":"nonpayable"},{"type":"function","name":"disputeResolver","inputs":[],"outputs":[{"name":"","type":"address","internalType":"address"}],"stateMutability":"view"},{"type":"function","name":"disputeTask","inputs":[{"name":"task_id","type":"uint256","internalType":"uint256"},{"name":"reason_hash","type":"bytes32","internalType":"bytes32"}],"outputs":[],"stateMutability":"payable"},{"type":"function","name":"disputes","inputs":[{"name":"","type":"uint256","internalType":"uint256"}],"outputs":[{"name":"state","type":"uint8","internalType":"enum AgentArenaEVM.DisputeState"},{"name":"challenger","type":"address","internalType":"address"},{"name":"reasonHash","type":"bytes32","internalType":"bytes32"},{"name":"openedAt","type":"uint64","internalType":"uint64"},{"name":"bond","type":"uint256","internalType":"uint256"},{"name":"outcome","type":"uint8","internalType":"enum AgentArenaEVM.DisputeOutcome"},{"name":"resolver","type":"address","internalType":"address"},{"name":"correctWinner","type":"address","internalType":"address"},{"name":"correctScore","type":"uint8","internalType":"uint8"}],"stateMutability":"view"},{"type":"function","name":"forceRefund","inputs":[{"name":"task_id","type":"uint256","internalType":"uint256"}],"outputs":[],"stateMutability":"nonpayable"},{"type":"function","name":"getApplicants","inputs":[{"name":"task_id","type":"uint256","internalType":"uint256"}],"outputs":[{"name":"","type":"address[]","internalType":"address[]"}],"stateMutability":"view"},{"type":"function","name":"getReputation","inputs":[{"name":"agent","type":"address","internalType":"address"}],"outputs":[{"name":"totalApplied","type":"uint256","internalType":"uint256"},{"name":"completed","type":"uint256","internalType":"uint256"},{"name":"totalEarned","type":"uint256","internalType":"uint256"},{"name":"totalScore","type":"uint256","internalType":"uint256"},{"name":"avgScore","type":"uint256","internalType":"uint256"},{"name":"winRateBps","type":"uint256","internalType":"uint256"}],"stateMutability":"view"},{"type":"function","name":"getSubmission","inputs":[{"name":"task_id","type":"uint256","internalType":"uint256"},{"name":"agent","type":"address","internalType":"address"}],"outputs":[{"name":"","type":"tuple","internalType":"struct AgentArenaEVM.Submission","components":[{"name":"exists","type":"bool","internalType":"bool"},{"name":"submittedAt","type":"uint64","internalType":"uint64"},{"name":"resultRef","type":"string","internalType":"string"},{"name":"traceRef","type":"string","internalType":"string"}]}],"stateMutability":"view"},{"type":"function","name":"getTaskJudgePool","inputs":[{"name":"task_id","type":"uint256","internalType":"uint256"}],"outputs":[{"name":"","type":"address[]","internalType":"address[]"}],"stateMutability":"view"},{"type":"function","name":"hasJudged","inputs":[{"name":"","type":"uint256","internalType":"uint256"}],"outputs":[{"name":"","type":"bool","internalType":"bool"}],"stateMutability":"view"},{"type":"function","name":"initialize","inputs":[{"name":"owner_","type":"address","internalType":"address"},{"name":"treasury_","type":"address","internalType":"address"}],"outputs":[],"stateMutability":"nonpayable"},{"type":"function","name":"judgeAndPay","inputs":[{"name":"task_id","type":"uint256","internalType":"uint256"},{"name":"winner","type":"address","internalType":"address"},{"name":"score","type":"uint8","internalType":"uint8"}],"outputs":[],"stateMutability":"nonpayable"},{"type":"function","name":"judgeRegistry","inputs":[],"outputs":[{"name":"","type":"address","internalType":"address"}],"stateMutability":"view"},{"type":"function","name":"judgeWithProof","inputs":[{"name":"task_id","type":"uint256","internalType":"uint256"},{"name":"winner","type":"address","internalType":"address"},{"name":"score","type":"uint8","internalType":"uint8"},{"name":"evaluationHash","type":"bytes32","internalType":"bytes32"}],"outputs":[],"stateMutability":"nonpayable"},{"type":"function","name":"judgements","inputs":[{"name":"","type":"uint256","internalType":"uint256"},{"name":"","type":"address","internalType":"address"}],"outputs":[{"name":"exists","type":"bool","internalType":"bool"},{"name":"winner","type":"address","internalType":"address"},{"name":"score","type":"uint8","internalType":"uint8"},{"name":"submittedAt","type":"uint64","internalType":"uint64"}],"stateMutability":"view"},{"type":"function","name":"llmJudgeOracle","inputs":[],"outputs":[{"name":"","type":"address","internalType":"address"}],"stateMutability":"view"},{"type":"function","name":"owner","inputs":[],"outputs":[{"name":"","type":"address","internalType":"address"}],"stateMutability":"view"},{"type":"function","name":"postTask","inputs":[{"name":"eval_ref","type":"string","internalType":"string"},{"name":"deadline","type":"uint64","internalType":"uint64"},{"name":"judge_deadline","type":"uint64","internalType":"uint64"},{"name":"judge","type":"address","internalType":"address"},{"name":"category","type":"uint8","internalType":"uint8"},{"name":"min_stake","type":"uint256","internalType":"uint256"}],"outputs":[{"name":"task_id","type":"uint256","internalType":"uint256"}],"stateMutability":"payable"},{"type":"function","name":"postTaskErc20","inputs":[{"name":"eval_ref","type":"string","internalType":"string"},{"name":"deadline","type":"uint64","internalType":"uint64"},{"name":"judge_deadline","type":"uint64","internalType":"uint64"},{"name":"judge","type":"address","internalType":"address"},{"name":"category","type":"uint8","internalType":"uint8"},{"name":"min_stake","type":"uint256","internalType":"uint256"},{"name":"token","type":"address","internalType":"address"},{"name":"reward_amount","type":"uint256","internalType":"uint256"}],"outputs":[{"name":"task_id","type":"uint256","internalType":"uint256"}],"stateMutability":"nonpayable"},{"type":"function","name":"postTaskErc20Quorum","inputs":[{"name":"eval_ref","type":"string","internalType":"string"},{"name":"deadline","type":"uint64","internalType":"uint64"},{"name":"judge_deadline","type":"uint64","internalType":"uint64"},{"name":"category","type":"uint8","internalType":"uint8"},{"name":"min_stake","type":"uint256","internalType":"uint256"},{"name":"token","type":"address","internalType":"address"},{"name":"reward_amount","type":"uint256","internalType":"uint256"},{"name":"judge_mode","type":"uint8","internalType":"uint8"},{"name":"judges","type":"address[]","internalType":"address[]"}],"outputs":[{"name":"task_id","type":"uint256","internalType":"uint256"}],"stateMutability":"nonpayable"},{"type":"function","name":"postTaskQuorum","inputs":[{"name":"eval_ref","type":"string","internalType":"string"},{"name":"deadline","type":"uint64","internalType":"uint64"},{"name":"judge_deadline","type":"uint64","internalType":"uint64"},{"name":"category","type":"uint8","internalType":"uint8"},{"name":"min_stake","type":"uint256","internalType":"uint256"},{"name":"judge_mode","type":"uint8","internalType":"uint8"},{"name":"judges","type":"address[]","internalType":"address[]"}],"outputs":[{"name":"task_id","type":"uint256","internalType":"uint256"}],"stateMutability":"payable"},{"type":"function","name":"protocolFees","inputs":[{"name":"","type":"address","internalType":"address"}],"outputs":[{"name":"","type":"uint256","internalType":"uint256"}],"stateMutability":"view"},{"type":"function","name":"proxiableUUID","inputs":[],"outputs":[{"name":"","type":"bytes32","internalType":"bytes32"}],"stateMutability":"view"},{"type":"function","name":"reassignJudge","inputs":[{"name":"task_id","type":"uint256","internalType":"uint256"}],"outputs":[],"stateMutability":"nonpayable"},{"type":"function","name":"renounceOwnership","inputs":[],"outputs":[],"stateMutability":"nonpayable"},{"type":"function","name":"reputations","inputs":[{"name":"","type":"address","internalType":"address"}],"outputs":[{"name":"totalApplied","type":"uint256","internalType":"uint256"},{"name":"completed","type":"uint256","internalType":"uint256"},{"name":"totalEarned","type":"uint256","internalType":"uint256"},{"name":"totalScore","type":"uint256","internalType":"uint256"},{"name":"winRateBps","type":"uint256","internalType":"uint256"}],"stateMutability":"view"},{"type":"function","name":"resolveDispute","inputs":[{"name":"task_id","type":"uint256","internalType":"uint256"},{"name":"outcome","type":"uint8","internalType":"uint8"},{"name":"correct_winner","type":"address","internalType":"address"},{"name":"correct_score","type":"uint8","internalType":"uint8"}],"outputs":[],"stateMutability":"nonpayable"},{"type":"function","name":"setDisputeResolver","inputs":[{"name":"resolver","type":"address","internalType":"address"}],"outputs":[],"stateMutability":"nonpayable"},{"type":"function","name":"setJudgeRegistry","inputs":[{"name":"registry","type":"address","internalType":"address"}],"outputs":[],"stateMutability":"nonpayable"},{"type":"function","name":"setLlmJudgeOracle","inputs":[{"name":"oracle","type":"address","internalType":"address"}],"outputs":[],"stateMutability":"nonpayable"},{"type":"function","name":"settleWithQuorum","inputs":[{"name":"task_id","type":"uint256","internalType":"uint256"}],"outputs":[],"stateMutability":"nonpayable"},{"type":"function","name":"submitJudgement","inputs":[{"name":"task_id","type":"uint256","internalType":"uint256"},{"name":"winner","type":"address","internalType":"address"},{"name":"score","type":"uint8","internalType":"uint8"}],"outputs":[],"stateMutability":"nonpayable"},{"type":"function","name":"submitResult","inputs":[{"name":"task_id","type":"uint256","internalType":"uint256"},{"name":"result_ref","type":"string","internalType":"string"},{"name":"trace_ref","type":"string","internalType":"string"}],"outputs":[],"stateMutability":"nonpayable"},{"type":"function","name":"taskCount","inputs":[],"outputs":[{"name":"","type":"uint256","internalType":"uint256"}],"stateMutability":"view"},{"type":"function","name":"taskEvalRef","inputs":[{"name":"","type":"uint256","internalType":"uint256"}],"outputs":[{"name":"","type":"string","internalType":"string"}],"stateMutability":"view"},{"type":"function","name":"taskJudgePool","inputs":[{"name":"","type":"uint256","internalType":"uint256"},{"name":"","type":"uint256","internalType":"uint256"}],"outputs":[{"name":"","type":"address","internalType":"address"}],"stateMutability":"view"},{"type":"function","name":"tasks","inputs":[{"name":"","type":"uint256","internalType":"uint256"}],"outputs":[{"name":"poster","type":"address","internalType":"address"},{"name":"judge","type":"address","internalType":"address"},{"name":"winner","type":"address","internalType":"address"},{"name":"paymentToken","type":"address","internalType":"address"},{"name":"minStake","type":"uint256","internalType":"uint256"},{"name":"reward","type":"uint256","internalType":"uint256"},{"name":"deadline","type":"uint64","internalType":"uint64"},{"name":"judgeDeadline","type":"uint64","internalType":"uint64"},{"name":"category","type":"uint8","internalType":"uint8"},{"name":"score","type":"uint8","internalType":"uint8"},{"name":"state","type":"uint8","internalType":"enum AgentArenaEVM.TaskState"},{"name":"judgeMode","type":"uint8","internalType":"uint8"}],"stateMutability":"view"},{"type":"function","name":"transferOwnership","inputs":[{"name":"newOwner","type":"address","internalType":"address"}],"outputs":[],"stateMutability":"nonpayable"},{"type":"function","name":"treasury","inputs":[],"outputs":[{"name":"","type":"address","internalType":"address"}],"stateMutability":"view"},{"type":"function","name":"upgradeToAndCall","inputs":[{"name":"newImplementation","type":"address","internalType":"address"},{"name":"data","type":"bytes","internalType":"bytes"}],"outputs":[],"stateMutability":"payable"},{"type":"function","name":"withdrawProtocolFees","inputs":[{"name":"token","type":"address","internalType":"address"}],"outputs":[],"stateMutability":"nonpayable"},{"type":"event","name":"AgentCompensated","inputs":[{"name":"taskId","type":"uint256","indexed":true,"internalType":"uint256"},{"name":"agent","type":"address","indexed":true,"internalType":"address"},{"name":"amount","type":"uint256","indexed":false,"internalType":"uint256"}],"anonymous":false},{"type":"event","name":"DisputeOpened","inputs":[{"name":"taskId","type":"uint256","indexed":true,"internalType":"uint256"},{"name":"challenger","type":"address","indexed":true,"internalType":"address"},{"name":"bond","type":"uint256","indexed":false,"internalType":"uint256"},{"name":"reasonHash","type":"bytes32","indexed":false,"internalType":"bytes32"}],"anonymous":false},{"type":"event","name":"DisputeResolved","inputs":[{"name":"taskId","type":"uint256","indexed":true,"internalType":"uint256"},{"name":"outcome","type":"uint8","indexed":false,"internalType":"uint8"},{"name":"resolver","type":"address","indexed":true,"internalType":"address"},{"name":"correctWinner","type":"address","indexed":false,"internalType":"address"},{"name":"correctScore","type":"uint8","indexed":false,"internalType":"uint8"}],"anonymous":false},{"type":"event","name":"Initialized","inputs":[{"name":"version","type":"uint64","indexed":false,"internalType":"uint64"}],"anonymous":false},{"type":"event","name":"JudgeSlashed","inputs":[{"name":"taskId","type":"uint256","indexed":true,"internalType":"uint256"},{"name":"judge","type":"address","indexed":true,"internalType":"address"},{"name":"amount","type":"uint256","indexed":false,"internalType":"uint256"},{"name":"reason","type":"string","indexed":false,"internalType":"string"}],"anonymous":false},{"type":"event","name":"LLMJudgeSet","inputs":[{"name":"previousOracle","type":"address","indexed":true,"internalType":"address"},{"name":"newOracle","type":"address","indexed":true,"internalType":"address"}],"anonymous":false},{"type":"event","name":"OwnershipTransferred","inputs":[{"name":"previousOwner","type":"address","indexed":true,"internalType":"address"},{"name":"newOwner","type":"address","indexed":true,"internalType":"address"}],"anonymous":false},{"type":"event","name":"ProtocolFeesWithdrawn","inputs":[{"name":"token","type":"address","indexed":true,"internalType":"address"},{"name":"treasury","type":"address","indexed":true,"internalType":"address"},{"name":"amount","type":"uint256","indexed":false,"internalType":"uint256"}],"anonymous":false},{"type":"event","name":"StakeRefunded","inputs":[{"name":"taskId","type":"uint256","indexed":true,"internalType":"uint256"},{"name":"agent","type":"address","indexed":true,"internalType":"address"},{"name":"stake","type":"uint256","indexed":false,"internalType":"uint256"}],"anonymous":false},{"type":"event","name":"SubmissionReceived","inputs":[{"name":"taskId","type":"uint256","indexed":true,"internalType":"uint256"},{"name":"agent","type":"address","indexed":true,"internalType":"address"},{"name":"resultRef","type":"string","indexed":false,"internalType":"string"},{"name":"traceRef","type":"string","indexed":false,"internalType":"string"}],"anonymous":false},{"type":"event","name":"TaskApplied","inputs":[{"name":"taskId","type":"uint256","indexed":true,"internalType":"uint256"},{"name":"agent","type":"address","indexed":true,"internalType":"address"},{"name":"stake","type":"uint256","indexed":false,"internalType":"uint256"}],"anonymous":false},{"type":"event","name":"TaskCreated","inputs":[{"name":"taskId","type":"uint256","indexed":true,"internalType":"uint256"},{"name":"poster","type":"address","indexed":true,"internalType":"address"},{"name":"judge","type":"address","indexed":true,"internalType":"address"},{"name":"category","type":"uint8","indexed":false,"internalType":"uint8"},{"name":"minStake","type":"uint256","indexed":false,"internalType":"uint256"},{"name":"reward","type":"uint256","indexed":false,"internalType":"uint256"},{"name":"deadline","type":"uint64","indexed":false,"internalType":"uint64"},{"name":"judgeDeadline","type":"uint64","indexed":false,"internalType":"uint64"},{"name":"evalRef","type":"string","indexed":false,"internalType":"string"}],"anonymous":false},{"type":"event","name":"TaskJudged","inputs":[{"name":"taskId","type":"uint256","indexed":true,"internalType":"uint256"},{"name":"winner","type":"address","indexed":true,"internalType":"address"},{"name":"score","type":"uint8","indexed":false,"internalType":"uint8"},{"name":"winnerPayout","type":"uint256","indexed":false,"internalType":"uint256"},{"name":"judgeFee","type":"uint256","indexed":false,"internalType":"uint256"},{"name":"protocolFee","type":"uint256","indexed":false,"internalType":"uint256"}],"anonymous":false},{"type":"event","name":"TaskJudgedWithProof","inputs":[{"name":"taskId","type":"uint256","indexed":true,"internalType":"uint256"},{"name":"winner","type":"address","indexed":true,"internalType":"address"},{"name":"score","type":"uint8","indexed":false,"internalType":"uint8"},{"name":"evaluationHash","type":"bytes32","indexed":false,"internalType":"bytes32"}],"anonymous":false},{"type":"event","name":"TaskRefunded","inputs":[{"name":"taskId","type":"uint256","indexed":true,"internalType":"uint256"},{"name":"poster","type":"address","indexed":true,"internalType":"address"},{"name":"reward","type":"uint256","indexed":false,"internalType":"uint256"},{"name":"score","type":"uint8","indexed":false,"internalType":"uint8"}],"anonymous":false},{"type":"event","name":"Upgraded","inputs":[{"name":"implementation","type":"address","indexed":true,"internalType":"address"}],"anonymous":false},{"type":"error","name":"AddressEmptyCode","inputs":[{"name":"target","type":"address","internalType":"address"}]},{"type":"error","name":"AlreadyApplied","inputs":[{"name":"taskId","type":"uint256","internalType":"uint256"},{"name":"agent","type":"address","internalType":"address"}]},{"type":"error","name":"AlreadyInitialized","inputs":[]},{"type":"error","name":"AlreadyJudged","inputs":[{"name":"taskId","type":"uint256","internalType":"uint256"},{"name":"judge","type":"address","internalType":"address"}]},{"type":"error","name":"AlreadySubmitted","inputs":[{"name":"taskId","type":"uint256","internalType":"uint256"},{"name":"agent","type":"address","internalType":"address"}]},{"type":"error","name":"BondAmountIncorrect","inputs":[{"name":"expected","type":"uint256","internalType":"uint256"},{"name":"actual","type":"uint256","internalType":"uint256"}]},{"type":"error","name":"CannotCancelAfterSubmission","inputs":[{"name":"taskId","type":"uint256","internalType":"uint256"}]},{"type":"error","name":"DeadlinePassed","inputs":[{"name":"taskId","type":"uint256","internalType":"uint256"}]},{"type":"error","name":"DisputeAlreadyOpen","inputs":[{"name":"taskId","type":"uint256","internalType":"uint256"}]},{"type":"error","name":"DisputeNotOpen","inputs":[{"name":"taskId","type":"uint256","internalType":"uint256"}]},{"type":"error","name":"DisputeWindowClosed","inputs":[{"name":"taskId","type":"uint256","internalType":"uint256"}]},{"type":"error","name":"DuplicateVote","inputs":[{"name":"taskId","type":"uint256","internalType":"uint256"},{"name":"judge","type":"address","internalType":"address"}]},{"type":"error","name":"ERC1967InvalidImplementation","inputs":[{"name":"implementation","type":"address","internalType":"address"}]},{"type":"error","name":"ERC1967NonPayable","inputs":[]},{"type":"error","name":"FailedCall","inputs":[]},{"type":"error","name":"HighValueTaskRequiresDesignatedJudge","inputs":[{"name":"taskId","type":"uint256","internalType":"uint256"}]},{"type":"error","name":"InvalidCategory","inputs":[{"name":"category","type":"uint8","internalType":"uint8"}]},{"type":"error","name":"InvalidDeadline","inputs":[{"name":"deadline","type":"uint64","internalType":"uint64"}]},{"type":"error","name":"InvalidDisputeOutcome","inputs":[{"name":"outcome","type":"uint8","internalType":"uint8"}]},{"type":"error","name":"InvalidInitialization","inputs":[]},{"type":"error","name":"InvalidJudgeDeadline","inputs":[{"name":"judgeDeadline","type":"uint64","internalType":"uint64"}]},{"type":"error","name":"InvalidJudgeMode","inputs":[{"name":"taskId","type":"uint256","internalType":"uint256"}]},{"type":"error","name":"InvalidRefLength","inputs":[]},{"type":"error","name":"InvalidScore","inputs":[{"name":"score","type":"uint8","internalType":"uint8"}]},{"type":"error","name":"InvalidStakeAmount","inputs":[{"name":"expected","type":"uint256","internalType":"uint256"},{"name":"actual","type":"uint256","internalType":"uint256"}]},{"type":"error","name":"JudgeCannotApply","inputs":[{"name":"taskId","type":"uint256","internalType":"uint256"},{"name":"judge","type":"address","internalType":"address"}]},{"type":"error","name":"JudgeDeadlineNotReached","inputs":[{"name":"taskId","type":"uint256","internalType":"uint256"}]},{"type":"error","name":"JudgeDeadlinePassed","inputs":[{"name":"taskId","type":"uint256","internalType":"uint256"}]},{"type":"error","name":"NoJudgeRegistry","inputs":[]},{"type":"error","name":"NoSubmittedAgents","inputs":[{"name":"taskId","type":"uint256","internalType":"uint256"}]},{"type":"error","name":"NotApplied","inputs":[{"name":"taskId","type":"uint256","internalType":"uint256"},{"name":"agent","type":"address","internalType":"address"}]},{"type":"error","name":"NotDisputeResolver","inputs":[{"name":"caller","type":"address","internalType":"address"}]},{"type":"error","name":"NotInitializing","inputs":[]},{"type":"error","name":"NotPoolJudge","inputs":[{"name":"taskId","type":"uint256","internalType":"uint256"},{"name":"caller","type":"address","internalType":"address"}]},{"type":"error","name":"NotTaskJudge","inputs":[{"name":"taskId","type":"uint256","internalType":"uint256"},{"name":"caller","type":"address","internalType":"address"},{"name":"expectedJudge","type":"address","internalType":"address"}]},{"type":"error","name":"NotTaskPoster","inputs":[{"name":"taskId","type":"uint256","internalType":"uint256"},{"name":"caller","type":"address","internalType":"address"},{"name":"expectedPoster","type":"address","internalType":"address"}]},{"type":"error","name":"NotTreasury","inputs":[{"name":"caller","type":"address","internalType":"address"}]},{"type":"error","name":"OwnableInvalidOwner","inputs":[{"name":"owner","type":"address","internalType":"address"}]},{"type":"error","name":"OwnableUnauthorizedAccount","inputs":[{"name":"account","type":"address","internalType":"address"}]},{"type":"error","name":"QuorumNotReached","inputs":[{"name":"taskId","type":"uint256","internalType":"uint256"}]},{"type":"error","name":"ReassignWindowNotOpen","inputs":[{"name":"taskId","type":"uint256","internalType":"uint256"}]},{"type":"error","name":"ReentrancyGuardReentrantCall","inputs":[]},{"type":"error","name":"SafeERC20FailedOperation","inputs":[{"name":"token","type":"address","internalType":"address"}]},{"type":"error","name":"StakeNotClaimable","inputs":[{"name":"taskId","type":"uint256","internalType":"uint256"},{"name":"agent","type":"address","internalType":"address"}]},{"type":"error","name":"TaskHasJudged","inputs":[{"name":"taskId","type":"uint256","internalType":"uint256"}]},{"type":"error","name":"TaskNotCompleted","inputs":[{"name":"taskId","type":"uint256","internalType":"uint256"}]},{"type":"error","name":"TaskNotFound","inputs":[{"name":"taskId","type":"uint256","internalType":"uint256"}]},{"type":"error","name":"TaskNotOpen","inputs":[{"name":"taskId","type":"uint256","internalType":"uint256"}]},{"type":"error","name":"TokenTransferFailed","inputs":[{"name":"token","type":"address","internalType":"address"},{"name":"from","type":"address","internalType":"address"},{"name":"to","type":"address","internalType":"address"},{"name":"amount","type":"uint256","internalType":"uint256"}]},{"type":"error","name":"TransferFailed","inputs":[{"name":"to","type":"address","internalType":"address"},{"name":"amount","type":"uint256","internalType":"uint256"}]},{"type":"error","name":"TransferFeeTooHigh","inputs":[{"name":"expected","type":"uint256","internalType":"uint256"},{"name":"actual","type":"uint256","internalType":"uint256"}]},{"type":"error","name":"UUPSUnauthorizedCallContext","inputs":[]},{"type":"error","name":"UUPSUnsupportedProxiableUUID","inputs":[{"name":"slot","type":"bytes32","internalType":"bytes32"}]},{"type":"error","name":"UnexpectedEther","inputs":[{"name":"amount","type":"uint256","internalType":"uint256"}]},{"type":"error","name":"WinnerNotApplied","inputs":[{"name":"taskId","type":"uint256","internalType":"uint256"},{"name":"winner","type":"address","internalType":"address"}]},{"type":"error","name":"WinnerSubmissionMissing","inputs":[{"name":"taskId","type":"uint256","internalType":"uint256"},{"name":"winner","type":"address","internalType":"address"}]},{"type":"error","name":"ZeroAddress","inputs":[]},{"type":"error","name":"ZeroReward","inputs":[]}],"bytecode":{"object":"0x60a08060405234620000f5573060805260017f9b779b17422d0df92223018b32b4d1fa46e071723d6817e2486d003becc55f00557ff0c57e16840df040f15088dc2f81fe391c3923bec73e23a9662efc9c229c6a009081549060ff8260401c16620000e657506001600160401b036002600160401b031982821601620000a0575b60405161531b9081620000fb82396080518181816131a001526132850152f35b6001600160401b031990911681179091556040519081527fc7f505b2f371ae2175ee4913f4499e1f2633a7b5936321eed1cdaeb6115181d290602090a138808062000080565b63f92ee8a960e01b8152600490fd5b600080fdfe6080604052600436101561001257600080fd5b60003560e01c806305f8d94c14613fda57806306fa15a714613f745780630b422abe14613eb357806312a453bf14613e9657806315903a5a14613b545780631751a6f014613b0257806326b2e2ea14613a8c5780632870bcb214613a635780632d80caa514613a425780633312e201146139cc57806337f55559146139af5780633abae3871461396f57806340b892701461395357806344c7d6ef14613824578063485cc955146136ba5780634dfb62ac1461341e5780634f1ef2861461320a57806352d1902d1461318d5780635307a3f61461317057806355f0e2211461307c578063564a565d14612fcc57806358aed01614612fa357806358cb750714612f805780635de1dffa14612f4f57806361d027b314612f265780636685237414612ec15780636cf5d86e14612e3f578063715018a614612dd55780637336fb6114612d925780637eec20a814612b1f578063844327a2146127145780638d977672146126465780638da5cb5b146126105780638f4de602146125665780639082c3801461212257806391b7d16c14611742578063924e63f6146116fa5780639c89a0e2146116715780639e9d8684146116555780639eabcbad14611637578063a3caf61d14611567578063a7c3a1531461136a578063ab9d8cf814611300578063ad3cb1cc146112a4578063ae43525e14611287578063b6cb58a514611269578063be3782281461124d578063c287e3a914610edc578063cbfb97e214610950578063ccedad4014610708578063d9b7d1541461053c578063da249b9a14610385578063dcf844a71461034b578063e1a452181461032e578063f2fde38b14610303578063f585dc57146102e5578063f5a3f4af146102bc5763fc65a3921461029a57600080fd5b346102b75760003660031901126102b75760206040516101f48152f35b600080fd5b346102b75760003660031901126102b7576001546040516001600160a01b039091168152602090f35b346102b75760003660031901126102b757602060405162093a808152f35b346102b75760203660031901126102b75761032c61031f61425a565b610327614d33565b6147ed565b005b346102b75760003660031901126102b75760206040516127108152f35b346102b75760203660031901126102b7576001600160a01b0361036c61425a565b16600052600f6020526020604060002054604051908152f35b346102b7576103933661456a565b600083815260056020526040902080549192916001600160a01b031615610523576006015460ff8160901c166103c88161454a565b61050a576001600160401b038160401c1642116104f15760ff8316606481116104d9575060981c60ff16156104c0576104013384615134565b156104a15782600052600d60205260406000203360005260205260406000209283549060ff821661048157506001600160a81b03191660089190911b610100600160a81b0316176001178255815468ffffffffffffffffff60a81b191660a89190911b60ff60a81b16174260b01b67ffffffffffffffff60b01b16179055005b604051636db52ddb60e01b81526004810191909152336024820152604490fd5b60405163485c4a8d60e01b815260048101849052336024820152604490fd5b60405163560be7c560e01b815260048101849052602490fd5b602490604051906306fae60560e11b82526004820152fd5b60405163137a4c7760e21b815260048101859052602490fd5b604051639d6bda0b60e01b815260048101859052602490fd5b60405163ad0e34ad60e01b815260048101859052602490fd5b6020806003193601126102b757600435610554614861565b61055d81614891565b916001600160401b036006840154164210156106ef5761057d33836150f1565b6106d05781600052600681526040600020336000528152604060002060ff8154166106b1576004840180546003909501546001600160a01b03168061067c57505480340361065e5750600184915b8160ff19825416178155015581600052600881526105ed33604060002061466a565b3360005260098152604060002090815460018101809111610648577f90afab7a4a35c58c10d948e8cfc1ea940127bcaa4ba7b925ef29f471547480b092556040519384523393a360016000805160206152a683398151915255005b634e487b7160e01b600052601160045260246000fd5b60449060405190630cf4985560e11b82526004820152346024820152fd5b90503461069957600194610691913390614902565b9384916105cb565b6040516365a3862560e11b8152346004820152602490fd5b604051637bab3ccf60e11b815260048101849052336024820152604490fd5b60405163d5fa645b60e01b815260048101839052336024820152604490fd5b60405163bfb22adf60e01b815260048101839052602490fd5b346102b75760203660031901126102b757610721614861565b600435600090815260056020526040902080546001600160a01b03161561093757600681015460ff8160981c1661091e57600435600052600e60205260ff60406000205416610905576001600160401b038160401c166201517f198101908111610648574211156108ec576002546001600160a01b03169081156108da5760018301546001600160a01b03811692909183914491906000905b600a60ff831610610808575b6001600160a01b031986166001600160a01b03861617600189015560048801546107f490600a900488614bb2565b60016000805160206152a683398151915255005b60405163074614f160e01b815260ff608085901c1660048201526024810185905294509192909190602085604481855afa9485156108ce5760009561089d575b506001600160a01b03851687900361089857600160ff91604051602081019182528360f81b8660f81b166040820152604160043581830152815261088b816143f2565b51902094930116906107ba565b6107c6565b6108c091955060203d6020116108c7575b6108b88183614429565b8101906147ba565b9388610848565b503d6108ae565b6040513d6000823e3d90fd5b604051634c5ec68360e01b8152600490fd5b602460405163aab600bd60e01b81526004356004820152fd5b6024604051637dc75a7b60e01b81526004356004820152fd5b602460405163560be7c560e01b81526004356004820152fd5b602460405163ad0e34ad60e01b81526004356004820152fd5b346102b7576101003660031901126102b7576004356001600160401b0381116102b75761098190369060040161429c565b9061098a6142c9565b916109936142df565b61099b614286565b906109a4614305565b9160c4356001600160a01b03811690036102b75760c4356001600160a01b031615610eca5760e43515610eb85783158015610eae575b610e9c57600760ff841611610e8157426001600160401b0387161115610e60576001600160401b0386166001600160401b0383161115610e3f57610a2360e4353360c435614902565b936001600160a01b03821615610da3575b610a3f60045461460f565b9586600455610c18604051610a538161440d565b33815260018060a01b03851660208201526000604082015260018060a01b0360c43516606082015260a43560808201528760a08201526001600160401b038a1660c08201526001600160401b03861660e082015260ff871661010082015260006101208201526000610140820152600061016082015288600052600560205260ff6101606006604060002060018060a01b038551166001600160601b0360a01b8254161781556001810160018060a01b036020870151166001600160601b0360a01b8254161790556002810160018060a01b036040870151166001600160601b0360a01b8254161790556003810160018060a01b036060870151166001600160601b0360a01b8254161790556080850151600482015560a0850151600582015501926001600160401b0360c0820151166001600160401b0319855416178455610ba96001600160401b0360e0830151168561461e565b610100810151845460ff60801b191690841660801b60ff60801b16178455610120810151845460ff60881b191690841660881b60ff60881b16178455610bfd610140820151610bf78161454a565b856145ab565b0151825460ff60981b1916911660981b60ff60981b16179055565b86600052600a6020526040600020936001600160401b038311610d8d57610c3f85546143b8565b601f8111610d45575b509187939160209993600096601f8411600114610cc55790839291610caf946000805160206152c68339815191529899600091610cba575b508460011b906000198660031b1c19161790555b60405195869560018060a01b03169a339a60a43590886146cb565b0390a4604051908152f35b90508301358e610c80565b806000528b6000209760005b601f1986168110610d2b5750906000805160206152c6833981519152979885949392610caf96601f19811610610d11575b5050600184811b019055610c94565b840135600019600387901b60f8161c191690558d80610d02565b818501358a556001909901988c9850908d01908d01610cd1565b856000526020600020601f850160051c81019160208610610d83575b601f0160051c01905b818110610d775750610c48565b60008155600101610d6a565b9091508190610d61565b634e487b7160e01b600052604160045260246000fd5b9050670de0b6b3a764000060e43511610e26576002546001600160a01b031680156108da5760405163074614f160e01b815260ff8516600482015244602482015290602090829060449082905afa9081156108ce57600091610e07575b5090610a34565b610e20915060203d6020116108c7576108b88183614429565b87610e00565b60405163971e76e560e01b815260006004820152602490fd5b60405163296abdcf60e11b81526001600160401b0383166004820152602490fd5b60405163bc4bfd3b60e01b81526001600160401b0387166004820152602490fd5b60405163e4e866a960e01b815260ff84166004820152602490fd5b60405163f6011f4b60e01b8152600490fd5b50608084116109da565b604051632706c9e160e21b8152600490fd5b60405163d92e233d60e01b8152600490fd5b60e03660031901126102b7576004356001600160401b0381116102b757610f0790369060040161429c565b90610f106142c9565b610f186142df565b90610f216142f5565b9360ff60a43516938460a435036102b75760c4356001600160401b0381116102b757610f51903690600401614315565b90953415610eb85783158015611243575b610e9c5760ff88166007811161122b5750426001600160401b038616111561120a576001600160401b0386166001600160401b0386168111156111f25750156111d95780156111d957610fb660045461460f565b958660045586600052600560205261105c600660406000206001600160601b0360a01b33818354161782556001820181815416905560028201818154169055600382019081541690556084356004820155346005820155016001600160401b0387166001600160401b0319825416178155611031888261461e565b805460ff60981b60a43560981b1663ffffffff60801b1990911660ff60801b60808d901b1617179055565b600a60205260406000206001600160401b038511610d8d5761107e81546143b8565b601f8111611191575b50846000601f821160011461112b57600091611120575b508560011b906000198760031b1c19161790555b60005b8281106110ed5760208860008b826000805160206152c68339815191528c8c610caf8d8d6040519485943399349060843590886146cb565b60019088600052600c60205261111a604060002061111461110f848888614646565b614656565b9061466a565b016110b5565b90508401358a61109e565b60008381526020812092508790601f198216905b81811061117657501061115c575b5050600185811b0190556110b2565b850135600019600388901b60f8161c19169055898061114d565b8884013585556001909401936020938401938a93500161113f565b816000526020600020601f870160051c810191602088106111cf575b601f0160051c01905b8181106111c35750611087565b600081556001016111b6565b90915081906111ad565b60405163560be7c560e01b815260006004820152602490fd5b6024906040519063296abdcf60e11b82526004820152fd5b60405163bc4bfd3b60e01b81526001600160401b0386166004820152602490fd5b6024906040519063e4e866a960e01b82526004820152fd5b5060808411610f62565b346102b75760003660031901126102b757602060405160c88152f35b346102b75760003660031901126102b7576020600454604051908152f35b346102b75760003660031901126102b75760206040516109c48152f35b346102b75760003660031901126102b75760405160408101908082106001600160401b03831117610d8d576112fc9160405260058152640352e302e360dc1b60208201526040519182916020835260208301906144ef565b0390f35b346102b75760203660031901126102b75761131961425a565b611321614d33565b600380546001600160a01b039283166001600160a01b0319821681179092559091167ffabd4ff06059e5e996de375ea8c9f6904dc887cf0ac4c8ad71cfbe8b4a89d53d600080a3005b60403660031901126102b75760246004358135611385614861565b600082815260056020526040902080546001600160a01b031615611550576006810154600160ff8260901c166113ba8161454a565b036115385783600052600b602052604060002090815492600160ff85166113e08161454a565b1461152057600501546103e89081810291818304149015171561150b576127109004958634036114ed576001600160401b03809260401c1662093a8081018091116114d85742116114c257506001600160a81b03199092163360081b610100600160a81b031617600117815560ff199160049190846001830155600282019042166001600160401b03198254161790558560038201550190815416905560405192835260208301527f7cdc3409809665381cab7dfe104f886b877fb162aed08c4dd8f5500a8727d43760403393a360016000805160206152a683398151915255005b604051630fff5b3f60e31b815260048101879052fd5b50634e487b7160e01b60009081526011600452fd5b8660449160405191634f14b5a960e11b835260048301523490820152fd5b86634e487b7160e01b60005260116004526000fd5b6040516332e9898d60e11b8152600481018790528790fd5b505050604051906322cfd68560e11b82526004820152fd5b50506040519063ad0e34ad60e01b82526004820152fd5b346102b75760803660031901126102b757600435611583614270565b9060443560ff8116928382036102b75761159b614861565b6003546001600160a01b039290831633819003611607575091816115e37f9dea17ad350e87319dfa99d7623c94b2289d190b3ed38d309317490b32f976089460409487614d6c565b825195865260643560208701521693a360016000805160206152a683398151915255005b6040516304fb10ab60e11b8152600481018690523360248201526001600160a01b03919091166044820152606490fd5b346102b75760003660031901126102b7576020604051620151808152f35b346102b75760003660031901126102b757602060405160808152f35b346102b75760203660031901126102b7576001600160a01b0361169261425a565b16600052600960205260c06040600020600181015480156000146116e75760005b82549260028101546004600383015492015493604051958652602086015260408501526060840152608083015260a0820152f35b6116f58160038401546145e2565b6116b3565b346102b75760203660031901126102b75761171361425a565b61171b614d33565b6001600160a01b03168015610eca576001600160601b0360a01b6001541617600155600080f35b346102b75760203660031901126102b75761175b614861565b600435600090815260056020526040902080546001600160a01b0316156109375760068101805460ff8160901c166117928161454a565b612109576001600160401b038160401c164211156120f05760981c60ff161561091e57600435600052600c60205260406000206040518082602082945493848152019060005260206000209260005b8181106120ce5750506117f692500382614429565b8051926001840184116106485790600090600080946000915b83518310156119d3576004356000908152600d602052604090206001600160a01b0361183b85876147d9565b511660005260205260406000209460405195611856876143f2565b546001600160401b0360ff821615918215895260018060a01b038160081c1660208a015260ff8160a81c1660408a015260b01c1660608801526119c65760019660018501851161064857600185015b8651811015611981576004356000908152600d602052604090206001600160a01b036118d1838a6147d9565b51166000526020526040600020604051906118eb826143f2565b549060ff8216158015825260018060a01b038360081c169182602082015260606001600160401b0360ff8660a81c169586604085015260b01c169101526119775760208a01516001600160a01b0316149081611966575b50611952575b6001905b016118a5565b9761195e60019161460f565b989050611948565b905060ff60408a015116148c611942565b505060019061194c565b509391959094968881116119a0575b50506001905b019194929361180f565b602082015160409092015190985060ff1695506001600160a01b03169350600189611990565b9395926001919550611996565b96915091929480159182156120bd575b50506120a4576002830180546001600160a01b0319166001600160a01b038616179055805460ff60881b1916608886901b60ff60881b161781556004356000526006602052604060002060018060a01b03851660005260205260ff604060002054161561207c576004356000526007602052604060002060018060a01b03851660005260205260ff604060002054161561205357603c60ff861610611fe557805460ff60901b1916600160901b179055600582015493841560c88087028790041417156106485761012c93858581020485148615171561064857611add61271086880204611ad861271060c88a020489614602565b614602565b92611ae98483876148ce565b60018060a01b03600386015416600052600f6020526040600020611b1561271060c88a0204825461459e565b90556000948594855b8351881015611bfc576004356000908152600d602052604090206001600160a01b03611b4a8a876147d9565b5116600052602052604060002060405190611b64826143f2565b549060ff8216158015825260018060a01b038360081c169182602082015260606001600160401b0360ff8660a81c169586604085015260b01c16910152611bf1576001600160a01b038716149081611be4575b5015611bd157611bc860019161460f565b975b0196611b1e565b9695611bde60019161460f565b96611bca565b905060ff8716148b611bb7565b505096600190611bca565b919794939296509460009180611ea9575b5080611d49575b5087611c4e611ca092612710877fd0f8792e4d4724ee13204135e9d9c748784bca75054b33ecdeae128d76588edb98999a9b9c0204614602565b80611d1c575b50611c60848885615038565b60405193849360018060a01b031697612710600435988160c886020494020491859094939260609260ff6080840197168352602083015260408201520152565b0390a35b60005b81518110156107f4576004356000908152600d60205260409020600191906001600160a01b03611cd783866147d9565b511660005260205260ff6040600020541615611cf4575b01611ca7565b611d17828060a01b03611d0783866147d9565b5116600a60048701540490614bb2565b611cee565b60018060a01b0360038b015416600052600f602052611d41604060002091825461459e565b905589611c54565b93969093909290612710898902046003808202829004149015171561064857611d7e90600a60036127108b8d020402046145e2565b9460005b8751811015611e7b576004356000908152600d602052604090206001600160a01b03611dae838b6147d9565b511660005260205286604060002060405190611dc9826143f2565b5460ff811615159182815260018060a01b038260081c169081602082015260606001600160401b0360ff8560a81c169485604085015260b01c1691015282611e51575b5050611e1c575b50600101611d82565b9095600191611e4891611e43826001600160a01b03611e3b8c8f6147d9565b51168a6148ce565b61459e565b95905086611e13565b6001600160a01b0388161480159250611e6d575b508c80611e0c565b905060ff851614158c611e65565b50929692945091927fd0f8792e4d4724ee13204135e9d9c748784bca75054b33ecdeae128d76588edb611c14565b9097949591949391906127108a8802046007808202829004149015171561064857611ee090600a60076127108a8e020402046145e2565b9560005b8851811015611fd7576004356000908152600d602052604090206001600160a01b03611f10838c6147d9565b511660005260205287604060002060405190611f2b826143f2565b5460ff811615159182815260018060a01b038260081c169081602082015260ff8360a81c16604082015260606001600160401b038460b01c1691015282611fc4575b5081611fb1575b50611f83575b50600101611ee4565b808298611e43611fa8938d611fa0600197888060a01b03926147d9565b51168b6148ce565b96905087611f7a565b905060ff8087169160a81c16148d611f74565b6001600160a01b0389161491508e611f6d565b509491939790955089611c0d565b805460ff60901b1916600160911b1790558154600583018054939592945092612017916001600160a01b0316866148ce565b835491546040805191825260ff9290921660208201526001600160a01b03909216916004359160008051602061526683398151915291a3611ca4565b604051631714018360e21b815260048035908201526001600160a01b0385166024820152604490fd5b60405162bcbe9560e81b815260048035908201526001600160a01b0385166024820152604490fd5b602460405163eab7f0f760e01b81526004356004820152fd5b60019192500160011c1186806119e3565b84546001600160a01b03168352600194850194869450602090930192016117e1565b60246040516311fe37e160e01b81526004356004820152fd5b6024604051639d6bda0b60e01b81526004356004820152fd5b60c03660031901126102b7576004356001600160401b0381116102b75761214d90369060040161429c565b6121556142c9565b61215d6142df565b92612166614286565b9061216f614305565b913415610eb8578415801561255c575b610e9c57600760ff841611610e8157426001600160401b038516111561253b576001600160401b0384166001600160401b038716111561251a576001600160a01b0381161561249b575b6121d460045461460f565b94856004556123356040516121e88161440d565b33815260018060a01b0384166020820152600060408201526000606082015260a43560808201523460a08201526001600160401b03871660c08201526001600160401b03891660e082015260ff861661010082015260006101208201526000610140820152600061016082015287600052600560205260ff6101606006604060002060018060a01b038551166001600160601b0360a01b8254161781556001810160018060a01b036020870151166001600160601b0360a01b8254161790556002810160018060a01b036040870151166001600160601b0360a01b8254161790556003810160018060a01b036060870151166001600160601b0360a01b8254161790556080850151600482015560a0850151600582015501926001600160401b0360c0820151166001600160401b0319855416178455610ba96001600160401b0360e0830151168561461e565b85600052600a60205260406000206001600160401b038211610d8d5761235b81546143b8565b601f8111612453575b50916020979187936000601f83116001146123d557958291610caf936000805160206152c683398151915297986000916123ca575b508360011b906000198560031b1c19161790555b60405194859460018060a01b0316993399349060a43590886146cb565b90508201358d612399565b9590601f198316816000528b6000209060005b8181106124395750906000805160206152c6833981519152979885610caf969594931061241f575b5050600183811b0190556123ad565b830135600019600386901b60f8161c191690558c80612410565b848a01358355988d01988c98506001909201918d016123e8565b816000526020600020601f840160051c81019160208510612491575b601f0160051c01905b8181106124855750612364565b60008155600101612478565b909150819061246f565b50670de0b6b3a76400003411610e26576002546001600160a01b031680156108da5760405163074614f160e01b815260ff8416600482015244602482015290602090829060449082905afa9081156108ce576000916124fb575b506121c9565b612514915060203d6020116108c7576108b88183614429565b866124f5565b60405163296abdcf60e11b81526001600160401b0387166004820152602490fd5b60405163bc4bfd3b60e01b81526001600160401b0385166004820152602490fd5b506080851161217f565b346102b7576125743661456a565b9061257d614861565b61258683614891565b600681015460ff8160981c166125f75760401c6001600160401b031642116104f157600101546001600160a01b031692338490036125c8576107f49350614d6c565b6040516304fb10ab60e11b815260048101919091523360248201526001600160a01b0384166044820152606490fd5b60405163560be7c560e01b815260048101869052602490fd5b346102b75760003660031901126102b757600080516020615286833981519152546040516001600160a01b039091168152602090f35b346102b75760203660031901126102b7576004356000526005602052610180604060002060ff60018060a01b039182815416928060018301541690806002840154169060038401541692600481015460066005830154920154946001600160401b0393878760901c1695604051998a5260208a015260408901526060880152608087015260a086015280831660c08601528260401c1660e0850152828260801c16610100850152828260881c166101208501526127028161454a565b61014084015260981c16610160820152f35b346102b75760603660031901126102b7576024356001600160401b0381116102b75761274490369060040161429c565b906044356001600160401b0381116102b75761276490369060040161429c565b916001600160401b03600661277a600435614891565b015416421015612b065783158015612afc575b610e9c5782158015612af2575b610e9c57600435600052600660205260406000203360005260205260406000209360ff85541615612ad25760043560005260076020526040600020336000526020526040600020805460ff8116612ab25768ffffffffffffffffff19164260081b68ffffffffffffffff00161760011781556001600160401b038211610d8d5761282760018201546143b8565b601f8111612a6b575b5060009082601f81116001146129f9576002926000916129ee575b508360011b906000198560031b1c19161760018201555b01946001600160401b038511610d8d5761287c86546143b8565b601f81116129a6575b50600095601f861160011461291f57857f76b1c5b6d3399cc6a4c2727a933d567a72355e62056a98e6ed826df711566f15959697600091612914575b508760011b906000198960031b1c19161790555b61010061ff001982541617905561290f6128fc6040519384936040855260408501916146aa565b82810360208401523396600435966146aa565b0390a3005b9050860135886128c1565b601f1986168160005260206000209060005b81811061298e575097877f76b1c5b6d3399cc6a4c2727a933d567a72355e62056a98e6ed826df711566f1597989910612974575b5050600187811b0190556128d5565b87013560001960038a901b60f8161c191690558780612965565b878a013583556020998a019960019093019201612931565b866000526020600020601f870160051c810191602088106129e4575b601f0160051c01905b8181106129d85750612885565b600081556001016129cb565b90915081906129c2565b90508401358861284b565b5060018101600090815260208120909284601f1981165b808610612a4d576002955010612a33575b5050600183811b016001820155612862565b850135600019600386901b60f8161c191690558780612a21565b87830135845560209586019560019094019390920191869150612a10565b600182016000526020600020601f840160051c810160208510612aab575b601f830160051c82018110612a9f575050612830565b60008155600101612a89565b5080612a89565b604051636338a03760e11b81526004803590820152336024820152604490fd5b60405163bbde2e4d60e01b81526004803590820152336024820152604490fd5b506080831161279a565b506080841161278d565b602460405163bfb22adf60e01b81526004356004820152fd5b346102b7576020806003193601126102b757600435612b3c614861565b612b4581614891565b80546001600160a01b0390811633819003612d62575082600052600884526040600020916000808454915b828110612d1e575b50612d05576005820180549460c886029580159381880460c814851715610648576127108098049760009582612c36575b8b8b60008051602061526683398151915260408d60008e8e612bd18f8f86611ad89154614602565b60068201805460ff60901b1916600160911b1790558154909490612bf99086908516846148ce565b826003830154168452600f8952612c1486852091825461459e565b90555416958351928352820152a360016000805160206152a683398151915255005b9091929395506101f4999796949980850294850414171561064857612c5b92046145e2565b9460005b8354811015612ccb57808580612c8b8a612c7b6001968a614345565b939054600394851b1c16886148ce565b612c958388614345565b9054911b1c16877fef78f95f988a516580b2745a0750f1987036a306abd2c83c347d2bf0828156d88c6040518c8152a301612c5f565b509290612bd160409597611ad886612cf66000805160206152668339815191529a60009854906145cf565b96509882959850849750612ba9565b604051630170f43d60e21b815260048101869052602490fd5b8660005260078852604060002085612d368389614345565b90549060031b1c16600052885260ff60406000205416612d5857600101612b70565b5050600187612b78565b6040516305ece71b60e51b8152600481018590523360248201526001600160a01b03919091166044820152606490fd5b346102b75760203660031901126102b757612dab61425a565b612db3614d33565b600280546001600160a01b0319166001600160a01b0392909216919091179055005b346102b75760003660031901126102b757612dee614d33565b60008051602061528683398151915280546001600160a01b031981169091556000906001600160a01b03167f8be0079c531659141344cd1fd0a4f28419497f9722a3daafe3b4186f6b6457e08280a3005b346102b7576020806003193601126102b75760043560005260086020526040600020906040519081602084549182815201936000526020600020916000905b828210612ea1576112fc85612e9581890382614429565b60405191829182614373565b83546001600160a01b031686529485019460019384019390910190612e7e565b346102b75760403660031901126102b757612eda614270565b600435600052600660205260406000209060018060a01b0316600052602052606060406000206001815491015460ff604051928181161515845260081c16151560208301526040820152f35b346102b75760003660031901126102b7576000546040516001600160a01b039091168152602090f35b346102b75760203660031901126102b757600435600052600e602052602060ff604060002054166040519015158152f35b346102b75760003660031901126102b7576020604051670de0b6b3a76400008152f35b346102b75760003660031901126102b7576003546040516001600160a01b039091168152602090f35b346102b75760203660031901126102b757600435600052600b602052610120604060002060ff81548181169260018060a01b0381600182930154906001600160401b036002820154166003820154906004830154938560058a8716950154986040519b6130388161454a565b8c5260081c1660208b015260408a01526060890152608088015261305b8161454a565b60a087015260081c1660c0850152811660e084015260a01c16610100820152f35b346102b75760403660031901126102b757613095614270565b604051906130a2826143f2565b6000825260608060209360008582015281604082015201526004356000526007825260406000209060018060a01b0316600052815260406000206112fc604051916130ec836143f2565b61315d81549160ff8316151585526001600160401b03808787019460081c16845261312c600261311e6001850161444a565b93604089019485520161444a565b93606087019485526040519788978189525115159088015251166040860152516080606086015260a08501906144ef565b9051838203601f190160808501526144ef565b346102b75760003660031901126102b757602060405161012c8152f35b346102b75760003660031901126102b7577f00000000000000000000000000000000000000000000000000000000000000006001600160a01b031630036131f85760206040517f360894a13ba1a3210667c828492db98dca3e2076cc3735a920a3ca505d382bbc8152f35b60405163703e46dd60e11b8152600490fd5b60403660031901126102b75761321e61425a565b6024908135906001600160401b0382116102b757366023830112156102b75781600401359061324c8261452f565b9161325a6040519384614429565b808352602093368683830101116102b757816000928787930183870137840101526001600160a01b037f000000000000000000000000000000000000000000000000000000000000000081163081149081156133f0575b506131f8576132be614d33565b6040516352d1902d60e01b8152908216938082600481885afa9182916000936133c0575b50506133005750505060405190634c9c8ce360e01b82526004820152fd5b847f360894a13ba1a3210667c828492db98dca3e2076cc3735a920a3ca505d382bbc918281036133ab5750823b15613395575080546001600160a01b03191684179055604051927fbc7cd75a20ee27fd9adebab32041f755214dbc6bffa90cc0225b39da2e5c2d3b600080a281511561337d5761032c92506151d1565b50503461338657005b63b398979f60e01b8152600490fd5b604051634c9c8ce360e01b815260048101869052fd5b60405190632a87526960e21b82526004820152fd5b9080929350813d83116133e9575b6133d88183614429565b810103126102b757519086806132e2565b503d6133ce565b9050817f360894a13ba1a3210667c828492db98dca3e2076cc3735a920a3ca505d382bbc54161415866132b1565b346102b75760803660031901126102b75760043560249081359060ff82168092036102b7576001600160a01b03604435818116908190036102b7576134616142f5565b9161346a614861565b6001958187541633036136a5578515801561369b575b61368557846000526005602052604060002091808354161561366e5785600052600b60205260406000209182548960ff82166134bb8161454a565b036136575760ff19908116600217845560ff906134d78a61454a565b8960048601916134e68261454a565b8254610100600160a81b0319911691909117163360081b610100600160a81b03161781556005850180546001600160a81b031916881789841660a01b17905554166135308161454a565b808a036135ec57506005840154906109c4918281029281840414901517156135d8575091600360ff9695949261271061357a9504806135c3575b50825460081c16910154916148ce565b60405194855260208501521660408301527f16ac9886e5b0094ac0abf20d4f19d8a2a31c2456166cd7c395440ae51d459fc760603393a36000805160206152a683398151915255005b6135d290828d87015416614bb2565b8b61356a565b634e487b7160e01b60009081526011600452fd5b60ff9695949391508061360060029261454a565b1461360e575b50505061357a565b60038091015492613632613625858c1c8096614602565b94848c84015416836148ce565b015416600052600f60205261364d604060002091825461459e565b9055868080613606565b506040516303dc1ed360e31b815260048101889052fd5b5060405163ad0e34ad60e01b815260048101869052fd5b604051637be0da6560e11b815260048101879052fd5b5060028611613480565b60405163c9f546cf60e01b8152336004820152fd5b346102b75760403660031901126102b7576136d361425a565b6136db614270565b7ff0c57e16840df040f15088dc2f81fe391c3923bec73e23a9662efc9c229c6a009182549160ff8360401c1615926001600160401b0381168015908161381c575b6001149081613812575b159081613809575b506137f75767ffffffffffffffff1981166001178555836137d8575b506001600160a01b03908116918215610eca57613765615190565b61376d615190565b613776816147ed565b6001600160601b0360a01b928360005416176000551690600154161760015561379b57005b68ff00000000000000001981541690557fc7f505b2f371ae2175ee4913f4499e1f2633a7b5936321eed1cdaeb6115181d2602060405160018152a1005b68ffffffffffffffffff1916680100000000000000011784558461374a565b60405163f92ee8a960e01b8152600490fd5b9050158661372e565b303b159150613726565b85915061371c565b346102b75760203660031901126102b757600435613840614861565b600081815260056020526040902080549091906001600160a01b03161561393b5760ff600683015460901c166138758161454a565b15613923578060005260066020526040600020336000526020526040600020916001830160ff815494541615801561391b575b6138fc576138bc91600085925533906148ce565b6040519182527f181dd8e5abfdd7ea94bff7529391d477a29bf85df13abe63fb4f97017bbc8ba060203393a360016000805160206152a683398151915255005b6040516336efd17760e21b815260048101849052336024820152604490fd5b5083156138a8565b60249060405190639d6bda0b60e01b82526004820152fd5b6024906040519063ad0e34ad60e01b82526004820152fd5b346102b75760003660031901126102b7576020604051603c8152f35b346102b75760203660031901126102b757600435600052600a6020526112fc61399b604060002061444a565b6040519182916020835260208301906144ef565b346102b75760003660031901126102b75760206040516103e88152f35b346102b75760403660031901126102b75760806139e7614270565b600435600052600d602052604060002060018060a01b038092166000526020526001600160401b036040600020546040519260ff8216151584528160081c16602084015260ff8160a81c16604084015260b01c166060820152f35b346102b75760203660031901126102b75761032c613a5e61425a565b61470b565b346102b75760003660031901126102b7576002546040516001600160a01b039091168152602090f35b346102b7576020806003193601126102b757600435600052600c6020526040600020906040519081602084549182815201936000526020600020916000905b828210613ae2576112fc85612e9581890382614429565b83546001600160a01b031686529485019460019384019390910190613acb565b346102b75760403660031901126102b757602435600435600052600c602052604060002080548210156102b757602091613b3b91614345565b905460405160039290921b1c6001600160a01b03168152f35b346102b7576101203660031901126102b7576004356001600160401b0381116102b757613b8590369060040161429c565b613b8d6142c9565b613b956142df565b613b9d6142f5565b9260a4356001600160a01b03811690036102b75760ff60e43516948560e435036102b757610104356001600160401b0381116102b757613be1903690600401614315565b909690939060a4356001600160a01b031615610eca5760c43515610eb85783158015613e8c575b610e9c5760ff87166007811161122b5750426001600160401b0387161115610e60576001600160401b0382166001600160401b0387168111156111f25750156111d95783156111d957613c6060c4353360a435614902565b93613c6c60045461460f565b9788600455886000526005602052613d1f600660406000206001600160601b0360a01b33818354161782556001820181815416905560028201818154169055600382019060018060a01b0360a43516908254161790556084356004820155886005820155016001600160401b0389166001600160401b0319825416178155613cf4858261461e565b805460ff60981b60e43560981b1663ffffffff60801b1990911660ff60801b60808d901b1617179055565b600a60205260406000206001600160401b038611610d8d57613d4181546143b8565b601f8111613e48575b50856000601f8211600114613de257600091613dd7575b508660011b906000198860031b1c19161790555b60005b828110613daf5760208a60008b826000805160206152c68339815191528d8d610caf8e8e8e604051958695339a60843590886146cb565b6001908a600052600c602052613dd1604060002061111461110f848888614646565b01613d78565b90508501358b613d61565b60008381526020812092508890601f198216905b818110613e2d575010613e13575b5050600186811b019055613d75565b860135600019600389901b60f8161c191690558a80613e04565b8984013585556001909401936020938401938b935001613df6565b816000526020600020601f880160051c810160208910613e85575b601f830160051c82018110613e79575050613d4a565b60008155600101613e63565b5080613e63565b5060808411613c08565b346102b75760003660031901126102b757602060405161251c8152f35b346102b75760203660031901126102b757600435613ecf614861565b613ed881614891565b906006820180546001600160401b038160401c16421115613f5b5760ff60901b1916600160911b17905581546005830180549093600080516020615266833981519152926040926001600160a01b039291613f3691908416836148ce565b54169354815190815260006020820152a360016000805160206152a683398151915255005b6040516311fe37e160e01b815260048101849052602490fd5b346102b75760203660031901126102b7576001600160a01b03613f9561425a565b16600052600960205260a06040600020805490600181015490600281015460046003830154920154926040519485526020850152604084015260608301526080820152f35b346102b7576020806003193601126102b757600435613ff7614861565b61400081614891565b9060069060068301928354906001600160401b038260401c16421115613f5b57826000526008946008875260406000209060009360008354905b81811061420657505084156141ed5760ff60901b1916600160911b179055600582015495861560c88089029089820414821715610648576127108091049861012c928382029382850414171561064857611ad861409c928b9404938492614602565b976140f360018060a01b03926140b68b85895416896148ce565b60039284600389015416600052600f8d526140d7604060002091825461459e565b90556140ed6140e689836145e2565b98896145cf565b90614602565b9360005b81548110156141b5578361410b8284614345565b905490851b1c16896000528a8d526040600020816000528d5260ff604060002054871c16156141ac57898d8a8a8a61417f575b91816141717fef78f95f988a516580b2745a0750f1987036a306abd2c83c347d2bf0828156d893876001999897966148ce565b604051908152a35b016140f7565b50505050959060018901808a11610648579660001983019283116106485791969091908a908e908a61413e565b50600190614179565b8b8960008051602061526683398151915260408e6000898d5416958351928352820152a360016000805160206152a683398151915255005b60405163f81b846760e01b815260048101879052602490fd5b87600052888b52604060002061421c8287614345565b60018060a01b0391549060031b1c166000528b5260ff6040600020548b1c16614248575b60010161403a565b95600181018091116106485795614240565b600435906001600160a01b03821682036102b757565b602435906001600160a01b03821682036102b757565b606435906001600160a01b03821682036102b757565b9181601f840112156102b7578235916001600160401b0383116102b757602083818601950101116102b757565b602435906001600160401b03821682036102b757565b604435906001600160401b03821682036102b757565b6064359060ff821682036102b757565b6084359060ff821682036102b757565b9181601f840112156102b7578235916001600160401b0383116102b7576020808501948460051b0101116102b757565b805482101561435d5760005260206000200190600090565b634e487b7160e01b600052603260045260246000fd5b602090602060408183019282815285518094520193019160005b82811061439b575050505090565b83516001600160a01b03168552938101939281019260010161438d565b90600182811c921680156143e8575b60208310146143d257565b634e487b7160e01b600052602260045260246000fd5b91607f16916143c7565b608081019081106001600160401b03821117610d8d57604052565b61018081019081106001600160401b03821117610d8d57604052565b90601f801991011681019081106001600160401b03821117610d8d57604052565b9060405191826000825461445d816143b8565b908184526020946001916001811690816000146144cd575060011461448e575b50505061448c92500383614429565b565b600090815285812095935091905b8183106144b557505061448c935082010138808061447d565b8554888401850152948501948794509183019161449c565b9250505061448c94925060ff191682840152151560051b82010138808061447d565b919082519283825260005b84811061451b575050826000602080949584010152601f8019910116010190565b6020818301810151848301820152016144fa565b6001600160401b038111610d8d57601f01601f191660200190565b6003111561455457565b634e487b7160e01b600052602160045260246000fd5b60609060031901126102b757600435906024356001600160a01b03811681036102b7579060443560ff811681036102b75790565b9190820180921161064857565b906145b58161454a565b815460ff60901b191660909190911b60ff60901b16179055565b8181029291811591840414171561064857565b81156145ec570490565b634e487b7160e01b600052601260045260246000fd5b9190820391821161064857565b60001981146106485760010190565b9067ffffffffffffffff60401b82549160401b169067ffffffffffffffff60401b1916179055565b919081101561435d5760051b0190565b356001600160a01b03811681036102b75790565b805468010000000000000000811015610d8d5761468c91600182018155614345565b60018060a09493941b038084549260031b9316831b921b1916179055565b908060209392818452848401376000828201840152601f01601f1916010190565b9260c0949260ff614708999793168552602085015260408401526001600160401b0380921660608401521660808201528160a082015201916146aa565b90565b6000805490916001600160a01b0391821633036147a25781811691828452600f6020526040842090815494851561479a577f8fc241308ffc17817e6a8c6a52a8f7cd4931dfca0c539fd35a630311c7e4c57b9381602094558686156000146147875761477b915083835416614b40565b541693604051908152a3565b614795918484541690614ab6565b61477b565b505050505050565b604051632756308960e11b8152336004820152602490fd5b908160209103126102b757516001600160a01b03811681036102b75790565b805182101561435d5760209160051b010190565b6001600160a01b039081169081156148485760008051602061528683398151915280546001600160a01b031981168417909155167f8be0079c531659141344cd1fd0a4f28419497f9722a3daafe3b4186f6b6457e0600080a3565b604051631e4fbdf760e01b815260006004820152602490fd5b6000805160206152a6833981519152600281541461487f5760029055565b604051633ee5aeb560e01b8152600490fd5b60008181526005602052604090208054909291906001600160a01b03161561393b5760ff600684015460901c166148c78161454a565b6139235750565b91909181156148fd57600301546001600160a01b031691826148f45761448c9250614b40565b61448c92614ab6565b505050565b9291928315614aae5760018060a01b038091169360409485516370a0823160e01b94858252600495308784015260209160249683858981895afa948515614aa357600095614a74575b5083906000908c51936323b872dd60e01b8352168a523089528760445260648180895af1600160005114811615614a54575b818b52600060605215614a4057508190868a51809681938252308b8301525afa908115614a3557600091614a05575b506149b79250614602565b94605f8202828104605f036149f1576064900486106149d65750505050565b51633742242360e21b81529283015281019290925250604490fd5b83601186634e487b7160e01b600052526000fd5b905082813d8311614a2e575b614a1b8183614429565b810103126102b7576149b79151386149ac565b503d614a11565b88513d6000823e3d90fd5b635274afe760e01b81528781018590528690fd5b6001811516614a6a57853b15153d15161661497d565b503d6000823e3d90fd5b9094508381813d8311614a9c575b614a8c8183614429565b810103126102b75751938361494b565b503d614a82565b8b513d6000823e3d90fd5b506000925050565b91909181156148fd5760405163a9059cbb60e01b60009081526001600160a01b0394851660045260249390935292169060209060448180855af1600160005114811615614b20575b8260405215614b0b575050565b635274afe760e01b8252600482015260249150fd5b6001811516614b3657813b15153d151616614afe565b823d6000823e3d90fd5b8115614bae576001600160a01b031690600080808084865af13d15614ba9573d614b698161452f565b90614b776040519283614429565b8152600060203d92013e5b15614b8b575050565b6044925060405191630e21dcbb60e11b835260048301526024820152fd5b614b82565b5050565b6002546001600160a01b039081169260009290918415614cdd57843b15614cd95783809160a4604094855194859384926333c59f7160e11b845216998a6004840152886024840152606060448401526014606484015273524541535349474e5f4f525f414253454e54454560601b60848401525af19081614caa575b50916080917fad2fd1f905d4dbfe457e8282ae383d3d7fe509025f15eb5c8302100b850051749315600014614c865780600c91519283528060208401528201526b14d31054d217d1905253115160a21b6060820152a3565b80600791519283528060208401528201526614d31054d2115160ca1b6060820152a3565b6001600160401b038195929511614cc5578252926080614c2e565b634e487b7160e01b82526041600452602482fd5b8380fd5b60809194507fad2fd1f905d4dbfe457e8282ae383d3d7fe509025f15eb5c8302100b8500517492506040519484865260406020870152600b60408701526a4e4f5f524547495354525960a81b60608701521693a3565b600080516020615286833981519152546001600160a01b03163303614d5457565b60405163118cdaa760e01b8152336004820152602490fd5b92919260ff8416606481116104d9576000918083526020916005835260409485852060018060a01b03918282541615615020576006820160ff815460901c16614db48161454a565b61500857858852600687528888209484831695868a52885260ff8a8a20541615614fe25786895260078852898920868a52885260ff8a8a20541615614fbb576002840180546001600160a01b03191687179055815460ff60881b191660888d901b60ff60881b16178255603c11614f5357805460ff60901b1916600160901b17905560058201548015939060c88082029082820414861715614f3f576127108091049561012c9081840291848304141715614f2b5795614ef18e8d9e9f95976003978e9f600e9f8f8f9d907fd0f8792e4d4724ee13204135e9d9c748784bca75054b33ecdeae128d76588edb9d614eb9614f169c611ad88c9d600f96049c8d92614602565b9d8e97614ec78989836148ce565b614ed88c84600184015416836148ce565b01541683525220614eea87825461459e565b9055615038565b8c51948594859094939260609260ff6080840197168352602083015260408201520152565b0390a35b83525220805460ff19166001179055565b634e487b7160e01b8b52601160045260248bfd5b634e487b7160e01b8a52601160045260248afd5b805460ff60901b1916600160911b179055508054600582018054999a98999798600e9891955086946000805160206152668339815191529491939092614f9b918416836148ce565b5494548a5190815260ff92909216602083015290931692604090a3614f1a565b8951631714018360e21b8152600481018890526001600160a01b0384166024820152604490fd5b895162bcbe9560e81b8152600481018890526001600160a01b0384166024820152604490fd5b8851639d6bda0b60e01b815260048101879052602490fd5b875163ad0e34ad60e01b815260048101869052602490fd5b6001600160a01b031660009081526009602052604081206001818101805492959394918301939284106150dd578390556150776002860191825461459e565b905561508b60ff600386019216825461459e565b90558254918261509c575b50505050565b612710918281029281840414901517156150c957506004916150bd916145e2565b91015538808080615096565b634e487b7160e01b81526011600452602490fd5b634e487b7160e01b85526011600452602485fd5b806000526005602052604060002060ff600682015460981c161561511a57509061470891615134565b600101546001600160a01b03928316921691909114919050565b600052600c6020526040600020906000918054925b8381106151595750505050600090565b6151638183614345565b905460039190911b1c6001600160a01b039081169084161461518757600101615149565b50505050600190565b60ff7ff0c57e16840df040f15088dc2f81fe391c3923bec73e23a9662efc9c229c6a005460401c16156151bf57565b604051631afcd79f60e31b8152600490fd5b9060008091602081519101845af48080615252575b156152075750506040513d81523d6000602083013e60203d82010160405290565b1561522e57604051639996b31560e01b81526001600160a01b039091166004820152602490fd5b3d15615240576040513d6000823e3d90fd5b60405163d6bda27560e01b8152600490fd5b503d1515806151e65750813b15156151e656fe6666015e19a4db559a8ecdeefa2294b3a08c142000163f31d17bc2a9ee41bf129016d09d72d40fdae2fd8ceac6b6234c7706214fd39c1cd1e609a0528c1993009b779b17422d0df92223018b32b4d1fa46e071723d6817e2486d003becc55f00fc645ca6639a4d031cdae1422a3a476172339603d259677501ff6caf503f0f24a2646970667358221220ccfe9e3b8431564924709c6997b82942a593645db071527271dd6f7540d4e61d64736f6c63430008180033","linkReferences":{}},"methodIdentifiers":{"BPS_DENOMINATOR()":"e1a45218","CHALLENGER_BOND_BPS()":"37f55559","CHALLENGER_BOUNTY_BPS()":"fc65a392","DISPUTE_WINDOW()":"f585dc57","JUDGE_FEE_BPS()":"5307a3f6","JUDGE_SLASH_BPS()":"ae43525e","MAX_REF_LEN()":"9e9d8684","MIN_SCORE()":"40b89270","PREVRANDAO_MAX_REWARD()":"58cb7507","PROTOCOL_FEE_BPS()":"be378228","REASSIGN_WINDOW()":"9eabcbad","UPGRADE_INTERFACE_VERSION()":"ad3cb1cc","WINNER_PAYOUT_BPS()":"12a453bf","applications(uint256,address)":"66852374","applyForTask(uint256)":"d9b7d154","cancelTask(uint256)":"7eec20a8","claimExpired(uint256)":"0b422abe","claimStake(uint256)":"44c7d6ef","disputeResolver()":"f5a3f4af","disputeTask(uint256,bytes32)":"a7c3a153","disputes(uint256)":"564a565d","forceRefund(uint256)":"05f8d94c","getApplicants(uint256)":"6cf5d86e","getReputation(address)":"9c89a0e2","getSubmission(uint256,address)":"55f0e221","getTaskJudgePool(uint256)":"26b2e2ea","hasJudged(uint256)":"5de1dffa","initialize(address,address)":"485cc955","judgeAndPay(uint256,address,uint8)":"8f4de602","judgeRegistry()":"2870bcb2","judgeWithProof(uint256,address,uint8,bytes32)":"a3caf61d","judgements(uint256,address)":"3312e201","llmJudgeOracle()":"58aed016","owner()":"8da5cb5b","postTask(string,uint64,uint64,address,uint8,uint256)":"9082c380","postTaskErc20(string,uint64,uint64,address,uint8,uint256,address,uint256)":"cbfb97e2","postTaskErc20Quorum(string,uint64,uint64,uint8,uint256,address,uint256,uint8,address[])":"15903a5a","postTaskQuorum(string,uint64,uint64,uint8,uint256,uint8,address[])":"c287e3a9","protocolFees(address)":"dcf844a7","proxiableUUID()":"52d1902d","reassignJudge(uint256)":"ccedad40","renounceOwnership()":"715018a6","reputations(address)":"06fa15a7","resolveDispute(uint256,uint8,address,uint8)":"4dfb62ac","setDisputeResolver(address)":"924e63f6","setJudgeRegistry(address)":"7336fb61","setLlmJudgeOracle(address)":"ab9d8cf8","settleWithQuorum(uint256)":"91b7d16c","submitJudgement(uint256,address,uint8)":"da249b9a","submitResult(uint256,string,string)":"844327a2","taskCount()":"b6cb58a5","taskEvalRef(uint256)":"3abae387","taskJudgePool(uint256,uint256)":"1751a6f0","tasks(uint256)":"8d977672","transferOwnership(address)":"f2fde38b","treasury()":"61d027b3","upgradeToAndCall(address,bytes)":"4f1ef286","withdrawProtocolFees(address)":"2d80caa5"},"id":45}