{"abi":[{"type":"constructor","inputs":[{"name":"owner_","type":"address","internalType":"address"},{"name":"oracle_","type":"address","internalType":"address"}],"stateMutability":"nonpayable"},{"type":"function","name":"feed","inputs":[{"name":"","type":"address","internalType":"address"}],"outputs":[{"name":"globalScore","type":"uint16","internalType":"uint16"},{"name":"lastUpdatedAt","type":"uint64","internalType":"uint64"},{"name":"merkleRoot","type":"bytes32","internalType":"bytes32"},{"name":"oracle","type":"address","internalType":"address"},{"name":"exists","type":"bool","internalType":"bool"}],"stateMutability":"view"},{"type":"function","name":"feedBySolanaPubkey","inputs":[{"name":"","type":"bytes32","internalType":"bytes32"}],"outputs":[{"name":"globalScore","type":"uint16","internalType":"uint16"},{"name":"lastUpdatedAt","type":"uint64","internalType":"uint64"},{"name":"merkleRoot","type":"bytes32","internalType":"bytes32"},{"name":"oracle","type":"address","internalType":"address"},{"name":"exists","type":"bool","internalType":"bool"}],"stateMutability":"view"},{"type":"function","name":"getReputation","inputs":[{"name":"evmAddress","type":"address","internalType":"address"}],"outputs":[{"name":"","type":"tuple","internalType":"struct GradienceReputationFeed.AggregatedReputation","components":[{"name":"globalScore","type":"uint16","internalType":"uint16"},{"name":"categoryScores","type":"uint16[8]","internalType":"uint16[8]"},{"name":"lastUpdatedAt","type":"uint64","internalType":"uint64"},{"name":"merkleRoot","type":"bytes32","internalType":"bytes32"},{"name":"oracle","type":"address","internalType":"address"},{"name":"exists","type":"bool","internalType":"bool"}]}],"stateMutability":"view"},{"type":"function","name":"getReputationBySolana","inputs":[{"name":"solanaPubkey","type":"bytes32","internalType":"bytes32"}],"outputs":[{"name":"","type":"tuple","internalType":"struct GradienceReputationFeed.AggregatedReputation","components":[{"name":"globalScore","type":"uint16","internalType":"uint16"},{"name":"categoryScores","type":"uint16[8]","internalType":"uint16[8]"},{"name":"lastUpdatedAt","type":"uint64","internalType":"uint64"},{"name":"merkleRoot","type":"bytes32","internalType":"bytes32"},{"name":"oracle","type":"address","internalType":"address"},{"name":"exists","type":"bool","internalType":"bool"}]}],"stateMutability":"view"},{"type":"function","name":"oracle","inputs":[],"outputs":[{"name":"","type":"address","internalType":"address"}],"stateMutability":"view"},{"type":"function","name":"owner","inputs":[],"outputs":[{"name":"","type":"address","internalType":"address"}],"stateMutability":"view"},{"type":"function","name":"renounceOwnership","inputs":[],"outputs":[],"stateMutability":"nonpayable"},{"type":"function","name":"setOracle","inputs":[{"name":"oracle_","type":"address","internalType":"address"}],"outputs":[],"stateMutability":"nonpayable"},{"type":"function","name":"transferOwnership","inputs":[{"name":"newOwner","type":"address","internalType":"address"}],"outputs":[],"stateMutability":"nonpayable"},{"type":"function","name":"updateReputation","inputs":[{"name":"evmAddress","type":"address","internalType":"address"},{"name":"solanaPubkey","type":"bytes32","internalType":"bytes32"},{"name":"globalScore","type":"uint16","internalType":"uint16"},{"name":"categoryScores","type":"uint16[8]","internalType":"uint16[8]"},{"name":"merkleRoot","type":"bytes32","internalType":"bytes32"},{"name":"chainId","type":"uint256","internalType":"uint256"}],"outputs":[],"stateMutability":"nonpayable"},{"type":"event","name":"OracleUpdated","inputs":[{"name":"previousOracle","type":"address","indexed":true,"internalType":"address"},{"name":"newOracle","type":"address","indexed":true,"internalType":"address"}],"anonymous":false},{"type":"event","name":"OwnershipTransferred","inputs":[{"name":"previousOwner","type":"address","indexed":true,"internalType":"address"},{"name":"newOwner","type":"address","indexed":true,"internalType":"address"}],"anonymous":false},{"type":"event","name":"ReputationUpdated","inputs":[{"name":"evmAddress","type":"address","indexed":true,"internalType":"address"},{"name":"solanaPubkey","type":"bytes32","indexed":false,"internalType":"bytes32"},{"name":"globalScore","type":"uint16","indexed":false,"internalType":"uint16"},{"name":"lastUpdatedAt","type":"uint64","indexed":false,"internalType":"uint64"},{"name":"oracle","type":"address","indexed":true,"internalType":"address"}],"anonymous":false},{"type":"error","name":"NotOracle","inputs":[{"name":"caller","type":"address","internalType":"address"}]},{"type":"error","name":"OwnableInvalidOwner","inputs":[{"name":"owner","type":"address","internalType":"address"}]},{"type":"error","name":"OwnableUnauthorizedAccount","inputs":[{"name":"account","type":"address","internalType":"address"}]},{"type":"error","name":"WrongChainId","inputs":[{"name":"expected","type":"uint256","internalType":"uint256"},{"name":"actual","type":"uint256","internalType":"uint256"}]},{"type":"error","name":"ZeroAddress","inputs":[]}],"bytecode":{"object":"0x6080346100ed57601f610b0238819003918201601f19168301916001600160401b038311848410176100f25780849260409485528339810103126100ed57610052602061004b83610108565b9201610108565b906001600160a01b039081169081156100d4576000549260018060a01b03199280848616176000558260405195167f8be0079c531659141344cd1fd0a4f28419497f9722a3daafe3b4186f6b6457e0600080a3169182156100c5575060015416176001556040516109e5908161011d8239f35b63d92e233d60e01b8152600490fd5b604051631e4fbdf760e01b815260006004820152602490fd5b600080fd5b634e487b7160e01b600052604160045260246000fd5b51906001600160a01b03821682036100ed5756fe6080604052600436101561001257600080fd5b60003560e01c80636dea703114610769578063715018a6146107105780637adbf973146106895780637c02e5161461060e5780637dc0d1d0146105e55780638da5cb5b146105bc5780639c89a0e2146104c0578063bb84add1146101c2578063c6a5877a1461011d5763f2fde38b1461008a57600080fd5b34610118576020366003190112610118576100a36108de565b6100ab610983565b6001600160a01b039081169081156100ff57600054826bffffffffffffffffffffffff60a01b821617600055167f8be0079c531659141344cd1fd0a4f28419497f9722a3daafe3b4186f6b6457e0600080a3005b604051631e4fbdf760e01b815260006004820152602490fd5b600080fd5b34610118576020366003190112610118576001600160a01b038061013f6108de565b1660005260026020526040600020906101be61ffff835416926001600160401b0360028201541693600460038301549201549160405195869560ff8560a01c16941692869390959491926001600160401b0360809461ffff60a0880199168752166020860152604085015260018060a01b031660608401521515910152565b0390f35b34610118576101a0366003190112610118576101dc6108de565b60443561ffff81168103610118576101643681116101185760015461018435906001600160a01b031633036104a85746810361048a575060405190610220826108f4565b61ffff8316825260405161023381610925565b6064815b83821061046f57505060208301526001600160401b0342166040830152356060820152336080820152600160a082015260018060a01b0383166000526002602052604060002061ffff82511661ffff19825416178155602082015160009060005b6008811061043e5750506001820155600281016001600160401b036040840151166001600160401b031982541617905560608201516003820155600460018060a01b03608084015116818301549060a0850151151560a01b60ff60a01b16916affffffffffffffffffffff60a81b16171791015560243561036a575b60406001600160401b039101511661ffff60405192602435845216602083015260408201527f8f1a82091ace86b0348c213a3ee4806ae3ee6ba11026754ca947945d09fca3226060339360018060a01b031692a3005b6024356000526003602052604060002061ffff82511661ffff19825416178155602082015160009060005b6008811061040d575050916004826001600160401b039460016040950155600281018585850151168619825416179055606083015160038201550160018060a01b0360808301511681549060ff60a01b60a0850151151560a01b16916affffffffffffffffffffff60a81b1617179055915050610314565b9091602061043560019261ffff8651169085851b60031b9161ffff809116831b921b19161790565b93019101610395565b9091602061046660019261ffff8651169085851b60031b9161ffff809116831b921b19161790565b93019101610298565b813561ffff8116810361011857815260209182019101610237565b6044906040519063857c0bad60e01b82524660048301526024820152fd5b60405163037d3e0960e61b8152336004820152602490fd5b34610118576020366003190112610118576101be6104dc6108de565b6104e4610941565b5060018060a01b03809116600052600260205260ff60406000209160046040519361050e856108f4565b61ffff8082541686526040519060018301548181168352818160101c166020840152818160201c166040840152818160301c166060840152818160401c166080840152818160501c1660a0840152818160601c1660c084015260701c1660e082015261057981610925565b60208601526001600160401b036002820154166040860152600381015460608601520154908116608084015260a01c16151560a082015260405191829182610857565b34610118576000366003190112610118576000546040516001600160a01b039091168152602090f35b34610118576000366003190112610118576001546040516001600160a01b039091168152602090f35b34610118576020366003190112610118576004803560009081526003602081815260409283902080546002820154938201549190950154845161ffff90961686526001600160401b0390931691850191909152918301919091526001600160a01b038116606083015260ff60a091821c161515608083015290f35b34610118576020366003190112610118576106a26108de565b6106aa610983565b6001600160a01b039081169081156106fe57600154826bffffffffffffffffffffffff60a01b821617600155167f078c3b417dadf69374a59793b829c52001247130433427049317bde56607b1b7600080a3005b60405163d92e233d60e01b8152600490fd5b3461011857600036600319011261011857610729610983565b600080546001600160a01b0319811682556001600160a01b03167f8be0079c531659141344cd1fd0a4f28419497f9722a3daafe3b4186f6b6457e08280a3005b3461011857602036600319011261011857610782610941565b5060043560005260036020526101be604060002060ff6004604051926107a7846108f4565b61ffff8082541685526040519060018301548181168352818160101c166020840152818160201c166040840152818160301c166060840152818160401c166080840152818160501c1660a0840152818160601c1660c084015260701c1660e082015261081281610925565b60208501526001600160401b03600282015416604085015260038101546060850152015460018060a01b038116608084015260a01c16151560a0820152604051918291825b9190916101a081019261ffff80825116835260208083015160208501906000915b600883106108c7575050505060408201516001600160401b031661012084015250606081015161014083015260808101516001600160a01b031661016083015260a00151151561018090910152565b838060019287855116815201920192019190610878565b600435906001600160a01b038216820361011857565b60c081019081106001600160401b0382111761090f57604052565b634e487b7160e01b600052604160045260246000fd5b61010081019081106001600160401b0382111761090f57604052565b6040519061094e826108f4565b600060a08382815260405161096281610925565b61010036823760208201528260408201528260608201528260808201520152565b6000546001600160a01b0316330361099757565b60405163118cdaa760e01b8152336004820152602490fdfea2646970667358221220168adb4c6320ac5ab7446dc30f27b4a051ca7dc1031eed5ad0092f50469af39364736f6c63430008180033","linkReferences":{}},"methodIdentifiers":{"feed(address)":"c6a5877a","feedBySolanaPubkey(bytes32)":"7c02e516","getReputation(address)":"9c89a0e2","getReputationBySolana(bytes32)":"6dea7031","oracle()":"7dc0d1d0","owner()":"8da5cb5b","renounceOwnership()":"715018a6","setOracle(address)":"7adbf973","transferOwnership(address)":"f2fde38b","updateReputation(address,bytes32,uint16,uint16[8],bytes32,uint256)":"bb84add1"},"id":48}