{"abi":[{"type":"constructor","inputs":[{"name":"treasury_","type":"address","internalType":"address"}],"stateMutability":"nonpayable"},{"type":"function","name":"BPS_DENOMINATOR","inputs":[],"outputs":[{"name":"","type":"uint256","internalType":"uint256"}],"stateMutability":"view"},{"type":"function","name":"CHALLENGER_BOND_BPS","inputs":[],"outputs":[{"name":"","type":"uint256","internalType":"uint256"}],"stateMutability":"view"},{"type":"function","name":"CHALLENGER_BOUNTY_BPS","inputs":[],"outputs":[{"name":"","type":"uint256","internalType":"uint256"}],"stateMutability":"view"},{"type":"function","name":"DISPUTE_WINDOW","inputs":[],"outputs":[{"name":"","type":"uint256","internalType":"uint256"}],"stateMutability":"view"},{"type":"function","name":"JUDGE_FEE_BPS","inputs":[],"outputs":[{"name":"","type":"uint256","internalType":"uint256"}],"stateMutability":"view"},{"type":"function","name":"JUDGE_SLASH_BPS","inputs":[],"outputs":[{"name":"","type":"uint256","internalType":"uint256"}],"stateMutability":"view"},{"type":"function","name":"MAX_REF_LEN","inputs":[],"outputs":[{"name":"","type":"uint256","internalType":"uint256"}],"stateMutability":"view"},{"type":"function","name":"MIN_SCORE","inputs":[],"outputs":[{"name":"","type":"uint256","internalType":"uint256"}],"stateMutability":"view"},{"type":"function","name":"PREVRANDAO_MAX_REWARD","inputs":[],"outputs":[{"name":"","type":"uint256","internalType":"uint256"}],"stateMutability":"view"},{"type":"function","name":"PROTOCOL_FEE_BPS","inputs":[],"outputs":[{"name":"","type":"uint256","internalType":"uint256"}],"stateMutability":"view"},{"type":"function","name":"REASSIGN_WINDOW","inputs":[],"outputs":[{"name":"","type":"uint256","internalType":"uint256"}],"stateMutability":"view"},{"type":"function","name":"WINNER_PAYOUT_BPS","inputs":[],"outputs":[{"name":"","type":"uint256","internalType":"uint256"}],"stateMutability":"view"},{"type":"function","name":"applications","inputs":[{"name":"","type":"uint256","internalType":"uint256"},{"name":"","type":"address","internalType":"address"}],"outputs":[{"name":"exists","type":"bool","internalType":"bool"},{"name":"submitted","type":"bool","internalType":"bool"},{"name":"stake","type":"uint256","internalType":"uint256"}],"stateMutability":"view"},{"type":"function","name":"apply_for_task","inputs":[{"name":"task_id","type":"uint256","internalType":"uint256"}],"outputs":[],"stateMutability":"payable"},{"type":"function","name":"cancel_task","inputs":[{"name":"task_id","type":"uint256","internalType":"uint256"}],"outputs":[],"stateMutability":"nonpayable"},{"type":"function","name":"claim_expired","inputs":[{"name":"task_id","type":"uint256","internalType":"uint256"}],"outputs":[],"stateMutability":"nonpayable"},{"type":"function","name":"claim_stake","inputs":[{"name":"task_id","type":"uint256","internalType":"uint256"}],"outputs":[],"stateMutability":"nonpayable"},{"type":"function","name":"disputeResolver","inputs":[],"outputs":[{"name":"","type":"address","internalType":"address"}],"stateMutability":"view"},{"type":"function","name":"dispute_task","inputs":[{"name":"task_id","type":"uint256","internalType":"uint256"},{"name":"reason_hash","type":"bytes32","internalType":"bytes32"}],"outputs":[],"stateMutability":"payable"},{"type":"function","name":"disputes","inputs":[{"name":"","type":"uint256","internalType":"uint256"}],"outputs":[{"name":"state","type":"uint8","internalType":"enum AgentLayerRaceTask.DisputeState"},{"name":"challenger","type":"address","internalType":"address"},{"name":"reasonHash","type":"bytes32","internalType":"bytes32"},{"name":"openedAt","type":"uint64","internalType":"uint64"},{"name":"bond","type":"uint256","internalType":"uint256"},{"name":"outcome","type":"uint8","internalType":"enum AgentLayerRaceTask.DisputeOutcome"},{"name":"resolver","type":"address","internalType":"address"},{"name":"correctWinner","type":"address","internalType":"address"},{"name":"correctScore","type":"uint8","internalType":"uint8"}],"stateMutability":"view"},{"type":"function","name":"force_refund","inputs":[{"name":"task_id","type":"uint256","internalType":"uint256"}],"outputs":[],"stateMutability":"nonpayable"},{"type":"function","name":"get_applicants","inputs":[{"name":"task_id","type":"uint256","internalType":"uint256"}],"outputs":[{"name":"","type":"address[]","internalType":"address[]"}],"stateMutability":"view"},{"type":"function","name":"get_reputation","inputs":[{"name":"agent","type":"address","internalType":"address"}],"outputs":[{"name":"totalApplied","type":"uint256","internalType":"uint256"},{"name":"completed","type":"uint256","internalType":"uint256"},{"name":"totalEarned","type":"uint256","internalType":"uint256"},{"name":"totalScore","type":"uint256","internalType":"uint256"},{"name":"avgScore","type":"uint256","internalType":"uint256"},{"name":"winRateBps","type":"uint256","internalType":"uint256"}],"stateMutability":"view"},{"type":"function","name":"get_submission","inputs":[{"name":"task_id","type":"uint256","internalType":"uint256"},{"name":"agent","type":"address","internalType":"address"}],"outputs":[{"name":"","type":"tuple","internalType":"struct AgentLayerRaceTask.Submission","components":[{"name":"exists","type":"bool","internalType":"bool"},{"name":"submittedAt","type":"uint64","internalType":"uint64"},{"name":"resultRef","type":"string","internalType":"string"},{"name":"traceRef","type":"string","internalType":"string"}]}],"stateMutability":"view"},{"type":"function","name":"get_task_judge_pool","inputs":[{"name":"task_id","type":"uint256","internalType":"uint256"}],"outputs":[{"name":"","type":"address[]","internalType":"address[]"}],"stateMutability":"view"},{"type":"function","name":"hasJudged","inputs":[{"name":"","type":"uint256","internalType":"uint256"}],"outputs":[{"name":"","type":"bool","internalType":"bool"}],"stateMutability":"view"},{"type":"function","name":"judgeRegistry","inputs":[],"outputs":[{"name":"","type":"address","internalType":"address"}],"stateMutability":"view"},{"type":"function","name":"judge_and_pay","inputs":[{"name":"task_id","type":"uint256","internalType":"uint256"},{"name":"winner","type":"address","internalType":"address"},{"name":"score","type":"uint8","internalType":"uint8"}],"outputs":[],"stateMutability":"nonpayable"},{"type":"function","name":"judgements","inputs":[{"name":"","type":"uint256","internalType":"uint256"},{"name":"","type":"address","internalType":"address"}],"outputs":[{"name":"exists","type":"bool","internalType":"bool"},{"name":"winner","type":"address","internalType":"address"},{"name":"score","type":"uint8","internalType":"uint8"},{"name":"submittedAt","type":"uint64","internalType":"uint64"}],"stateMutability":"view"},{"type":"function","name":"post_task","inputs":[{"name":"eval_ref","type":"string","internalType":"string"},{"name":"deadline","type":"uint64","internalType":"uint64"},{"name":"judge_deadline","type":"uint64","internalType":"uint64"},{"name":"judge","type":"address","internalType":"address"},{"name":"category","type":"uint8","internalType":"uint8"},{"name":"min_stake","type":"uint256","internalType":"uint256"}],"outputs":[{"name":"task_id","type":"uint256","internalType":"uint256"}],"stateMutability":"payable"},{"type":"function","name":"post_task_erc20","inputs":[{"name":"eval_ref","type":"string","internalType":"string"},{"name":"deadline","type":"uint64","internalType":"uint64"},{"name":"judge_deadline","type":"uint64","internalType":"uint64"},{"name":"judge","type":"address","internalType":"address"},{"name":"category","type":"uint8","internalType":"uint8"},{"name":"min_stake","type":"uint256","internalType":"uint256"},{"name":"token","type":"address","internalType":"address"},{"name":"reward_amount","type":"uint256","internalType":"uint256"}],"outputs":[{"name":"task_id","type":"uint256","internalType":"uint256"}],"stateMutability":"nonpayable"},{"type":"function","name":"post_task_erc20_quorum","inputs":[{"name":"eval_ref","type":"string","internalType":"string"},{"name":"deadline","type":"uint64","internalType":"uint64"},{"name":"judge_deadline","type":"uint64","internalType":"uint64"},{"name":"category","type":"uint8","internalType":"uint8"},{"name":"min_stake","type":"uint256","internalType":"uint256"},{"name":"token","type":"address","internalType":"address"},{"name":"reward_amount","type":"uint256","internalType":"uint256"},{"name":"judge_mode","type":"uint8","internalType":"uint8"},{"name":"judges","type":"address[]","internalType":"address[]"}],"outputs":[{"name":"task_id","type":"uint256","internalType":"uint256"}],"stateMutability":"nonpayable"},{"type":"function","name":"post_task_quorum","inputs":[{"name":"eval_ref","type":"string","internalType":"string"},{"name":"deadline","type":"uint64","internalType":"uint64"},{"name":"judge_deadline","type":"uint64","internalType":"uint64"},{"name":"category","type":"uint8","internalType":"uint8"},{"name":"min_stake","type":"uint256","internalType":"uint256"},{"name":"judge_mode","type":"uint8","internalType":"uint8"},{"name":"judges","type":"address[]","internalType":"address[]"}],"outputs":[{"name":"task_id","type":"uint256","internalType":"uint256"}],"stateMutability":"payable"},{"type":"function","name":"reassign_judge","inputs":[{"name":"task_id","type":"uint256","internalType":"uint256"}],"outputs":[],"stateMutability":"nonpayable"},{"type":"function","name":"reputations","inputs":[{"name":"","type":"address","internalType":"address"}],"outputs":[{"name":"totalApplied","type":"uint256","internalType":"uint256"},{"name":"completed","type":"uint256","internalType":"uint256"},{"name":"totalEarned","type":"uint256","internalType":"uint256"},{"name":"totalScore","type":"uint256","internalType":"uint256"},{"name":"winRateBps","type":"uint256","internalType":"uint256"}],"stateMutability":"view"},{"type":"function","name":"resolve_dispute","inputs":[{"name":"task_id","type":"uint256","internalType":"uint256"},{"name":"outcome","type":"uint8","internalType":"uint8"},{"name":"correct_winner","type":"address","internalType":"address"},{"name":"correct_score","type":"uint8","internalType":"uint8"}],"outputs":[],"stateMutability":"nonpayable"},{"type":"function","name":"setDisputeResolver","inputs":[{"name":"resolver","type":"address","internalType":"address"}],"outputs":[],"stateMutability":"nonpayable"},{"type":"function","name":"setJudgeRegistry","inputs":[{"name":"registry","type":"address","internalType":"address"}],"outputs":[],"stateMutability":"nonpayable"},{"type":"function","name":"settle_with_quorum","inputs":[{"name":"task_id","type":"uint256","internalType":"uint256"}],"outputs":[],"stateMutability":"nonpayable"},{"type":"function","name":"submit_judgement","inputs":[{"name":"task_id","type":"uint256","internalType":"uint256"},{"name":"winner","type":"address","internalType":"address"},{"name":"score","type":"uint8","internalType":"uint8"}],"outputs":[],"stateMutability":"nonpayable"},{"type":"function","name":"submit_result","inputs":[{"name":"task_id","type":"uint256","internalType":"uint256"},{"name":"result_ref","type":"string","internalType":"string"},{"name":"trace_ref","type":"string","internalType":"string"}],"outputs":[],"stateMutability":"nonpayable"},{"type":"function","name":"taskCount","inputs":[],"outputs":[{"name":"","type":"uint256","internalType":"uint256"}],"stateMutability":"view"},{"type":"function","name":"taskEvalRef","inputs":[{"name":"","type":"uint256","internalType":"uint256"}],"outputs":[{"name":"","type":"string","internalType":"string"}],"stateMutability":"view"},{"type":"function","name":"taskJudgePool","inputs":[{"name":"","type":"uint256","internalType":"uint256"},{"name":"","type":"uint256","internalType":"uint256"}],"outputs":[{"name":"","type":"address","internalType":"address"}],"stateMutability":"view"},{"type":"function","name":"tasks","inputs":[{"name":"","type":"uint256","internalType":"uint256"}],"outputs":[{"name":"poster","type":"address","internalType":"address"},{"name":"judge","type":"address","internalType":"address"},{"name":"winner","type":"address","internalType":"address"},{"name":"paymentToken","type":"address","internalType":"address"},{"name":"minStake","type":"uint256","internalType":"uint256"},{"name":"reward","type":"uint256","internalType":"uint256"},{"name":"deadline","type":"uint64","internalType":"uint64"},{"name":"judgeDeadline","type":"uint64","internalType":"uint64"},{"name":"category","type":"uint8","internalType":"uint8"},{"name":"score","type":"uint8","internalType":"uint8"},{"name":"state","type":"uint8","internalType":"enum AgentLayerRaceTask.TaskState"},{"name":"judgeMode","type":"uint8","internalType":"uint8"}],"stateMutability":"view"},{"type":"function","name":"treasury","inputs":[],"outputs":[{"name":"","type":"address","internalType":"address"}],"stateMutability":"view"},{"type":"event","name":"AgentCompensated","inputs":[{"name":"taskId","type":"uint256","indexed":true,"internalType":"uint256"},{"name":"agent","type":"address","indexed":true,"internalType":"address"},{"name":"amount","type":"uint256","indexed":false,"internalType":"uint256"}],"anonymous":false},{"type":"event","name":"DisputeOpened","inputs":[{"name":"taskId","type":"uint256","indexed":true,"internalType":"uint256"},{"name":"challenger","type":"address","indexed":true,"internalType":"address"},{"name":"bond","type":"uint256","indexed":false,"internalType":"uint256"},{"name":"reasonHash","type":"bytes32","indexed":false,"internalType":"bytes32"}],"anonymous":false},{"type":"event","name":"DisputeResolved","inputs":[{"name":"taskId","type":"uint256","indexed":true,"internalType":"uint256"},{"name":"outcome","type":"uint8","indexed":false,"internalType":"uint8"},{"name":"resolver","type":"address","indexed":true,"internalType":"address"},{"name":"correctWinner","type":"address","indexed":false,"internalType":"address"},{"name":"correctScore","type":"uint8","indexed":false,"internalType":"uint8"}],"anonymous":false},{"type":"event","name":"JudgeSlashed","inputs":[{"name":"taskId","type":"uint256","indexed":true,"internalType":"uint256"},{"name":"judge","type":"address","indexed":true,"internalType":"address"},{"name":"amount","type":"uint256","indexed":false,"internalType":"uint256"},{"name":"reason","type":"string","indexed":false,"internalType":"string"}],"anonymous":false},{"type":"event","name":"StakeRefunded","inputs":[{"name":"taskId","type":"uint256","indexed":true,"internalType":"uint256"},{"name":"agent","type":"address","indexed":true,"internalType":"address"},{"name":"stake","type":"uint256","indexed":false,"internalType":"uint256"}],"anonymous":false},{"type":"event","name":"SubmissionReceived","inputs":[{"name":"taskId","type":"uint256","indexed":true,"internalType":"uint256"},{"name":"agent","type":"address","indexed":true,"internalType":"address"},{"name":"resultRef","type":"string","indexed":false,"internalType":"string"},{"name":"traceRef","type":"string","indexed":false,"internalType":"string"}],"anonymous":false},{"type":"event","name":"TaskApplied","inputs":[{"name":"taskId","type":"uint256","indexed":true,"internalType":"uint256"},{"name":"agent","type":"address","indexed":true,"internalType":"address"},{"name":"stake","type":"uint256","indexed":false,"internalType":"uint256"}],"anonymous":false},{"type":"event","name":"TaskCreated","inputs":[{"name":"taskId","type":"uint256","indexed":true,"internalType":"uint256"},{"name":"poster","type":"address","indexed":true,"internalType":"address"},{"name":"judge","type":"address","indexed":true,"internalType":"address"},{"name":"category","type":"uint8","indexed":false,"internalType":"uint8"},{"name":"minStake","type":"uint256","indexed":false,"internalType":"uint256"},{"name":"reward","type":"uint256","indexed":false,"internalType":"uint256"},{"name":"deadline","type":"uint64","indexed":false,"internalType":"uint64"},{"name":"judgeDeadline","type":"uint64","indexed":false,"internalType":"uint64"},{"name":"evalRef","type":"string","indexed":false,"internalType":"string"}],"anonymous":false},{"type":"event","name":"TaskJudged","inputs":[{"name":"taskId","type":"uint256","indexed":true,"internalType":"uint256"},{"name":"winner","type":"address","indexed":true,"internalType":"address"},{"name":"score","type":"uint8","indexed":false,"internalType":"uint8"},{"name":"winnerPayout","type":"uint256","indexed":false,"internalType":"uint256"},{"name":"judgeFee","type":"uint256","indexed":false,"internalType":"uint256"},{"name":"protocolFee","type":"uint256","indexed":false,"internalType":"uint256"}],"anonymous":false},{"type":"event","name":"TaskRefunded","inputs":[{"name":"taskId","type":"uint256","indexed":true,"internalType":"uint256"},{"name":"poster","type":"address","indexed":true,"internalType":"address"},{"name":"reward","type":"uint256","indexed":false,"internalType":"uint256"},{"name":"score","type":"uint8","indexed":false,"internalType":"uint8"}],"anonymous":false},{"type":"error","name":"AlreadyApplied","inputs":[{"name":"taskId","type":"uint256","internalType":"uint256"},{"name":"agent","type":"address","internalType":"address"}]},{"type":"error","name":"AlreadyJudged","inputs":[{"name":"taskId","type":"uint256","internalType":"uint256"},{"name":"judge","type":"address","internalType":"address"}]},{"type":"error","name":"AlreadySubmitted","inputs":[{"name":"taskId","type":"uint256","internalType":"uint256"},{"name":"agent","type":"address","internalType":"address"}]},{"type":"error","name":"BondAmountIncorrect","inputs":[{"name":"expected","type":"uint256","internalType":"uint256"},{"name":"actual","type":"uint256","internalType":"uint256"}]},{"type":"error","name":"DeadlinePassed","inputs":[{"name":"taskId","type":"uint256","internalType":"uint256"}]},{"type":"error","name":"DisputeAlreadyOpen","inputs":[{"name":"taskId","type":"uint256","internalType":"uint256"}]},{"type":"error","name":"DisputeNotOpen","inputs":[{"name":"taskId","type":"uint256","internalType":"uint256"}]},{"type":"error","name":"DisputeWindowClosed","inputs":[{"name":"taskId","type":"uint256","internalType":"uint256"}]},{"type":"error","name":"DuplicateVote","inputs":[{"name":"taskId","type":"uint256","internalType":"uint256"},{"name":"judge","type":"address","internalType":"address"}]},{"type":"error","name":"HighValueTaskRequiresDesignatedJudge","inputs":[{"name":"taskId","type":"uint256","internalType":"uint256"}]},{"type":"error","name":"InvalidCategory","inputs":[{"name":"category","type":"uint8","internalType":"uint8"}]},{"type":"error","name":"InvalidDeadline","inputs":[{"name":"deadline","type":"uint64","internalType":"uint64"}]},{"type":"error","name":"InvalidDisputeOutcome","inputs":[{"name":"outcome","type":"uint8","internalType":"uint8"}]},{"type":"error","name":"InvalidJudgeDeadline","inputs":[{"name":"judgeDeadline","type":"uint64","internalType":"uint64"}]},{"type":"error","name":"InvalidJudgeMode","inputs":[{"name":"taskId","type":"uint256","internalType":"uint256"}]},{"type":"error","name":"InvalidRefLength","inputs":[]},{"type":"error","name":"InvalidScore","inputs":[{"name":"score","type":"uint8","internalType":"uint8"}]},{"type":"error","name":"InvalidStakeAmount","inputs":[{"name":"expected","type":"uint256","internalType":"uint256"},{"name":"actual","type":"uint256","internalType":"uint256"}]},{"type":"error","name":"JudgeCannotApply","inputs":[{"name":"taskId","type":"uint256","internalType":"uint256"},{"name":"judge","type":"address","internalType":"address"}]},{"type":"error","name":"JudgeDeadlineNotReached","inputs":[{"name":"taskId","type":"uint256","internalType":"uint256"}]},{"type":"error","name":"JudgeDeadlinePassed","inputs":[{"name":"taskId","type":"uint256","internalType":"uint256"}]},{"type":"error","name":"NoJudgeRegistry","inputs":[]},{"type":"error","name":"NoSubmittedAgents","inputs":[{"name":"taskId","type":"uint256","internalType":"uint256"}]},{"type":"error","name":"NotApplied","inputs":[{"name":"taskId","type":"uint256","internalType":"uint256"},{"name":"agent","type":"address","internalType":"address"}]},{"type":"error","name":"NotDisputeResolver","inputs":[{"name":"caller","type":"address","internalType":"address"}]},{"type":"error","name":"NotPoolJudge","inputs":[{"name":"taskId","type":"uint256","internalType":"uint256"},{"name":"caller","type":"address","internalType":"address"}]},{"type":"error","name":"NotTaskJudge","inputs":[{"name":"taskId","type":"uint256","internalType":"uint256"},{"name":"caller","type":"address","internalType":"address"},{"name":"expectedJudge","type":"address","internalType":"address"}]},{"type":"error","name":"NotTaskPoster","inputs":[{"name":"taskId","type":"uint256","internalType":"uint256"},{"name":"caller","type":"address","internalType":"address"},{"name":"expectedPoster","type":"address","internalType":"address"}]},{"type":"error","name":"QuorumNotReached","inputs":[{"name":"taskId","type":"uint256","internalType":"uint256"}]},{"type":"error","name":"ReassignWindowNotOpen","inputs":[{"name":"taskId","type":"uint256","internalType":"uint256"}]},{"type":"error","name":"ReentrancyGuardReentrantCall","inputs":[]},{"type":"error","name":"StakeNotClaimable","inputs":[{"name":"taskId","type":"uint256","internalType":"uint256"},{"name":"agent","type":"address","internalType":"address"}]},{"type":"error","name":"TaskHasJudged","inputs":[{"name":"taskId","type":"uint256","internalType":"uint256"}]},{"type":"error","name":"TaskNotCompleted","inputs":[{"name":"taskId","type":"uint256","internalType":"uint256"}]},{"type":"error","name":"TaskNotFound","inputs":[{"name":"taskId","type":"uint256","internalType":"uint256"}]},{"type":"error","name":"TaskNotOpen","inputs":[{"name":"taskId","type":"uint256","internalType":"uint256"}]},{"type":"error","name":"TokenTransferFailed","inputs":[{"name":"token","type":"address","internalType":"address"},{"name":"from","type":"address","internalType":"address"},{"name":"to","type":"address","internalType":"address"},{"name":"amount","type":"uint256","internalType":"uint256"}]},{"type":"error","name":"TransferFailed","inputs":[{"name":"to","type":"address","internalType":"address"},{"name":"amount","type":"uint256","internalType":"uint256"}]},{"type":"error","name":"UnexpectedEther","inputs":[{"name":"amount","type":"uint256","internalType":"uint256"}]},{"type":"error","name":"WinnerNotApplied","inputs":[{"name":"taskId","type":"uint256","internalType":"uint256"},{"name":"winner","type":"address","internalType":"address"}]},{"type":"error","name":"WinnerSubmissionMissing","inputs":[{"name":"taskId","type":"uint256","internalType":"uint256"},{"name":"winner","type":"address","internalType":"address"}]},{"type":"error","name":"ZeroAddress","inputs":[]},{"type":"error","name":"ZeroReward","inputs":[]}],"bytecode":{"object":"0x60a034620000e257601f6200484e38819003918201601f19168301916001600160401b03831184841017620000e757808492602094604052833981010312620000e257516001600160a01b038116808203620000e25760017f9b779b17422d0df92223018b32b4d1fa46e071723d6817e2486d003becc55f005515620000d057608052600080546001600160a01b031916331790556040516147509081620000fe8239608051818181611317015281816115a00152818161195d01528181611d1d015281816124d801526127030152f35b60405163d92e233d60e01b8152600490fd5b600080fd5b634e487b7160e01b600052604160045260246000fdfe6080604052600436101561001257600080fd5b60003560e01c8062d76a7014613a9257806306fa15a714613a2c57806307160a31146137a65780630ba147e7146134aa57806312a453bf1461348d5780631751a6f01461343b57806323bb65ba146133c55780632870bcb21461339c5780632a34068514612f9a5780632daa610014612b8f5780633312e20114612b1957806336e1a7931461212357806337536c9014611f2657806337f5555914611f095780633abae38714611ec95780633e4aa14814611b905780633e79c701146119d957806340047267146118c157806340b89270146118a55780634a51b2a2146117e45780635307a3f6146117c7578063564a565d1461171757806358cb7507146116f45780635de1dffa146116c35780635edeeac0146115cf57806361d027b31461158a57806366852374146115255780637336fb61146114de57806389bd0f991461123b5780638d9776721461116d578063912faa28146110e4578063924e63f6146110855780639e9d8684146110695780639eabcbad1461104b578063a0559d0414610e1b578063ae43525e14610dfe578063b6cb58a514610de0578063be37822814610dc4578063ce35742114610c95578063d8773f09146108da578063e1a45218146108bd578063ef46a75814610304578063f585dc57146102e6578063f5a3f4af146102bd578063f860e283146102375763fc65a3921461021557600080fd5b346102325760003660031901126102325760206040516101f48152f35b600080fd5b34610232576020806003193601126102325760043560005260066020526040600020906040519081602084549182815201936000526020600020916000905b82821061029d576102998561028d81890382613e1f565b60405191829182613d69565b0390f35b83546001600160a01b031686529485019460019384019390910190610276565b34610232576000366003190112610232576000546040516001600160a01b039091168152602090f35b3461023257600036600319011261023257602060405162093a808152f35b3461023257610100366003190112610232576004356001600160401b03811161023257610335903690600401613cb2565b61033d613cdf565b610345613cf5565b9261034e613c66565b90610357613ca2565b9160c4356001600160a01b03811690036102325760c4356001600160a01b0316156108ab5760e43515610899578415801561088f575b61087d57600760ff84161161086257426001600160401b0385161115610841576001600160401b0384166001600160401b0387161115610820576103d760e435303360c4356141ce565b6001600160a01b03811615610758575b6103f2600254613ff3565b94856002556105cd60405161040681613de8565b33815260018060a01b03841660208201526000604082015260018060a01b0360c43516606082015260a435608082015260e43560a08201526001600160401b03871660c08201526001600160401b03891660e082015260ff861661010082015260006101208201526000610140820152600061016082015287600052600360205260ff6101606006604060002060018060a01b038551166001600160601b0360a01b8254161781556001810160018060a01b036020870151166001600160601b0360a01b8254161790556002810160018060a01b036040870151166001600160601b0360a01b8254161790556003810160018060a01b036060870151166001600160601b0360a01b8254161790556080850151600482015560a0850151600582015501926001600160401b0360c0820151166001600160401b031985541617845561055e6001600160401b0360e08301511685614002565b610100810151845460ff60801b191690841660801b60ff60801b16178455610120810151845460ff60881b191690841660881b60ff60881b161784556105b26101408201516105ac81613f59565b8561402a565b0151825460ff60981b1916911660981b60ff60981b16179055565b85600052600860205260406000206001600160401b038211610742576105f38154613dae565b601f81116106fa575b50916020979187936000601f831160011461067a57958291610664936000805160206146fb833981519152979860009161066f575b508360011b906000198560031b1c19161790555b60405194859460018060a01b031699339960e4359060a4359088614093565b0390a4604051908152f35b90508201358d610631565b9590806000528a60002060005b601f19851681106106e05750908392916000805160206146fb833981519152979861066495601f198116106106c6575b5050600183811b019055610645565b830135600019600386901b60f8161c191690558c806106b7565b888401358255978c01978b97506001909101908c01610687565b816000526020600020601f840160051c81019160208510610738575b601f0160051c01905b81811061072c57506105fc565b6000815560010161071f565b9091508190610716565b634e487b7160e01b600052604160045260246000fd5b50670de0b6b3a764000060e43511610807576001546001600160a01b031680156107f55760405163074614f160e01b815260ff8416600482015244602482015290602090829060449082905afa9081156107e9576000916107ba575b506103e7565b6107dc915060203d6020116107e2575b6107d48183613e1f565b8101906140d3565b866107b4565b503d6107ca565b6040513d6000823e3d90fd5b604051634c5ec68360e01b8152600490fd5b60405163971e76e560e01b815260006004820152602490fd5b60405163296abdcf60e11b81526001600160401b0387166004820152602490fd5b60405163bc4bfd3b60e01b81526001600160401b0385166004820152602490fd5b60405163e4e866a960e01b815260ff84166004820152602490fd5b60405163f6011f4b60e01b8152600490fd5b506080851161038d565b604051632706c9e160e21b8152600490fd5b60405163d92e233d60e01b8152600490fd5b346102325760003660031901126102325760206040516127108152f35b3461023257610120366003190112610232576004356001600160401b0381116102325761090b903690600401613cb2565b90610914613cdf565b61091c613cf5565b90610925613c92565b9360a4356001600160a01b03811690036102325760ff60e43516938460e4350361023257610104356001600160401b03811161023257610969903690600401613d0b565b909560a4356001600160a01b0316156108ab5760c435156108995783158015610c8b575b61087d5760ff881660078111610c735750426001600160401b0386161115610c52576001600160401b0386166001600160401b038616811115610c3a575015610c21578015610c21576109e660c435303360a4356141ce565b6109f1600254613ff3565b9586600255866000526003602052610aa6600660406000206001600160601b0360a01b33818354161782556001820181815416905560028201818154169055600382019060018060a01b0360a4351690825416179055608435600482015560c4356005820155016001600160401b0387166001600160401b0319825416178155610a7b8882614002565b805460ff60981b60e43560981b1663ffffffff60801b1990911660ff60801b60808d901b1617179055565b600860205260406000206001600160401b03851161074257610ac88154613dae565b601f8111610bdd575b50846000601f8211600114610b7757600091610b6c575b508560011b906000198760031b1c19161790555b60005b828110610b395760208860008b826000805160206146fb8339815191528c8c6106648d8d604051948594339960c435906084359088614093565b60019088600052600a602052610b666040600020610b60610b5b84888861404e565b61405e565b90613f79565b01610aff565b90508401358a610ae8565b60008381526020812092508790601f198216905b818110610bc2575010610ba8575b5050600185811b019055610afc565b850135600019600388901b60f8161c191690558980610b99565b8884013585556001909401936020938401938a935001610b8b565b816000526020600020601f870160051c810160208810610c1a575b601f830160051c82018110610c0e575050610ad1565b60008155600101610bf8565b5080610bf8565b60405163560be7c560e01b815260006004820152602490fd5b6024906040519063296abdcf60e11b82526004820152fd5b60405163bc4bfd3b60e01b81526001600160401b0386166004820152602490fd5b6024906040519063e4e866a960e01b82526004820152fd5b506080841161098d565b3461023257602036600319011261023257600435610cb1614106565b600081815260036020526040902080549091906001600160a01b031615610dac5760ff600683015460901c16610ce681613f59565b15610d94578060005260046020526040600020336000526020526040600020916001830160ff8154945416158015610d8c575b610d6d57610d2d916000859255339061429c565b6040519182527f181dd8e5abfdd7ea94bff7529391d477a29bf85df13abe63fb4f97017bbc8ba060203393a360016000805160206146db83398151915255005b6040516336efd17760e21b815260048101849052336024820152604490fd5b508315610d19565b60249060405190639d6bda0b60e01b82526004820152fd5b6024906040519063ad0e34ad60e01b82526004820152fd5b3461023257600036600319011261023257602060405160c88152f35b34610232576000366003190112610232576020600254604051908152f35b346102325760003660031901126102325760206040516109c48152f35b3461023257602036600319011261023257610e34614106565b600435600090815260036020526040902080546001600160a01b03161561103257600681015460ff8160981c1661101957600435600052600c60205260ff60406000205416611000576001600160401b038160401c166201517f198101908111610fea57421115610fd1576001546001600160a01b03169081156107f55760018301546001600160a01b03811692909183914491906000905b600a60ff831610610f1b575b6001600160a01b031986166001600160a01b0386161760018901556004880154610f0790600a9004886142d0565b60016000805160206146db83398151915255005b60405163074614f160e01b815260ff608085901c1660048201526024810185905294509192909190602085604481855afa9485156107e957600095610fb0575b506001600160a01b038516879003610fab57600160ff91604051602081019182528360f81b8660f81b1660408201526041600435818301528152610f9e81613e04565b5190209493011690610ecd565b610ed9565b610fca91955060203d6020116107e2576107d48183613e1f565b9388610f5b565b602460405163aab600bd60e01b81526004356004820152fd5b634e487b7160e01b600052601160045260246000fd5b6024604051637dc75a7b60e01b81526004356004820152fd5b602460405163560be7c560e01b81526004356004820152fd5b602460405163ad0e34ad60e01b81526004356004820152fd5b34610232576000366003190112610232576020604051620151808152f35b3461023257600036600319011261023257602060405160808152f35b346102325760203660031901126102325761109e613c50565b600054906001600160a01b039081831633036110cc57169081156108ab576001600160a01b03191617600055005b60405163c9f546cf60e01b8152336004820152602490fd5b34610232576020366003190112610232576001600160a01b03611105613c50565b16600052600760205260c060406000206001810154801560001461115a5760005b82549260028101546004600383015492015493604051958652602086015260408501526060840152608083015260a0820152f35b611168816003840154613fc6565b611126565b34610232576020366003190112610232576004356000526003602052610180604060002060ff60018060a01b039182815416928060018301541690806002840154169060038401541692600481015460066005830154920154946001600160401b0393878760901c1695604051998a5260208a015260408901526060880152608087015260a086015280831660c08601528260401c1660e0850152828260801c16610100850152828260881c1661012085015261122981613f59565b61014084015260981c16610160820152f35b346102325760208060031936011261023257600435611258614106565b61126181614136565b90600682019081546001600160401b038160401c164211156114c557816000526006855260406000209260009160008554905b81811061146f57505082156114565760ff60901b1916600160911b179055600584015493841560c88087029087820414821715610fea576127108091049661012c9283820293828504141715610fea576112f66112fb92899404988992613fe6565b613fe6565b9561133c60018060a01b039261131589858754168761429c565b7f00000000000000000000000000000000000000000000000000000000000000008561429c565b6113468482613fc6565b93808502908582041485151715610fea5761136091613fe6565b9460005b815481101561141e57826113788284613d3b565b90549060031b1c168660005260048a526040600020816000528a5260ff60406000205460081c1615611415578986896113ed575b7fef78f95f988a516580b2745a0750f1987036a306abd2c83c347d2bf0828156d88392826113df8c94600198978c61429c565b604051908152a35b01611364565b5050969060018601808711610fea57976000198301928311610fea5791979091908a906113ac565b506001906113e7565b88866000805160206146bb83398151915260408b6000888a5416958351928352820152a360016000805160206146db83398151915255005b60405163f81b846760e01b815260048101859052602490fd5b856000526004895260406000206114868289613d3b565b60018060a01b0391549060031b1c16600052895260ff60406000205460081c166114b3575b600101611294565b9360018101809111610fea57936114ab565b6040516311fe37e160e01b815260048101839052602490fd5b34610232576020366003190112610232576114f7613c50565b6000546001600160a01b039190821633036110cc57166001600160601b0360a01b6001541617600155600080f35b346102325760403660031901126102325761153e613c7c565b600435600052600460205260406000209060018060a01b0316600052602052606060406000206001815491015460ff604051928181161515845260081c16151560208301526040820152f35b34610232576000366003190112610232576040517f00000000000000000000000000000000000000000000000000000000000000006001600160a01b03168152602090f35b34610232576040366003190112610232576115e8613c7c565b604051906115f582613e04565b6000825260608060209360008582015281604082015201526004356000526005825260406000209060018060a01b0316600052815260406000206102996040519161163f83613e04565b6116b081549160ff8316151585526001600160401b03808787019460081c16845261167f600261167160018501613e40565b936040890194855201613e40565b93606087019485526040519788978189525115159088015251166040860152516080606086015260a0850190613ee5565b9051838203601f19016080850152613ee5565b3461023257602036600319011261023257600435600052600c602052602060ff604060002054166040519015158152f35b34610232576000366003190112610232576020604051670de0b6b3a76400008152f35b34610232576020366003190112610232576004356000526009602052610120604060002060ff81548181169260018060a01b0381600182930154906001600160401b036002820154166003820154906004830154938560058a8716950154986040519b61178381613f59565b8c5260081c1660208b015260408a0152606089015260808801526117a681613f59565b60a087015260081c1660c0850152811660e084015260a01c16610100820152f35b3461023257600036600319011261023257602060405161012c8152f35b3461023257602036600319011261023257600435611800614106565b61180981614136565b906006820180546001600160401b038160401c1642111561188c5760ff60901b1916600160911b179055815460058301805490936000805160206146bb833981519152926040926001600160a01b039291611867919084168361429c565b54169354815190815260006020820152a360016000805160206146db83398151915255005b6040516311fe37e160e01b815260048101849052602490fd5b34610232576000366003190112610232576020604051603c8152f35b34610232576020366003190112610232576004356118dd614106565b6118e681614136565b80546001600160a01b03908116929190338490036119a65760068201600160911b60ff60901b1982541617905560058201549060c882029282840460c81483151715610fea5761198260409361195b6119536127106000805160206146bb83398151915298048093613fe6565b80998561429c565b7f00000000000000000000000000000000000000000000000000000000000000008361429c565b541693815190815260006020820152a360016000805160206146db83398151915255005b50506040516305ece71b60e51b815260048101919091523360248201526001600160a01b03919091166044820152606490fd5b34610232576119e736613f25565b600083815260036020526040902080549192916001600160a01b031615611b77576006015460ff8160901c16611a1c81613f59565b611b5e576001600160401b038160401c164211611b455760ff831660648111611b2d575060981c60ff1615611b1457611a553384614509565b15611af55782600052600b60205260406000203360005260205260406000209283549060ff8216611ad557506001600160a81b03191660089190911b610100600160a81b0316176001178255815468ffffffffffffffffff60a81b191660a89190911b60ff60a81b16174260b01b67ffffffffffffffff60b01b16179055005b604051636db52ddb60e01b81526004810191909152336024820152604490fd5b60405163485c4a8d60e01b815260048101849052336024820152604490fd5b60405163560be7c560e01b815260048101849052602490fd5b602490604051906306fae60560e11b82526004820152fd5b60405163137a4c7760e21b815260048101859052602490fd5b604051639d6bda0b60e01b815260048101859052602490fd5b60405163ad0e34ad60e01b815260048101859052602490fd5b3461023257611b9e36613f25565b611ba6614106565b611baf83614136565b916006830192835460ff8160981c16611eb05760401c6001600160401b03164211611e9757600181019260018060a01b039182855416803303611e67575060ff82169560648711611e4e57876000526004602052604060002096848616978860005260205260ff6040600020541615611e275788600052600560205260406000208860005260205260ff6040600020541615611dff576002830180546001600160a01b03191689179055815460ff60881b1916608885901b60ff60881b161782558890603c11611da05750805460ff60901b1916600160901b179055600581015460c88082029282159183850414821715610fea576127108094049261012c9283820293828504141715610fea578a987fd0f8792e4d4724ee13204135e9d9c748784bca75054b33ecdeae128d76588edb98611d4286611d4795611d1b82611d058d98611d6d9d6112f69c049b8c938492613fe6565b9d8e97611d1389898761429c565b54168361429c565b7f00000000000000000000000000000000000000000000000000000000000000009061429c565b614451565b604051948594859094939260609260ff6080840197168352602083015260408201520152565b0390a35b600052600c6020526040600020600160ff1982541617905560016000805160206146db83398151915255600080f35b815460ff60901b1916600160911b1790915581546005830180549098509196506000805160206146bb8339815191529550929392611de1919084168361429c565b5494546040805191825260ff939093166020820152941693a3611d71565b604051631714018360e21b8152600481018a90526001600160a01b0387166024820152604490fd5b60405162bcbe9560e81b8152600481018a90526001600160a01b0387166024820152604490fd5b6040516306fae60560e11b815260048101889052602490fd5b6040516304fb10ab60e11b8152600481018990523360248201526001600160a01b03919091166044820152606490fd5b60405163137a4c7760e21b815260048101869052602490fd5b60405163560be7c560e01b815260048101879052602490fd5b34610232576020366003190112610232576004356000526008602052610299611ef56040600020613e40565b604051918291602083526020830190613ee5565b346102325760003660031901126102325760206040516103e88152f35b60403660031901126102325760246004358135611f41614106565b600082815260036020526040902080546001600160a01b03161561210c576006810154600160ff8260901c16611f7681613f59565b036120f457836000526009602052604060002090815492600160ff8516611f9c81613f59565b146120dc57600501546103e8908181029181830414901517156120c7576127109004958634036120a9576001600160401b03809260401c1662093a80810180911161209457421161207e57506001600160a81b03199092163360081b610100600160a81b031617600117815560ff199160049190846001830155600282019042166001600160401b03198254161790558560038201550190815416905560405192835260208301527f7cdc3409809665381cab7dfe104f886b877fb162aed08c4dd8f5500a8727d43760403393a360016000805160206146db83398151915255005b604051630fff5b3f60e31b815260048101879052fd5b50634e487b7160e01b60009081526011600452fd5b8660449160405191634f14b5a960e11b835260048301523490820152fd5b86634e487b7160e01b60005260116004526000fd5b6040516332e9898d60e11b8152600481018790528790fd5b505050604051906322cfd68560e11b82526004820152fd5b50506040519063ad0e34ad60e01b82526004820152fd5b346102325760203660031901126102325761213c614106565b600435600090815260036020526040902080546001600160a01b03161561103257600681015460ff8160901c1661217281613f59565b612b00576001600160401b038160401c16421115612ae75760981c60ff161561101957600435600052600a6020526040600020906040518083602082955493848152019060005260206000209260005b818110612ac55750506121d792500383613e1f565b815191600183018311610fea57600091829182805b82518210156123b5576004356000908152600b602052604090206001600160a01b0361221884866140f2565b51166000526020526040600020936040519461223386613e04565b546001600160401b0360ff821615918215885260018060a01b038160081c16602089015260ff8160a81c16604089015260b01c1660608701526123a757600195600184018411610fea57600184015b855181101561235e576004356000908152600b602052604090206001600160a01b036122ae83896140f2565b51166000526020526040600020604051906122c882613e04565b549060ff8216158015825260018060a01b038360081c169182602082015260606001600160401b0360ff8660a81c169586604085015260b01c169101526123545760208901516001600160a01b0316149081612343575b5061232f575b6001905b01612282565b9661233b600191613ff3565b979050612325565b905060ff604089015116148b61231f565b5050600190612329565b50939594909492919287811161237f575b50506001905b01909391936121ec565b60208201516040909201519097506001600160a01b03909116935060ff16915060018861236f565b935090600190949294612375565b849150851586888215612ab4575b5050612a9b576002840180546001600160a01b0319166001600160a01b03841617905560068401805460ff60881b1916608883901b60ff60881b161790556004356000526004602052604060002060018060a01b03831660005260205260ff6040600020541615612a73576004356000526005602052604060002060018060a01b03831660005260205260ff6040600020541615612a4a57603c60ff8216106129db5760068401805460ff60901b1916600160901b179055600584015480159360c880830294929392919084860414861715610fea5761012c95848781020487141715610fea576124c2612710878602046112f6612710880487613fe6565b956124ce87848a61429c565b6124fd61271087047f00000000000000000000000000000000000000000000000000000000000000008a61429c565b6000958695865b84518910156125e2576004356000908152600b602052604090206001600160a01b036125308b886140f2565b511660005260205260406000206040519061254a82613e04565b549060ff8216158015825260018060a01b038360081c169182602082015260606001600160401b0360ff8660a81c169586604085015260b01c169101526125d7576001600160a01b0388161490816125ca575b50156125b7576125ae600191613ff3565b985b0197612504565b97966125c4600191613ff3565b976125b0565b905060ff8816148c61259d565b5050976001906125b0565b9196909495939892975060009180612896575b508061272e575b50927fd0f8792e4d4724ee13204135e9d9c748784bca75054b33ecdeae128d76588edb94926126819261263661271096878b860204613fe6565b806126fd575b50612648828287614451565b60405195869560018060a01b031699816004359a0494020491859094939260609260ff6080840197168352602083015260408201520152565b0390a35b60005b8151811015610f07576004356000908152600b60205260409020600191906001600160a01b036126b883866140f2565b511660005260205260ff60406000205416156126d5575b01612688565b6126f8828060a01b036126e883866140f2565b5116600a600487015404906142d0565b6126cf565b612728907f00000000000000000000000000000000000000000000000000000000000000008d61429c565b8b61263c565b919893979690949291612710828a020460038082028290041490151715610fea5761276590600a6003612710858d02040204613fc6565b9560005b8851811015612860576004356000908152600b602052604090206001600160a01b03612795838c6140f2565b5116600052602052876040600020604051906127b082613e04565b5460ff811615159182815260018060a01b038260081c169081602082015260606001600160401b0360ff8560a81c169485604085015260b01c1691015282612836575b5050612803575b50600101612769565b80829861282861282d938d612820600197888060a01b03926140f2565b51168b61429c565b613fb9565b969050876127fa565b6001600160a01b0389161480159250612852575b508d806127f3565b905060ff861614158d61284a565b509398969790969395509193919290917fd0f8792e4d4724ee13204135e9d9c748784bca75054b33ecdeae128d76588edb6125fc565b9098979296919594906127108285020460078082028290041490151715610fea576128cd90600a6007612710878602040204613fc6565b9660005b89518110156129cb576004356000908152600b602052604090206001600160a01b036128fd838d6140f2565b5116600052602052888c8b60406000206040519061291a82613e04565b5460ff811615159182815260018060a01b038260081c169081602082015260ff8360a81c16604082015260606001600160401b038460b01c16910152826129b8575b50816129a5575b50612974575b5050506001016128d1565b996128288361299a9493869d612992600198898060a01b03926140f2565b51169061429c565b979050888c8b612969565b905060ff808b169160a81c161438612963565b6001600160a01b038d161491503861295c565b509297989094959196508a6125f5565b60068401805460ff60901b1916600160911b1790558354600585018054909350612a0e916001600160a01b03168661429c565b835491546040805191825260ff9290921660208201526001600160a01b0390921691600435916000805160206146bb83398151915291a3612685565b604051631714018360e21b815260048035908201526001600160a01b0383166024820152604490fd5b60405162bcbe9560e81b815260048035908201526001600160a01b0383166024820152604490fd5b602460405163eab7f0f760e01b81526004356004820152fd5b60019192500160011c1185806123c3565b84546001600160a01b03168352600194850194879450602090930192016121c2565b60246040516311fe37e160e01b81526004356004820152fd5b6024604051639d6bda0b60e01b81526004356004820152fd5b34610232576040366003190112610232576080612b34613c7c565b600435600052600b602052604060002060018060a01b038092166000526020526001600160401b036040600020546040519260ff8216151584528160081c16602084015260ff8160a81c16604084015260b01c166060820152f35b34610232576060366003190112610232576024356001600160401b03811161023257612bbf903690600401613cb2565b906044356001600160401b03811161023257612bdf903690600401613cb2565b916001600160401b036006612bf5600435614136565b015416421015612f815783158015612f77575b61087d5782158015612f6d575b61087d57600435600052600460205260406000203360005260205260406000209360ff85541615612f4d5760043560005260056020526040600020336000526020526040600020805460ff8116612f2d5768ffffffffffffffffff19164260081b68ffffffffffffffff00161760011781556001600160401b03821161074257612ca26001820154613dae565b601f8111612ee6575b5060009082601f8111600114612e7457600292600091612e69575b508360011b906000198560031b1c19161760018201555b01946001600160401b03851161074257612cf78654613dae565b601f8111612e21575b50600095601f8611600114612d9a57857f76b1c5b6d3399cc6a4c2727a933d567a72355e62056a98e6ed826df711566f15959697600091612d8f575b508760011b906000198960031b1c19161790555b61010061ff0019825416179055612d8a612d77604051938493604085526040850191614072565b8281036020840152339660043596614072565b0390a3005b905086013588612d3c565b601f1986168160005260206000209060005b818110612e09575097877f76b1c5b6d3399cc6a4c2727a933d567a72355e62056a98e6ed826df711566f1597989910612def575b5050600187811b019055612d50565b87013560001960038a901b60f8161c191690558780612de0565b878a013583556020998a019960019093019201612dac565b866000526020600020601f870160051c81019160208810612e5f575b601f0160051c01905b818110612e535750612d00565b60008155600101612e46565b9091508190612e3d565b905084013588612cc6565b5060018101600090815260208120909284601f1981165b808610612ec8576002955010612eae575b5050600183811b016001820155612cdd565b850135600019600386901b60f8161c191690558780612e9c565b87830135845560209586019560019094019390920191869150612e8b565b600182016000526020600020601f840160051c810160208510612f26575b601f830160051c82018110612f1a575050612cab565b60008155600101612f04565b5080612f04565b604051636338a03760e11b81526004803590820152336024820152604490fd5b60405163bbde2e4d60e01b81526004803590820152336024820152604490fd5b5060808311612c15565b5060808411612c08565b602460405163bfb22adf60e01b81526004356004820152fd5b60c0366003190112610232576004356001600160401b03811161023257612fc5903690600401613cb2565b612fcd613cdf565b612fd5613cf5565b92612fde613c66565b90612fe7613ca2565b9134156108995784158015613392575b61087d57600760ff84161161086257426001600160401b0385161115610841576001600160401b0384166001600160401b0387161115610820576001600160a01b03811615613313575b61304c600254613ff3565b94856002556131ad60405161306081613de8565b33815260018060a01b0384166020820152600060408201526000606082015260a43560808201523460a08201526001600160401b03871660c08201526001600160401b03891660e082015260ff861661010082015260006101208201526000610140820152600061016082015287600052600360205260ff6101606006604060002060018060a01b038551166001600160601b0360a01b8254161781556001810160018060a01b036020870151166001600160601b0360a01b8254161790556002810160018060a01b036040870151166001600160601b0360a01b8254161790556003810160018060a01b036060870151166001600160601b0360a01b8254161790556080850151600482015560a0850151600582015501926001600160401b0360c0820151166001600160401b031985541617845561055e6001600160401b0360e08301511685614002565b85600052600860205260406000206001600160401b038211610742576131d38154613dae565b601f81116132cb575b50916020979187936000601f831160011461324d57958291610664936000805160206146fb8339815191529798600091613242575b508360011b906000198560031b1c19161790555b60405194859460018060a01b0316993399349060a4359088614093565b90508201358d613211565b9590601f198316816000528b6000209060005b8181106132b15750906000805160206146fb8339815191529798856106649695949310613297575b5050600183811b019055613225565b830135600019600386901b60f8161c191690558c80613288565b848a01358355988d01988c98506001909201918d01613260565b816000526020600020601f840160051c81019160208510613309575b601f0160051c01905b8181106132fd57506131dc565b600081556001016132f0565b90915081906132e7565b50670de0b6b3a76400003411610807576001546001600160a01b031680156107f55760405163074614f160e01b815260ff8416600482015244602482015290602090829060449082905afa9081156107e957600091613373575b50613041565b61338c915060203d6020116107e2576107d48183613e1f565b8661336d565b5060808511612ff7565b34610232576000366003190112610232576001546040516001600160a01b039091168152602090f35b346102325760208060031936011261023257600435600052600a6020526040600020906040519081602084549182815201936000526020600020916000905b82821061341b576102998561028d81890382613e1f565b83546001600160a01b031686529485019460019384019390910190613404565b3461023257604036600319011261023257602435600435600052600a602052604060002080548210156102325760209161347491613d3b565b905460405160039290921b1c6001600160a01b03168152f35b3461023257600036600319011261023257602060405161251c8152f35b60e0366003190112610232576004356001600160401b038111610232576134d5903690600401613cb2565b906134de613cdf565b6134e6613cf5565b906134ef613c92565b9360ff60a43516938460a435036102325760c4356001600160401b0381116102325761351f903690600401613d0b565b90953415610899578315801561379c575b61087d5760ff881660078111610c735750426001600160401b0386161115610c52576001600160401b0386166001600160401b038616811115610c3a575015610c21578015610c2157613584600254613ff3565b958660025586600052600360205261362a600660406000206001600160601b0360a01b33818354161782556001820181815416905560028201818154169055600382019081541690556084356004820155346005820155016001600160401b0387166001600160401b03198254161781556135ff8882614002565b805460ff60981b60a43560981b1663ffffffff60801b1990911660ff60801b60808d901b1617179055565b600860205260406000206001600160401b0385116107425761364c8154613dae565b601f8111613754575b50846000601f82116001146136ee576000916136e3575b508560011b906000198760031b1c19161790555b60005b8281106136bb5760208860008b826000805160206146fb8339815191528c8c6106648d8d604051948594339934906084359088614093565b60019088600052600a6020526136dd6040600020610b60610b5b84888861404e565b01613683565b90508401358a61366c565b60008381526020812092508790601f198216905b81811061373957501061371f575b5050600185811b019055613680565b850135600019600388901b60f8161c191690558980613710565b8884013585556001909401936020938401938a935001613702565b816000526020600020601f870160051c81019160208810613792575b601f0160051c01905b8181106137865750613655565b60008155600101613779565b9091508190613770565b5060808411613530565b346102325760803660031901126102325760043560249081359060ff8216809203610232576001600160a01b0360443581811690819003610232576137e9613c92565b916137f2614106565b80600054163303613a155784158015613a0b575b6139f35783600052600360205260406000209080825416156139db5784600052600960205260406000209081549760ff8916986138428a613f59565b6001809a036139c45760ff19908116600217845560ff906138628a613f59565b89600486019161387182613f59565b8254610100600160a81b0319911691909117163360081b610100600160a81b03161781556005850180546001600160a81b031916881789841660a01b17905554166138bb81613f59565b808a0361397757506005840154906109c491828102928184041490151715613963575091600360ff9695949261271061390595048061394e575b50825460081c169101549161429c565b60405194855260208501521660408301527f16ac9886e5b0094ac0abf20d4f19d8a2a31c2456166cd7c395440ae51d459fc760603393a36000805160206146db83398151915255005b61395d90828d870154166142d0565b8b6138f5565b634e487b7160e01b60009081526011600452fd5b60ff96959491508061398a600292613f59565b14613998575b505050613905565b611d1b60036139bc9401546139b0818c1c8092613fe6565b938b840154168361429c565b868080613990565b506040516303dc1ed360e31b815260048101889052fd5b60405163ad0e34ad60e01b8152600481018690528790fd5b604051637be0da6560e11b8152600481018690528690fd5b5060028511613806565b60405163c9f546cf60e01b81523360048201528690fd5b34610232576020366003190112610232576001600160a01b03613a4d613c50565b16600052600760205260a06040600020805490600181015490600281015460046003830154920154926040519485526020850152604084015260608301526080820152f35b60208060031936011261023257600435613aaa614106565b613ab381614136565b6001600160401b03600682015416421015613c3757613ad23383614173565b613c18578160005260048352604060002033600052835260406000209060ff825416613bf95760038101546001600160a01b031680613bc257506004810154803403613ba457506004905b600160ff198454161783550190600182549101558160005260068352613b47336040600020613f79565b3360005260078352604060002090815460018101809111610fea577f90afab7a4a35c58c10d948e8cfc1ea940127bcaa4ba7b925ef29f471547480b0925554926040519384523393a360016000805160206146db83398151915255005b60449060405190630cf4985560e11b82526004820152346024820152fd5b9034613be157613bdc6004928383015490309033906141ce565b613b1d565b6040516365a3862560e11b8152346004820152602490fd5b604051637bab3ccf60e11b815260048101849052336024820152604490fd5b60405163d5fa645b60e01b815260048101839052336024820152604490fd5b60405163bfb22adf60e01b815260048101839052602490fd5b600435906001600160a01b038216820361023257565b606435906001600160a01b038216820361023257565b602435906001600160a01b038216820361023257565b6064359060ff8216820361023257565b6084359060ff8216820361023257565b9181601f84011215610232578235916001600160401b038311610232576020838186019501011161023257565b602435906001600160401b038216820361023257565b604435906001600160401b038216820361023257565b9181601f84011215610232578235916001600160401b038311610232576020808501948460051b01011161023257565b8054821015613d535760005260206000200190600090565b634e487b7160e01b600052603260045260246000fd5b602090602060408183019282815285518094520193019160005b828110613d91575050505090565b83516001600160a01b031685529381019392810192600101613d83565b90600182811c92168015613dde575b6020831014613dc857565b634e487b7160e01b600052602260045260246000fd5b91607f1691613dbd565b61018081019081106001600160401b0382111761074257604052565b608081019081106001600160401b0382111761074257604052565b90601f801991011681019081106001600160401b0382111761074257604052565b90604051918260008254613e5381613dae565b90818452602094600191600181169081600014613ec35750600114613e84575b505050613e8292500383613e1f565b565b600090815285812095935091905b818310613eab575050613e829350820101388080613e73565b85548884018501529485019487945091830191613e92565b92505050613e8294925060ff191682840152151560051b820101388080613e73565b919082519283825260005b848110613f11575050826000602080949584010152601f8019910116010190565b602081830181015184830182015201613ef0565b606090600319011261023257600435906024356001600160a01b0381168103610232579060443560ff811681036102325790565b60031115613f6357565b634e487b7160e01b600052602160045260246000fd5b80546801000000000000000081101561074257613f9b91600182018155613d3b565b60018060a09493941b038084549260031b9316831b921b1916179055565b91908201809211610fea57565b8115613fd0570490565b634e487b7160e01b600052601260045260246000fd5b91908203918211610fea57565b6000198114610fea5760010190565b9067ffffffffffffffff60401b82549160401b169067ffffffffffffffff60401b1916179055565b9061403481613f59565b815460ff60901b191660909190911b60ff60901b16179055565b9190811015613d535760051b0190565b356001600160a01b03811681036102325790565b908060209392818452848401376000828201840152601f01601f1916010190565b9260c0949260ff6140d0999793168552602085015260408401526001600160401b0380921660608401521660808201528160a08201520191614072565b90565b9081602091031261023257516001600160a01b03811681036102325790565b8051821015613d535760209160051b010190565b6000805160206146db83398151915260028154146141245760029055565b604051633ee5aeb560e01b8152600490fd5b60008181526003602052604090208054909291906001600160a01b031615610dac5760ff600684015460901c1661416c81613f59565b610d945750565b806000526003602052604060002060ff600682015460981c161561419c5750906140d091614509565b600101546001600160a01b03928316921691909114919050565b90816020910312610232575180151581036102325790565b919290928115614296576040516323b872dd60e01b81526001600160a01b0385811660048301528281166024830152604482018490526020908290606490829060009089165af19081156107e957600091614267575b50156142305750505050565b60405163abae3d6d60e01b81526001600160a01b039384166004820152938316602485015290911660448301526064820152608490fd5b614289915060203d60201161428f575b6142818183613e1f565b8101906141b6565b38614224565b503d614277565b50505050565b91909181156142cb57600301546001600160a01b031691826142c257613e829250614617565b613e8292614565565b505050565b6001546001600160a01b0390811692600092909184156143fb57843b156143f75783809160a4604094855194859384926333c59f7160e11b845216998a6004840152886024840152606060448401526014606484015273524541535349474e5f4f525f414253454e54454560601b60848401525af190816143c8575b50916080917fad2fd1f905d4dbfe457e8282ae383d3d7fe509025f15eb5c8302100b8500517493156000146143a45780600c91519283528060208401528201526b14d31054d217d1905253115160a21b6060820152a3565b80600791519283528060208401528201526614d31054d2115160ca1b6060820152a3565b6001600160401b0381959295116143e357825292608061434c565b634e487b7160e01b82526041600452602482fd5b8380fd5b60809194507fad2fd1f905d4dbfe457e8282ae383d3d7fe509025f15eb5c8302100b8500517492506040519484865260406020870152600b60408701526a4e4f5f524547495354525960a81b60608701521693a3565b6001600160a01b031660009081526007602052604081206001818101805492959394918301939284106144f55783905561449060028601918254613fb9565b90556144a460ff6003860192168254613fb9565b9055825491826144b45750505050565b612710918281029281840414901517156144e157506004916144d591613fc6565b91015538808080614296565b634e487b7160e01b81526011600452602490fd5b634e487b7160e01b85526011600452602485fd5b600052600a6020526040600020906000918054925b83811061452e5750505050600090565b6145388183613d3b565b905460039190911b1c6001600160a01b039081169084161461455c5760010161451e565b50505050600190565b909180156142cb5760405163a9059cbb60e01b81526001600160a01b0384166004820152602481018290526020818060448101038160006001600160a01b0388165af19081156107e9576000916145f8575b50156145c257505050565b60405163abae3d6d60e01b81526001600160a01b0392831660048201523060248201529290911660448301526064820152608490fd5b614611915060203d60201161428f576142818183613e1f565b386145b7565b81156146b657600080808080866001600160a01b0387165af1903d156146b0573d906001600160401b03821161469c576040519161465f601f8201601f191660200184613e1f565b825260203d92013e5b15614671575050565b604051630e21dcbb60e11b81526001600160a01b039190911660048201526024810191909152604490fd5b634e487b7160e01b81526041600452602490fd5b50614668565b505056fe6666015e19a4db559a8ecdeefa2294b3a08c142000163f31d17bc2a9ee41bf129b779b17422d0df92223018b32b4d1fa46e071723d6817e2486d003becc55f00fc645ca6639a4d031cdae1422a3a476172339603d259677501ff6caf503f0f24a2646970667358221220e57ab35f29fbed997c4c70571bd1245395e1dbc58d8a162f0ce18c18dc5ad2c164736f6c63430008180033","linkReferences":{}},"methodIdentifiers":{"BPS_DENOMINATOR()":"e1a45218","CHALLENGER_BOND_BPS()":"37f55559","CHALLENGER_BOUNTY_BPS()":"fc65a392","DISPUTE_WINDOW()":"f585dc57","JUDGE_FEE_BPS()":"5307a3f6","JUDGE_SLASH_BPS()":"ae43525e","MAX_REF_LEN()":"9e9d8684","MIN_SCORE()":"40b89270","PREVRANDAO_MAX_REWARD()":"58cb7507","PROTOCOL_FEE_BPS()":"be378228","REASSIGN_WINDOW()":"9eabcbad","WINNER_PAYOUT_BPS()":"12a453bf","applications(uint256,address)":"66852374","apply_for_task(uint256)":"00d76a70","cancel_task(uint256)":"40047267","claim_expired(uint256)":"4a51b2a2","claim_stake(uint256)":"ce357421","disputeResolver()":"f5a3f4af","dispute_task(uint256,bytes32)":"37536c90","disputes(uint256)":"564a565d","force_refund(uint256)":"89bd0f99","get_applicants(uint256)":"f860e283","get_reputation(address)":"912faa28","get_submission(uint256,address)":"5edeeac0","get_task_judge_pool(uint256)":"23bb65ba","hasJudged(uint256)":"5de1dffa","judgeRegistry()":"2870bcb2","judge_and_pay(uint256,address,uint8)":"3e4aa148","judgements(uint256,address)":"3312e201","post_task(string,uint64,uint64,address,uint8,uint256)":"2a340685","post_task_erc20(string,uint64,uint64,address,uint8,uint256,address,uint256)":"ef46a758","post_task_erc20_quorum(string,uint64,uint64,uint8,uint256,address,uint256,uint8,address[])":"d8773f09","post_task_quorum(string,uint64,uint64,uint8,uint256,uint8,address[])":"0ba147e7","reassign_judge(uint256)":"a0559d04","reputations(address)":"06fa15a7","resolve_dispute(uint256,uint8,address,uint8)":"07160a31","setDisputeResolver(address)":"924e63f6","setJudgeRegistry(address)":"7336fb61","settle_with_quorum(uint256)":"36e1a793","submit_judgement(uint256,address,uint8)":"3e79c701","submit_result(uint256,string,string)":"2daa6100","taskCount()":"b6cb58a5","taskEvalRef(uint256)":"3abae387","taskJudgePool(uint256,uint256)":"1751a6f0","tasks(uint256)":"8d977672","treasury()":"61d027b3"},"id":8}