{"abi":[{"type":"constructor","inputs":[{"name":"initialOwner","type":"address","internalType":"address"}],"stateMutability":"nonpayable"},{"type":"function","name":"arena","inputs":[],"outputs":[{"name":"","type":"address","internalType":"address"}],"stateMutability":"view"},{"type":"function","name":"getJudgesByCategory","inputs":[{"name":"category","type":"uint8","internalType":"uint8"}],"outputs":[{"name":"","type":"address[]","internalType":"address[]"}],"stateMutability":"view"},{"type":"function","name":"isEligibleForCategory","inputs":[{"name":"judge","type":"address","internalType":"address"},{"name":"category","type":"uint8","internalType":"uint8"}],"outputs":[{"name":"","type":"bool","internalType":"bool"}],"stateMutability":"view"},{"type":"function","name":"owner","inputs":[],"outputs":[{"name":"","type":"address","internalType":"address"}],"stateMutability":"view"},{"type":"function","name":"register","inputs":[{"name":"category","type":"uint8","internalType":"uint8"}],"outputs":[],"stateMutability":"nonpayable"},{"type":"function","name":"registrations","inputs":[{"name":"","type":"address","internalType":"address"},{"name":"","type":"uint8","internalType":"uint8"}],"outputs":[{"name":"","type":"bool","internalType":"bool"}],"stateMutability":"view"},{"type":"function","name":"renounceOwnership","inputs":[],"outputs":[],"stateMutability":"nonpayable"},{"type":"function","name":"selectJudge","inputs":[{"name":"category","type":"uint8","internalType":"uint8"},{"name":"randomness","type":"uint256","internalType":"uint256"}],"outputs":[{"name":"judge","type":"address","internalType":"address"}],"stateMutability":"view"},{"type":"function","name":"selectJudgePool","inputs":[{"name":"category","type":"uint8","internalType":"uint8"},{"name":"randomness","type":"uint256","internalType":"uint256"},{"name":"config","type":"tuple","internalType":"struct JudgeRegistry.JudgePoolConfig","components":[{"name":"poolSize","type":"uint8","internalType":"uint8"},{"name":"quorum","type":"uint8","internalType":"uint8"},{"name":"category","type":"uint8","internalType":"uint8"}]}],"outputs":[{"name":"judges","type":"address[]","internalType":"address[]"}],"stateMutability":"view"},{"type":"function","name":"setArena","inputs":[{"name":"arena_","type":"address","internalType":"address"}],"outputs":[],"stateMutability":"nonpayable"},{"type":"function","name":"slash","inputs":[{"name":"judge","type":"address","internalType":"address"},{"name":"amount","type":"uint256","internalType":"uint256"},{"name":"reason","type":"string","internalType":"string"}],"outputs":[],"stateMutability":"nonpayable"},{"type":"function","name":"totalSlashed","inputs":[{"name":"","type":"address","internalType":"address"}],"outputs":[{"name":"","type":"uint256","internalType":"uint256"}],"stateMutability":"view"},{"type":"function","name":"transferOwnership","inputs":[{"name":"newOwner","type":"address","internalType":"address"}],"outputs":[],"stateMutability":"nonpayable"},{"type":"function","name":"unregister","inputs":[{"name":"category","type":"uint8","internalType":"uint8"}],"outputs":[],"stateMutability":"nonpayable"},{"type":"event","name":"ArenaSet","inputs":[{"name":"arena","type":"address","indexed":true,"internalType":"address"}],"anonymous":false},{"type":"event","name":"JudgeRegistered","inputs":[{"name":"judge","type":"address","indexed":true,"internalType":"address"},{"name":"category","type":"uint8","indexed":true,"internalType":"uint8"}],"anonymous":false},{"type":"event","name":"JudgeSlashed","inputs":[{"name":"judge","type":"address","indexed":true,"internalType":"address"},{"name":"amount","type":"uint256","indexed":false,"internalType":"uint256"},{"name":"reason","type":"string","indexed":false,"internalType":"string"}],"anonymous":false},{"type":"event","name":"JudgeUnregistered","inputs":[{"name":"judge","type":"address","indexed":true,"internalType":"address"},{"name":"category","type":"uint8","indexed":true,"internalType":"uint8"}],"anonymous":false},{"type":"event","name":"OwnershipTransferred","inputs":[{"name":"previousOwner","type":"address","indexed":true,"internalType":"address"},{"name":"newOwner","type":"address","indexed":true,"internalType":"address"}],"anonymous":false},{"type":"error","name":"AlreadyRegistered","inputs":[{"name":"judge","type":"address","internalType":"address"},{"name":"category","type":"uint8","internalType":"uint8"}]},{"type":"error","name":"InsufficientPool","inputs":[{"name":"requested","type":"uint8","internalType":"uint8"},{"name":"available","type":"uint8","internalType":"uint8"}]},{"type":"error","name":"InvalidCategory","inputs":[{"name":"category","type":"uint8","internalType":"uint8"}]},{"type":"error","name":"InvalidPoolConfig","inputs":[]},{"type":"error","name":"NotRegistered","inputs":[{"name":"judge","type":"address","internalType":"address"},{"name":"category","type":"uint8","internalType":"uint8"}]},{"type":"error","name":"OwnableInvalidOwner","inputs":[{"name":"owner","type":"address","internalType":"address"}]},{"type":"error","name":"OwnableUnauthorizedAccount","inputs":[{"name":"account","type":"address","internalType":"address"}]},{"type":"error","name":"ZeroAmount","inputs":[]}],"bytecode":{"object":"0x6080346100bb57601f610d7538819003918201601f19168301916001600160401b038311848410176100c0578084926020946040528339810103126100bb57516001600160a01b0390818116908190036100bb5780156100a257600080546001600160a01b03198116831782556040519316907f8be0079c531659141344cd1fd0a4f28419497f9722a3daafe3b4186f6b6457e09080a3610c9e90816100d78239f35b604051631e4fbdf760e01b815260006004820152602490fd5b600080fd5b634e487b7160e01b600052604160045260246000fdfe608060408181526004918236101561001657600080fd5b600092833560e01c918263074614f1146109e457508163191c9072146107ca5781631bd5ff281461076257816323d2f5f61461058657816330f924391461054e5781634c6fbc25146104c557816361d689fa14610380578163678b3ee214610249578163715018a6146101ec57816381e1c6ca146101755781638da5cb5b146101c45781639e381e1b14610175578163f2fde38b146100ea575063fd3705f9146100bf57600080fd5b346100e657816003193601126100e65760025490516001600160a01b039091168152602090f35b5080fd5b90503461017157602036600319011261017157610105610b06565b9061010e610c3c565b6001600160a01b0391821692831561015b57505082546001600160a01b0319811683178455167f8be0079c531659141344cd1fd0a4f28419497f9722a3daafe3b4186f6b6457e08380a380f35b51631e4fbdf760e01b8152908101849052602490fd5b8280fd5b5050346100e657806003193601126100e65760ff81602093610195610b06565b61019d610ab1565b6001600160a01b039091168252600186528282209084168252855220549151911615158152f35b5050346100e657816003193601126100e657905490516001600160a01b039091168152602090f35b8334610246578060031936011261024657610205610c3c565b80546001600160a01b03198116825581906001600160a01b03167f8be0079c531659141344cd1fd0a4f28419497f9722a3daafe3b4186f6b6457e08280a380f35b80fd5b8383346100e65760603660031901126100e657610264610b06565b906024356044359267ffffffffffffffff9081851161037c573660238601121561037c578487013591821161037c57366024838701011161037c5785546001600160a01b03919082163314158061036e575b6103585783156103485716938486526005602052838620805490848201809211610335579260247f09efceaa07cf64b1ca092fbc0ac25e347f17ff67d5e8d130ed8cf608f70508a1969593829360609655828751978896875280602088015286015201848401378181018301879052601f01601f19168101030190a280f35b634e487b7160e01b885260118952602488fd5b8451631f2a200560e01b81528890fd5b845163118cdaa760e01b815233818a0152602490fd5b5081600254163314156102b6565b8580fd5b90503461017157602091826003193601126104c15761039d610a9c565b9260ff841693600785116104aa5733865260018252828620858752825260ff83872054166104835750338552600181528185208486528152818520600160ff198254161790556003815281852080549068010000000000000000821015610470578161041191600161042f94018155610b90565b81546001600160a01b0360039290921b91821b19163390911b179055565b83855260038152818520549281528185209033865252832055337feb4c0cb7eb979ca9d71a51b61aacf60f9d192662a18b4dd31fb4651cb031beab8380a380f35b634e487b7160e01b875260418552602487fd5b8251632fa4c0d960e11b81523381860190815260ff90921660208301529081906040010390fd5b825163e4e866a960e01b8152808501869052602490fd5b8380fd5b5050346100e65760209060206003193601126101715760ff6104e5610a9c565b168352600360205280832092815180936020865492838152019583526020832092905b82821061052e5761052a8686610520828b0383610b4e565b5191829182610ac1565b0390f35b83546001600160a01b031687529586019560019384019390910190610508565b5050346100e65760203660031901126100e65760209181906001600160a01b03610576610b06565b1681526005845220549051908152f35b91905034610171576020806003193601126104c1576105a3610a9c565b9260ff8416936007851161074b5733865260018352838620858752835260ff848720541615610724575083855280825282852033865282528285205484865260038352838620805480830361068e575b505050838552600382528285208054801561067b5760001901906106178282610b90565b81549060018060a01b039060031b1b1916905555838552815281842033855281528382812055600181528184209083855252822060ff198154169055337fc985ffac547835ed1c4801717ae135da9dd3e07e51f48d879dc211e76d6e3c248380a380f35b634e487b7160e01b875260318352602487fd5b6000199181830191821161071157906106a691610b90565b90548789526003808752878a2092901b1c6001600160a01b031691830190838211610711576106d96106f7928492610b90565b90919060018060a01b038084549260031b9316831b921b1916179055565b8587528284528487209087528352838620553880806105f3565b634e487b7160e01b895260118552602489fd5b8351632107413760e11b81523392810192835260ff90911660208301529081906040010390fd5b835163e4e866a960e01b8152808301869052602490fd5b83346102465760203660031901126102465761077c610b06565b610784610c3c565b600280546001600160a01b0319166001600160a01b039290921691821790557f09885be45f24b2a2a0f9675186f028fe9d16c549a6cf6d80751089e94541a68a8280a280f35b9050346101715760a0366003190112610171576107e5610a9c565b9160249360606043193601126102465760ff809416600781116109ce578461080b610bbe565b161580156109bd575b80156109a1575b6109925781526003926020936003602052838320908154918761083c610bbe565b1683106109695761084c83610bf6565b91855b84811061093e5750505061086b87610865610bbe565b16610bf6565b84926024355b8961087a610bbe565b16908a8616918210156109315788518a810191825260f887901b6001600160f81b031916818b0152602181526108af81610b1c565b519020916108bd8184610b70565b6001600160a01b03926108dd846108d4848a610c28565b51169187610c28565b5260001982019282841161091f576108f9906108d48589610c28565b521561090d5760018a919501169390610871565b634e487b7160e01b8752601186528a87fd5b634e487b7160e01b8a52601189528d8afd5b88518061052a8682610ac1565b8061094b60019285610b90565b838060a01b03915490851b1c166109628287610c28565b520161084f565b60448689858782610978610bbe565b945163279c225760e01b8152941690840152166024820152fd5b505051634d4a4b9160e11b8152fd5b506109aa610bce565b85806109b4610bbe565b1691161161081b565b50846109c7610bce565b1615610814565b8360249184519163e4e866a960e01b8352820152fd5b84919250346100e657836003193601126100e65760ff610a02610a9c565b169060078211610a89575081526003602052828120918254918215610a6c57602085610a5686610a508784518681019060243582524387820152868152610a4881610b1c565b519020610b70565b90610b90565b60018060a01b0391549060031b1c169051908152f35b60449250600185519263279c225760e01b84528301526024820152fd5b6024918463e4e866a960e01b8352820152fd5b6004359060ff82168203610aac57565b600080fd5b6024359060ff82168203610aac57565b602090602060408183019282815285518094520193019160005b828110610ae9575050505090565b83516001600160a01b031685529381019392810192600101610adb565b600435906001600160a01b0382168203610aac57565b6060810190811067ffffffffffffffff821117610b3857604052565b634e487b7160e01b600052604160045260246000fd5b90601f8019910116810190811067ffffffffffffffff821117610b3857604052565b8115610b7a570690565b634e487b7160e01b600052601260045260246000fd5b8054821015610ba85760005260206000200190600090565b634e487b7160e01b600052603260045260246000fd5b60443560ff81168103610aac5790565b60643560ff81168103610aac5790565b67ffffffffffffffff8111610b385760051b60200190565b90610c0082610bde565b610c0d6040519182610b4e565b8281528092610c1e601f1991610bde565b0190602036910137565b8051821015610ba85760209160051b010190565b6000546001600160a01b03163303610c5057565b60405163118cdaa760e01b8152336004820152602490fdfea26469706673582212207385d901a2409ff6e41de20fca154c962f9e69fd524a5d136b76458a462260e664736f6c63430008180033","linkReferences":{}},"methodIdentifiers":{"arena()":"fd3705f9","getJudgesByCategory(uint8)":"4c6fbc25","isEligibleForCategory(address,uint8)":"9e381e1b","owner()":"8da5cb5b","register(uint8)":"61d689fa","registrations(address,uint8)":"81e1c6ca","renounceOwnership()":"715018a6","selectJudge(uint8,uint256)":"074614f1","selectJudgePool(uint8,uint256,(uint8,uint8,uint8))":"191c9072","setArena(address)":"1bd5ff28","slash(address,uint256,string)":"678b3ee2","totalSlashed(address)":"30f92439","transferOwnership(address)":"f2fde38b","unregister(uint8)":"23d2f5f6"},"id":9}