{"abi":[{"type":"constructor","inputs":[{"name":"signer_","type":"bytes32","internalType":"bytes32"},{"name":"maxAttestationAge_","type":"uint64","internalType":"uint64"}],"stateMutability":"nonpayable"},{"type":"function","name":"MAX_FUTURE_SKEW","inputs":[],"outputs":[{"name":"","type":"uint64","internalType":"uint64"}],"stateMutability":"view"},{"type":"function","name":"SOLANA_CHAIN_HASH","inputs":[],"outputs":[{"name":"","type":"bytes32","internalType":"bytes32"}],"stateMutability":"view"},{"type":"function","name":"ed25519Signer","inputs":[],"outputs":[{"name":"","type":"bytes32","internalType":"bytes32"}],"stateMutability":"view"},{"type":"function","name":"getSnapshot","inputs":[{"name":"agentPubkey","type":"bytes32","internalType":"bytes32"}],"outputs":[{"name":"snapshot","type":"tuple","internalType":"struct ReputationVerifier.ReputationSnapshot","components":[{"name":"globalScore","type":"uint16","internalType":"uint16"},{"name":"categoryScores","type":"uint16[8]","internalType":"uint16[8]"},{"name":"sourceChain","type":"bytes32","internalType":"bytes32"},{"name":"timestamp","type":"uint64","internalType":"uint64"},{"name":"signerPubkey","type":"bytes32","internalType":"bytes32"}]},{"name":"exists","type":"bool","internalType":"bool"}],"stateMutability":"view"},{"type":"function","name":"maxAttestationAge","inputs":[],"outputs":[{"name":"","type":"uint64","internalType":"uint64"}],"stateMutability":"view"},{"type":"function","name":"owner","inputs":[],"outputs":[{"name":"","type":"address","internalType":"address"}],"stateMutability":"view"},{"type":"function","name":"setEd25519Signer","inputs":[{"name":"signer_","type":"bytes32","internalType":"bytes32"}],"outputs":[],"stateMutability":"nonpayable"},{"type":"function","name":"setMaxAttestationAge","inputs":[{"name":"maxAttestationAge_","type":"uint64","internalType":"uint64"}],"outputs":[],"stateMutability":"nonpayable"},{"type":"function","name":"submitReputation","inputs":[{"name":"payload","type":"tuple","internalType":"struct ReputationVerifier.ReputationPayload","components":[{"name":"agentPubkey","type":"bytes32","internalType":"bytes32"},{"name":"globalScore","type":"uint16","internalType":"uint16"},{"name":"categoryScores","type":"uint16[8]","internalType":"uint16[8]"},{"name":"sourceChain","type":"bytes32","internalType":"bytes32"},{"name":"timestamp","type":"uint64","internalType":"uint64"}]},{"name":"signatureR","type":"bytes32","internalType":"bytes32"},{"name":"signatureS","type":"bytes32","internalType":"bytes32"}],"outputs":[{"name":"","type":"bool","internalType":"bool"}],"stateMutability":"nonpayable"},{"type":"function","name":"transferOwnership","inputs":[{"name":"newOwner","type":"address","internalType":"address"}],"outputs":[],"stateMutability":"nonpayable"},{"type":"function","name":"verifyReputation","inputs":[{"name":"payload","type":"tuple","internalType":"struct ReputationVerifier.ReputationPayload","components":[{"name":"agentPubkey","type":"bytes32","internalType":"bytes32"},{"name":"globalScore","type":"uint16","internalType":"uint16"},{"name":"categoryScores","type":"uint16[8]","internalType":"uint16[8]"},{"name":"sourceChain","type":"bytes32","internalType":"bytes32"},{"name":"timestamp","type":"uint64","internalType":"uint64"}]},{"name":"signatureR","type":"bytes32","internalType":"bytes32"},{"name":"signatureS","type":"bytes32","internalType":"bytes32"}],"outputs":[{"name":"","type":"bool","internalType":"bool"}],"stateMutability":"view"},{"type":"event","name":"Ed25519SignerUpdated","inputs":[{"name":"previousSigner","type":"bytes32","indexed":true,"internalType":"bytes32"},{"name":"newSigner","type":"bytes32","indexed":true,"internalType":"bytes32"}],"anonymous":false},{"type":"event","name":"MaxAttestationAgeUpdated","inputs":[{"name":"previousValue","type":"uint64","indexed":false,"internalType":"uint64"},{"name":"newValue","type":"uint64","indexed":false,"internalType":"uint64"}],"anonymous":false},{"type":"event","name":"OwnershipTransferred","inputs":[{"name":"previousOwner","type":"address","indexed":true,"internalType":"address"},{"name":"newOwner","type":"address","indexed":true,"internalType":"address"}],"anonymous":false},{"type":"event","name":"ReputationStored","inputs":[{"name":"agentPubkey","type":"bytes32","indexed":true,"internalType":"bytes32"},{"name":"globalScore","type":"uint16","indexed":false,"internalType":"uint16"},{"name":"timestamp","type":"uint64","indexed":false,"internalType":"uint64"}],"anonymous":false}],"bytecode":{"object":"0x60806040523480156200001157600080fd5b5060405162003f1938038062003f198339810160408190526200003491620000c5565b816200005d5760405162461bcd60e51b8152600401620000549062000102565b60405180910390fd5b60008054336001600160a01b0319909116811782556001849055600280546001600160401b0319166001600160401b0385161790556040519091907f8be0079c531659141344cd1fd0a4f28419497f9722a3daafe3b4186f6b6457e0908290a350506200012a565b60008060408385031215620000d8578182fd5b825160208401519092506001600160401b0381168114620000f7578182fd5b809150509250929050565b6020808252600e908201526d24a72b20a624a22fa9a4a3a722a960911b604082015260600190565b613ddf806200013a6000396000f3fe608060405234801561001057600080fd5b50600436106100a95760003560e01c80638a21aa44116100715780638a21aa44146101375780638da5cb5b1461013f578063ac4d081b14610154578063e37e71d414610167578063f2fde38b1461017a578063fb7e56801461018d576100a9565b806310d8f901146100ae57806315db04fc146100d85780632dd146fd146100ed5780634b29fc3d146101025780635cb62e1414610117575b600080fd5b6100c16100bc3660046138ca565b610195565b6040516100cf929190613bea565b60405180910390f35b6100e061025e565b6040516100cf9190613c82565b6100f5610264565b6040516100cf9190613a62565b6101156101103660046138ca565b610288565b005b61012a6101253660046138e2565b610311565b6040516100cf9190613a57565b6100e0610541565b610147610550565b6040516100cf9190613a43565b61012a6101623660046138e2565b61055f565b6101156101753660046139ee565b6105fe565b6101156101883660046138a3565b610688565b6100f5610733565b61019d61365f565b60008281526003602090815260408083206004835281842054825160a081018452825461ffff1681528351610100810194859052929460ff90921693909285928401916001840190600890828a855b82829054906101000a900461ffff1661ffff16815260200190600201906020826001010492830192600103820291508084116101ec575050509284525050506002820154602082015260038201546001600160401b031660408201526004909101546060909101529590945092505050565b61025881565b7f6eef29ebb03aa2144a1a6b6212ce74f504a34db799b8161a21140017e80d3d8a81565b6000546001600160a01b031633146102bb5760405162461bcd60e51b81526004016102b290613b3b565b60405180910390fd5b806102d85760405162461bcd60e51b81526004016102b290613b99565b6001805490829055604051829082907fc002efcdc9a7ea92242fd32570639eb5c51d6f5bdc0c3bbf848d32cedb6662ae90600090a35050565b600061031b613698565b61032a3686900386018661391d565b905061033581610739565b6103515760405162461bcd60e51b81526004016102b290613bc1565b6060853561036560408801602089016139d2565b604088016101408901356103816101808b016101608c016139ee565b604051602001610395959493929190613a6b565b60405160208183030381529060405290506103b4600154868684610811565b6103d05760405162461bcd60e51b81526004016102b290613b10565b8535600090815260036020908152604080832060049092529091205460ff161561043a5760038101546001600160401b031661041461018089016101608a016139ee565b6001600160401b03161161043a5760405162461bcd60e51b81526004016102b290613ad9565b61044a60408801602089016139d2565b815461ffff191661ffff9190911617815561046d600182016040890160086136cb565b50610140870135600282015561048b610180880161016089016139ee565b60038201805467ffffffffffffffff19166001600160401b039290921691909117905560018054600480840191909155883560008181526020928352604090819020805460ff1916909417909355917f3fb84ecdf7d22e2df9715637811b7aec92b16aa18f775bf24ced34da9c65f2a79161050a918b01908b016139d2565b61051c6101808b016101608c016139ee565b60405161052a929190613c65565b60405180910390a2600193505050505b9392505050565b6002546001600160401b031681565b6000546001600160a01b031681565b6000610569613698565b6105783686900386018661391d565b905061058381610739565b61059157600091505061053a565b606085356105a560408801602089016139d2565b604088016101408901356105c16101808b016101608c016139ee565b6040516020016105d5959493929190613a6b565b60405160208183030381529060405290506105f4600154868684610811565b9695505050505050565b6000546001600160a01b031633146106285760405162461bcd60e51b81526004016102b290613b3b565b600280546001600160401b0383811667ffffffffffffffff198316179092556040519116907f2811782c5907c6d4a3c7af5c69fdc3386edf543a30004e72697431e765ed91ef9061067c9083908590613c96565b60405180910390a15050565b6000546001600160a01b031633146106b25760405162461bcd60e51b81526004016102b290613b3b565b6001600160a01b0381166106d85760405162461bcd60e51b81526004016102b290613b72565b600080546040516001600160a01b03808516939216917f8be0079c531659141344cd1fd0a4f28419497f9722a3daafe3b4186f6b6457e091a3600080546001600160a01b0319166001600160a01b0392909216919091179055565b60015481565b606081015160009042907f6eef29ebb03aa2144a1a6b6212ce74f504a34db799b8161a21140017e80d3d8a1461077357600091505061080c565b60808301516001600160401b031661078f57600091505061080c565b60808301516001600160401b0316610258610258198311156107b7576000935050505061080c565b8083018211156107cd576000935050505061080c565b6002546001600160401b031680158015906107e757508084115b156108035780840383101561080357600094505050505061080c565b60019450505050505b919050565b805160009081906060906040016001600160401b038111801561083357600080fd5b506040519080825280601f01601f19166020018201604052801561085e576020820181803683370190505b50905060005b60208110156108a85786816020811061087957fe5b1a60f81b82828151811061088957fe5b60200101906001600160f81b031916908160001a905350600101610864565b5060005b60208110156108f3578781602081106108c157fe5b1a60f81b8282602001815181106108d457fe5b60200101906001600160f81b031916908160001a9053506001016108ac565b5060005b84518110156109455784818151811061090c57fe5b602001015160f81c60f81b82826040018151811061092657fe5b60200101906001600160f81b031916908160001a9053506001016108f7565b5061094e613765565b61095782611dd0565b9050600060c082600360200201516001600160401b0316901b608083600260200201516001600160401b0316901b604084600160200201516001600160401b0316901b84600060200201516001600160401b03161717179050600881600080516020613d6a83398151915216901c600882600080516020613d4a83398151915216901b179050601081600080516020613d2a83398151915216901c601082600080516020613cea83398151915216901b179050602081600080516020613d0a83398151915216901c602082600080516020613d8a83398151915216901b179050600060c083600760088110610a4857fe5b60200201516001600160401b0316901b608084600660200201516001600160401b0316901b604085600560200201516001600160401b0316901b85600460200201516001600160401b03161717179050600881600080516020613d6a83398151915216901c600882600080516020613d4a83398151915216901b179050601081600080516020613d2a83398151915216901c601082600080516020613cea83398151915216901b179050602081600080516020613d0a83398151915216901c602082600080516020613d8a83398151915216901b1790506f14def9dea2f79cd65812631a5cf5d3ed600160fc1b0180610b3d57fe5b6f14def9dea2f79cd65812631a5cf5d3ed600160fc1b017f0ffffffffffffffffffffffffffffffec6ef5bf4737dcf70d6ec31748d98951d8309830860088b811b600080516020613d6a83398151915216600080516020613d4a8339815191529c90911c9b909b169a909a17601081811b600080516020613d2a83398151915216600080516020613cea8339815191529290911c9190911617602081811b600080516020613d0a83398151915216600080516020613d8a8339815191529290911c9190911617604081811b77ffffffffffffffff0000000000000000ffffffffffffffff191677ffffffffffffffff0000000000000000ffffffffffffffff9290911c9190911617608081811b91901c17999450506001600160ff1b0389169250600091508190506013600160ff1b03838409905060006013600160ff1b036014600160ff1b038308905060006013600160ff1b037f52036cee2b6ffe738cc740797779e89800700a4d4141d8ab75eb4dca135978a38409600101905060006013600160ff1b038284099050610cd281612619565b5094506013600160ff1b0385860994506013600160ff1b0380826013600160ff1b0388890909840994506013600160ff1b03826013600160ff1b03878809099050828114610d6857826013600160ff1b03038114610d3a576000975050505050505050611dc8565b6013600160ff1b037f2b8324804fc1df0b2b4d00993dfbd7a72f431806ad2fe478c4ee1b274a0ea0b0860994505b5050505060ff88901c6001821614610d84576013600160ff1b03035b600886811b600080516020613d6a83398151915216600080516020613d4a8339815191529790911c9690961695909517601081811b600080516020613d2a83398151915216600080516020613cea8339815191529290911c9190911617602081811b600080516020613d0a83398151915216600080516020613d8a8339815191529290911c9190911617604081811b77ffffffffffffffff0000000000000000ffffffffffffffff191677ffffffffffffffff0000000000000000ffffffffffffffff9290911c9190911617608081811b91901c17946f14def9dea2f79cd65812631a5cf5d3ed600160fc1b018610610e835760009350505050611dc8565b600080600080610e91613784565b8587016013600160ff1b038789038101906000907f2406d9dc56dffce7198e80f2eef3d13000e0149a8283b156ebd69b9426b2f1596013600160ff1b038c8c09099050898960018060006013600160ff1b03828509905060006013600160ff1b03848709905060006013600160ff1b03848609905060006013600160ff1b03848509905060006013600160ff1b03848509905060006013600160ff1b03858709905060006013600160ff1b03858609905081820199508383036013600160ff1b030198508284019a506013600160ff1b0380610f6957fe5b89602519038283010897505050505050505060006013600160ff1b0380610f8c57fe5b828509905060006013600160ff1b03848709905060006013600160ff1b03848609905060006013600160ff1b03848509905060006013600160ff1b03848509905060006013600160ff1b03858709905060006013600160ff1b03858609905081820199508383036013600160ff1b030198508284019a506013600160ff1b038061101257fe5b89602519038283010897505050505050505060006013600160ff1b038061103557fe5b828509905060006013600160ff1b03848709905060006013600160ff1b03848609905060006013600160ff1b03848509905060006013600160ff1b03848509905060006013600160ff1b03858709905060006013600160ff1b03858609905081820199508383036013600160ff1b030198508284019a506013600160ff1b03806110bb57fe5b8960251903828301089750505050505050506000600190506110db613784565b508860005b6000808080806013600160ff1b03898c09905060006013600160ff1b038b8e09905060006013600160ff1b038b8d0990506013600160ff1b038e8e0960208a0151518484019850939092036013600160ff1b03019550909350800191508490866008811061114a57fe5b602002015282866001602002015160016020020151866008811061116a57fe5b60200201526013600160ff1b037f2406d9dc56dffce7198e80f2eef3d13000e0149a8283b156ebd69b9426b2f159830960208701516040015186600881106111ae57fe5b6020020152855151819086600881106111c357fe5b60200201528686600060200201516001602002015186600881106111e357fe5b60200201526013600160ff1b03818809965084600714156112075750505050611284565b60006013600160ff1b038f8609905060006013600160ff1b038f8609905060006013600160ff1b038f860990508183036013600160ff1b03019c506013600160ff1b038061125157fe5b8185088383019e509b506013600160ff1b03816013600160ff1b030385089a5050600190960195506110e0945050505050565b50600061129083612619565b90935090506013600160ff1b0383840992506013600160ff1b0383840992506013600160ff1b0383840992506013600160ff1b0383840992506013600160ff1b0383840992506013600160ff1b03818409925060075b8251602001516000906013600160ff1b0390836008811061130357fe5b602002015186096020850151519091506013600160ff1b03908290846008811061132957fe5b602002015109602085015151836008811061134057fe5b60200201526013600160ff1b0381856001602002015160016020020151846008811061136857fe5b6020020151096020808601510151836008811061138157fe5b60200201526013600160ff1b038185600160200201516002602002015184600881106113a957fe5b60200201510960208501516040015183600881106113c357fe5b6020020152816113d357506113fd565b8351516013600160ff1b039083600881106113ea57fe5b60200201518609945050600019016112e6565b5060405180606001604052806040518061010001604052807f43e7ce9d19ea5d329385a44c321ea16167c996e37dc6070c97de49e37ac61db981526020017f40cff34425d8ec30a3bb74ba58cd5854fa1e38186ad0d31ebc8ae251ceb2c97e81526020017f459bd27046e8dd45aea7008db87a5a8f7906779253d64523589518599fdfbf4b81526020017f69fdd1e28c23cc3894d0c8ff90e76f6d5b6e4c2e620136d04dd83c4a51581ab981526020017f54dceb3413ce5cfa11196dfc960b6edaf4b380c6d4d2378419cc0279ba49c5f381526020017f4e24184dd71a3d77eef3729f7f8cf7c17224cf40aa7b9548b9942f3c5084ceed81526020017f5a0e5aab20262674ae1175761cbf5e889b52a55fd7ac5027c228cebdc8d2360a81526020017f26239334073e9b38c62859556d451c3dcc8d30e84b361174f488eadde2cf17d981525081526020016040518061010001604052807f227e97c94c7c0933d2e0c21a3447c504fe9ccf82e8a05f59ce881c82eba0489f81526020017f226a3e0ecc4afec6fd0d288413014a9dbddecf06c1a2f0bb702ba77c613d820981526020017f34d7efc851d45c5e71efeb0f235b794691de6228877569b3a8d52bf058b8a4a081526020017f3c1f5fb3ca7166fce1471c9b752b6d28c56301ad7b65e8451b2c8c5526726e1281526020017f6102416cf02f02ff5be75275f55f28db89b2a9d2456b860ce22fc0e5031f7cc581526020017f40adf677f1bfdae057f0fd179c12617918ddaa2891a6530fb1a4294fa866549081526020017f61936f3c415609046187b8baa978cbc9b47893363ae5a3cc7d909f3635ae7f4881526020017f562a9662b6ec47f9e979d473c02b51e4423368238c58ddb52f0e5c6a180e641081525081526020016040518061010001604052807f3788bdb44f8632d42d0dbee5eea1acc6136cf411e655624f55e48902c3bd553481526020017f6190cf2c2a7b5ad769d594a82844f23b4167fa7c8ac30e51aa6cfbebdcd4b94581526020017f65f7787096be9204123a71f3ac88a87be1513217737d6a1e2f3a13a43d7e3a9a81526020017f023af32dbfa67975536479a7a7ce74a02142147fac0480187f1f13349cda1f2d81526020017f64fc44b7fc6841bddb0ced8b8b0fe6759137ef87ee96651215fc1dbcd25c64dc81526020017f1434aa3748b701d5b69df3d7d340c1fe3f6b9c1efc617484caadb47e382f447581526020017f457a6da8c962ef35f2b217423e5844e9d23534527e8ea4290d24e3ddf21720c681526020017f63b9540ceb60ccb51e4d989d956e053cf2511837efb79089d2ff40284202c53d815250815250826000600281106117d157fe5b602002018190525050505050505050505050600060038c60001c901b90506000897f80000000000000000000000000000000a6f7cef517bce6b2c09318d2e7ae9f6001905060008060019050600060019050600060019050600060fc90505b6008811b87811615611955576000808080806013600160ff1b03888c09905060006013600160ff1b038b8b09905081810195508181036013600160ff1b030194506013600160ff1b038061188057fe5b898c0993506013600160ff1b038a8d09925050506000868d901c6007169050866007901b198d169c506118b1613784565b508d51602001518e906000906013600160ff1b039084600881106118d157fe5b602002015187098251519091506000906013600160ff1b039085600881106118f557fe5b602002015189098351604001519091506000906013600160ff1b0390866008811061191c57fe5b6020020151870990508282036013600160ff1b03019e508087019d508282019c508087036013600160ff1b03019b505050505050505050505b86811615611a79576000808080806013600160ff1b03888c09905060006013600160ff1b038b8b09905081810195508181036013600160ff1b030194506013600160ff1b03806119a157fe5b898c0993506013600160ff1b038a8d096007808a1b198f169e91945090891c1691506119cd9050613784565b5060208e0151518e906000906013600160ff1b039084600881106119ed57fe5b6020020151870960208084015101519091506000906013600160ff1b03908560088110611a1657fe5b602002015189096020840151604001519091506000906013600160ff1b03908660088110611a4057fe5b6020020151870990508282036013600160ff1b03019e508087036013600160ff1b03019d508282019c508087019b505050505050505050505b81611b93576000808080806013600160ff1b03888c09905060006013600160ff1b038b8b09905081810195508181036013600160ff1b030194506013600160ff1b0380611ac257fe5b898c0993506013600160ff1b038a8d099250505060078b16611ae2613784565b5060208e0151518e906000906013600160ff1b03908460088110611b0257fe5b6020020151870960208084015101519091506000906013600160ff1b03908560088110611b2b57fe5b602002015189096020840151604001519091506000906013600160ff1b03908660088110611b5557fe5b6020020151870990508282036013600160ff1b03019e508087036013600160ff1b03019d508282019c508087019b5050505050505050505050611c43565b60006013600160ff1b03848809905060006013600160ff1b03878709905060006013600160ff1b03868909905060006013600160ff1b03848509905060006013600160ff1b03848509905060006013600160ff1b03858709905060006013600160ff1b0385860990508182019c508383036013600160ff1b03019b508284019a506013600160ff1b0380611c2357fe5b8c6025190382830108995050600019909701965061183095505050505050565b509299509097509550935060009150819050611c686013600160ff1b03858809612619565b915091506013600160ff1b0380611c7b57fe5b82830991506013600160ff1b0382830991506013600160ff1b0382830991506013600160ff1b0382830991506013600160ff1b0382830991506013600160ff1b0381830991506013600160ff1b0380858409880996506013600160ff1b0380878409860960ff9790971b909617600881811b600080516020613d6a83398151915216600080516020613d4a8339815191529290911c9190911617601081811b600080516020613d2a83398151915216600080516020613cea8339815191529290911c9190911617602081811b600080516020613d0a83398151915216600080516020613d8a8339815191529290911c9190911617604081811b77ffffffffffffffff0000000000000000ffffffffffffffff191677ffffffffffffffff0000000000000000ffffffffffffffff9290911c9190911617608081811b91901c178d1499505050505050505050505b949350505050565b611dd8613765565b611de0613765565b506040805161010081018252676a09e667f3bcc908815267bb67ae8584caa73b6020820152673c6ef372fe94f82b9181019190915267a54ff53a5f1d36f1606082015267510e527fade682d16080820152679b05688c2b3e6c1f60a0820152671f83d9abfb41bd6b60c0820152675be0cd19137e217960e0820152600080611e666137b1565b611e6e6137d0565b611e766137b1565b5060408051610a008101825267428a2f98d728ae228152677137449123ef65cd602082015267b5c0fbcfec4d3b2f9181019190915267e9b5dba58189dbbc606080830191909152673956c25bf348b53860808301526759f111f1b605d01960a083015267923f82a4af194f9b60c083015267ab1c5ed5da6d811860e083015267d807aa98a30302426101008301526712835b0145706fbe61012083015267243185be4ee4b28c61014083015267550c7dc3d5ffb4e26101608301526772be5d74f27b896f6101808301526780deb1fe3b1696b16101a0830152679bdc06a725c712356101c083015267c19bf174cf6926946101e083015267e49b69c19ef14ad261020083015267efbe4786384f25e3610220830152670fc19dc68b8cd5b561024083015267240ca1cc77ac9c65610260830152672de92c6f592b0275610280830152674a7484aa6ea6e4836102a0830152675cb0a9dcbd41fbd46102c08301526776f988da831153b56102e083015267983e5152ee66dfab61030083015267a831c66d2db4321061032083015267b00327c898fb213f61034083015267bf597fc7beef0ee461036083015267c6e00bf33da88fc261038083015267d5a79147930aa7256103a08301526706ca6351e003826f6103c083015267142929670a0e6e706103e08301526727b70a8546d22ffc610400830152672e1b21385c26c926610420830152674d2c6dfc5ac42aed6104408301526753380d139d95b3df61046083015267650a73548baf63de61048083015267766a0abb3c77b2a86104a08301526781c2c92e47edaee66104c08301526792722c851482353b6104e083015267a2bfe8a14cf1036461050083015267a81a664bbc42300161052083015267c24b8b70d0f8979161054083015267c76c51a30654be3061056083015267d192e819d6ef521861058083015267d69906245565a9106105a083015267f40e35855771202a6105c083015267106aa07032bbd1b86105e08301526719a4c116b8d2d0c8610600830152671e376c085141ab53610620830152672748774cdf8eeb996106408301526734b0bcb5e19b48a861066083015267391c0cb3c5c95a63610680830152674ed8aa4ae3418acb6106a0830152675b9cca4f7763e3736106c083015267682e6ff3d6b2b8a36106e083015267748f82ee5defb2fc6107008301526778a5636f43172f606107208301526784c87814a1f0ab72610740830152678cc702081a6439ec6107608301526790befffa23631e2861078083015267a4506cebde82bde96107a083015267bef9a3f7b2c679156107c083015267c67178f2e372532b6107e083015267ca273eceea26619c61080083015267d186b8c721c0c20761082083015267eada7dd6cde0eb1e61084083015267f57d4f7fee6ed1786108608301526706f067aa72176fba610880830152670a637dc5a2c898a66108a083015267113f9804bef90dae6108c0830152671b710b35131c471b6108e08301526728db77f523047d846109008301526732caab7b40c72493610920830152673c9ebe0a15c9bebc61094083015267431d67c49c100d4c610960830152674cc5d4becb3e42b661098083015267597f299cfc657e2a6109a0830152675fcb6fab3ad6faec6109c0830152676c44198c4a4758176109e083015261233689613348565b905060005b608082518161234657fe5b0481101561260b57612356613814565b61236083836134d6565b89516001600160401b0390811687526020808c01518216908801526040808c01518216908801526060808c01518216908801526080808c015182169088015260a0808c015182169088015260c0808c015182169088015260e0808c015190911690870152905060005b6050811015612570576010811015612410578181601081106123e757fe5b60200201518782605081106123f857fe5b6001600160401b039092166020929092020152612493565b86601082036050811061241f57fe5b602002015161244088600f84036050811061243657fe5b6020020151613541565b88600784036050811061244f57fe5b60200201516124708a600286036050811061246657fe5b602002015161356c565b01010187826050811061247f57fe5b6001600160401b0390921660209290920201525b86816050811061249f57fe5b60200201518582605081106124b057fe5b60200201516124cc88608001518960a001518a60c0015161358f565b6124d989608001516135a0565b8960e001510101010198506124fb8660000151876020015188604001516135c3565b8651612506906135d2565b60c0880180516001600160401b0390811660e08b015260a08a018051821690925260808a018051821690925260608a0180518e01821690925260408a018051821690925260208a01805182169092528951811690915291018a8101909116875297506001016123c9565b5050835188516001600160401b03910181168952602080860151908a01805190910182169052604080860151908a01805190910182169052606080860151908a01805190910182169052608080860151908a0180519091018216905260a080860151908a0180519091018216905260c080860151908a0180519091018216905260e080860151908a018051909101909116905260010161233b565b509598975050505050505050565b6000806013600160ff1b0383840990506013600160ff1b0381820991506013600160ff1b03836013600160ff1b038485090991506013600160ff1b0381830990506013600160ff1b03826013600160ff1b0383840909915060006013600160ff1b0383840990506013600160ff1b0381820990506013600160ff1b0381820990506013600160ff1b0381820990506013600160ff1b0381820990506013600160ff1b0381840992506013600160ff1b0383840990506013600160ff1b0381820990506013600160ff1b0381820990506013600160ff1b0381820990506013600160ff1b0381820990506013600160ff1b0381820990506013600160ff1b0381820990506013600160ff1b0381820990506013600160ff1b0381820990506013600160ff1b0381820990506013600160ff1b03818409905060006013600160ff1b0382830990506013600160ff1b0381820990506013600160ff1b0381820990506013600160ff1b0381820990506013600160ff1b0381820990506013600160ff1b0381820990506013600160ff1b0381820990506013600160ff1b0381820990506013600160ff1b0381820990506013600160ff1b0381820990506013600160ff1b0381820990506013600160ff1b0381820990506013600160ff1b0381820990506013600160ff1b0381820990506013600160ff1b0381820990506013600160ff1b0381820990506013600160ff1b0381820990506013600160ff1b0381820990506013600160ff1b0381820990506013600160ff1b0381820990506013600160ff1b0381830991506013600160ff1b0382830991506013600160ff1b0382830991506013600160ff1b0382830991506013600160ff1b0382830991506013600160ff1b0382830991506013600160ff1b0382830991506013600160ff1b0382830991506013600160ff1b0382830991506013600160ff1b0382830991506013600160ff1b0382830991506013600160ff1b0382850993506013600160ff1b0384850991506013600160ff1b0382830991506013600160ff1b0382830991506013600160ff1b0382830991506013600160ff1b0382830991506013600160ff1b0382830991506013600160ff1b0382830991506013600160ff1b0382830991506013600160ff1b0382830991506013600160ff1b0382830991506013600160ff1b0382830991506013600160ff1b0382830991506013600160ff1b0382830991506013600160ff1b0382830991506013600160ff1b0382830991506013600160ff1b0382830991506013600160ff1b0382830991506013600160ff1b0382830991506013600160ff1b0382830991506013600160ff1b0382830991506013600160ff1b0382830991506013600160ff1b0382830991506013600160ff1b0382830991506013600160ff1b0382830991506013600160ff1b0382830991506013600160ff1b0382830991506013600160ff1b0382830991506013600160ff1b0382830991506013600160ff1b0382830991506013600160ff1b0382830991506013600160ff1b0382830991506013600160ff1b0382830991506013600160ff1b0382830991506013600160ff1b0382830991506013600160ff1b0382830991506013600160ff1b0382830991506013600160ff1b0382830991506013600160ff1b0382830991506013600160ff1b0382830991506013600160ff1b0382830991506013600160ff1b0382830991506013600160ff1b0382830991506013600160ff1b0382830991506013600160ff1b0382830991506013600160ff1b0382830991506013600160ff1b0382830991506013600160ff1b0382830991506013600160ff1b0382830991506013600160ff1b0382830991506013600160ff1b0382830991506013600160ff1b0382850991506013600160ff1b0382830990506013600160ff1b0381820990506013600160ff1b0381820990506013600160ff1b0381820990506013600160ff1b0381820990506013600160ff1b0381820990506013600160ff1b0381820990506013600160ff1b0381820990506013600160ff1b0381820990506013600160ff1b0381820990506013600160ff1b0381820990506013600160ff1b0381820990506013600160ff1b0381820990506013600160ff1b0381820990506013600160ff1b0381820990506013600160ff1b0381820990506013600160ff1b0381820990506013600160ff1b0381820990506013600160ff1b0381820990506013600160ff1b0381820990506013600160ff1b0381820990506013600160ff1b0381820990506013600160ff1b0381820990506013600160ff1b0381820990506013600160ff1b0381820990506013600160ff1b0381820990506013600160ff1b0381820990506013600160ff1b0381820990506013600160ff1b0381820990506013600160ff1b0381820990506013600160ff1b0381820990506013600160ff1b0381820990506013600160ff1b0381820990506013600160ff1b0381820990506013600160ff1b0381820990506013600160ff1b0381820990506013600160ff1b0381820990506013600160ff1b0381820990506013600160ff1b0381820990506013600160ff1b0381820990506013600160ff1b0381820990506013600160ff1b0381820990506013600160ff1b0381820990506013600160ff1b0381820990506013600160ff1b0381820990506013600160ff1b0381820990506013600160ff1b0381820990506013600160ff1b0381820990506013600160ff1b0381820990506013600160ff1b0381820990506013600160ff1b0381820990506013600160ff1b0381820990506013600160ff1b0381820990506013600160ff1b0381820990506013600160ff1b0381820990506013600160ff1b0381820990506013600160ff1b0381820990506013600160ff1b0381820990506013600160ff1b0381820990506013600160ff1b0381820990506013600160ff1b0381820990506013600160ff1b0381820990506013600160ff1b0381820990506013600160ff1b0381820990506013600160ff1b0381820990506013600160ff1b0381820990506013600160ff1b0381820990506013600160ff1b0381820990506013600160ff1b0381820990506013600160ff1b0381820990506013600160ff1b0381820990506013600160ff1b0381820990506013600160ff1b0381820990506013600160ff1b0381820990506013600160ff1b0381820990506013600160ff1b0381820990506013600160ff1b0381820990506013600160ff1b0381820990506013600160ff1b0381820990506013600160ff1b0381820990506013600160ff1b0381820990506013600160ff1b0381820990506013600160ff1b0381820990506013600160ff1b0381820990506013600160ff1b0381820990506013600160ff1b0381820990506013600160ff1b0381820990506013600160ff1b0381820990506013600160ff1b0381820990506013600160ff1b0381820990506013600160ff1b0381820990506013600160ff1b0381820990506013600160ff1b0381820990506013600160ff1b0381820990506013600160ff1b0381820990506013600160ff1b0381820990506013600160ff1b0381820990506013600160ff1b0381820990506013600160ff1b0381820990506013600160ff1b0381820990506013600160ff1b0381830991506013600160ff1b0382830991506013600160ff1b0382830991506013600160ff1b0382830991506013600160ff1b0382830991506013600160ff1b0382830991506013600160ff1b0382830991506013600160ff1b0382830991506013600160ff1b0382830991506013600160ff1b0382830991506013600160ff1b0382830991506013600160ff1b0382830991506013600160ff1b0382830991506013600160ff1b0382830991506013600160ff1b0382830991506013600160ff1b0382830991506013600160ff1b0382830991506013600160ff1b0382830991506013600160ff1b0382830991506013600160ff1b0382830991506013600160ff1b0382830991506013600160ff1b0382830991506013600160ff1b0382830991506013600160ff1b0382830991506013600160ff1b0382830991506013600160ff1b0382830991506013600160ff1b0382830991506013600160ff1b0382830991506013600160ff1b0382830991506013600160ff1b0382830991506013600160ff1b0382830991506013600160ff1b0382830991506013600160ff1b0382830991506013600160ff1b0382830991506013600160ff1b0382830991506013600160ff1b0382830991506013600160ff1b0382830991506013600160ff1b0382830991506013600160ff1b0382830991506013600160ff1b0382830991506013600160ff1b0382830991506013600160ff1b0382830991506013600160ff1b0382830991506013600160ff1b0382830991506013600160ff1b0382830991506013600160ff1b0382830991506013600160ff1b0382830991506013600160ff1b0382830991506013600160ff1b0382830991506013600160ff1b0382830991506013600160ff1b0382830991506013600160ff1b0382850993505050915091565b60606000608083518161335757fe5b0660800390506070608084518161336a57fe5b061061338357608083518161337b57fe5b066101000390505b6060818451016001600160401b038111801561339e57600080fd5b506040519080825280601f01601f1916602001820160405280156133c9576020820181803683370190505b50905060005b845181101561341a578481815181106133e457fe5b602001015160f81c60f81b8282815181106133fb57fe5b60200101906001600160f81b031916908160001a9053506001016133cf565b50608060f81b8185518151811061342d57fe5b60200101906001600160f81b031916908160001a9053506000845160080290506060816040516020016134609190613a22565b604051602081830303815290604052905060005b81518110156134cb5781816001845103038151811061348f57fe5b602001015160f81c60f81b8482600187510303815181106134ac57fe5b60200101906001600160f81b031916908160001a905350600101613474565b509195945050505050565b6134de613814565b6134e6613814565b60005b60108160ff1610156135375761350a858260080260ff1686608002016135f5565b60c01c828260ff166010811061351c57fe5b6001600160401b0390921660209290920201526001016134e9565b5090505b92915050565b600061354e826007613634565b613559836008613645565b613564846001613645565b181892915050565b6000613579826006613634565b61358483603d613645565b613564846013613645565b6001600160401b0383181691161890565b60006135ad826029613645565b6135b8836012613645565b61356484600e613645565b80821690831691909216181890565b60006135df826027613645565b6135ea836022613645565b61356484601c613645565b60008060005b60088110156135375780600802858286018151811061361657fe5b01602001516001600160f81b031916901c91909117906001016135fb565b6001600160401b0391909116901c90565b6001600160401b039190911680821c6040929092031b0190565b6040518060a00160405280600061ffff16815260200161367d613765565b81526000602082018190526040820181905260609091015290565b6040805160a081018252600080825260208201529081016136b7613765565b815260006020820181905260409091015290565b6001830191839082156137555791602002820160005b8382111561372557833561ffff1683826101000a81548161ffff021916908361ffff16021790555092602001926002016020816001010492830192600103026136e1565b80156137535782816101000a81549061ffff0219169055600201602081600101049283019260010302613725565b505b50613761929150613833565b5090565b6040518061010001604052806008906020820280368337509192915050565b60405180604001604052806002905b61379b61384d565b8152602001906001900390816137935790505090565b60405180610a0001604052806050906020820280368337509192915050565b6040805161010081018252600080825260208201819052918101829052606081018290526080810182905260a0810182905260c0810182905260e081019190915290565b6040518061020001604052806010906020820280368337509192915050565b5b8082111561376157805461ffff19168155600101613834565b60405180606001604052806003905b613864613765565b81526020019060019003908161385c5790505090565b803561ffff8116811461353b57600080fd5b80356001600160401b038116811461353b57600080fd5b6000602082840312156138b4578081fd5b81356001600160a01b038116811461053a578182fd5b6000602082840312156138db578081fd5b5035919050565b60008060008385036101c08112156138f8578283fd5b61018080821215613907578384fd5b949694870135955050506101a085013592915050565b6000610180828403121561392f578081fd5b61393960a0613cb0565b82358152602061394b8582860161387a565b8183015284605f85011261395d578283fd5b613968610100613cb0565b806040860161014087018881111561397e578687fd5b865b60088110156139a5576139938a8461387a565b85529385019391850191600101613980565b508260408701528035606087015250505050506139c684610160850161388c565b60808201529392505050565b6000602082840312156139e3578081fd5b813561053a81613cd6565b6000602082840312156139ff578081fd5b81356001600160401b038116811461053a578182fd5b6001600160401b03169052565b60809190911b6fffffffffffffffffffffffffffffffff1916815260100190565b6001600160a01b0391909116815260200190565b901515815260200190565b90815260200190565b600061018082019050868252602061ffff80881682850152604084018760005b6008811015613ab3578135613a9f81613cd6565b841683529184019190840190600101613a8b565b5050505050836101408301526001600160401b0383166101608301529695505050505050565b60208082526017908201527f4e4f4e5f4d4f4e4f544f4e49435f54494d455354414d50000000000000000000604082015260600190565b602080825260119082015270494e56414c49445f5349474e415455524560781b604082015260600190565b6020808252601c908201527f4f574e41424c453a2063616c6c6572206973206e6f74206f776e657200000000604082015260600190565b6020808252600d908201526c24a72b20a624a22fa7aba722a960991b604082015260600190565b6020808252600e908201526d24a72b20a624a22fa9a4a3a722a960911b604082015260600190565b6020808252600f908201526e1253959053125117d410565313d051608a1b604082015260600190565b60006101a08201905061ffff80855116835260208086015181850160005b6008811015613c27578251851682529183019190830190600101613c08565b505050505060408401516101208301526060840151613c4a610140840182613a15565b50608093909301516101608201529015156101809091015290565b61ffff9290921682526001600160401b0316602082015260400190565b6001600160401b0391909116815260200190565b6001600160401b0392831681529116602082015260400190565b6040518181016001600160401b0381118282101715613cce57600080fd5b604052919050565b61ffff81168114613ce657600080fd5b5056fe0000ffff0000ffff0000ffff0000ffff0000ffff0000ffff0000ffff0000ffffffffffff00000000ffffffff00000000ffffffff00000000ffffffff00000000ffff0000ffff0000ffff0000ffff0000ffff0000ffff0000ffff0000ffff000000ff00ff00ff00ff00ff00ff00ff00ff00ff00ff00ff00ff00ff00ff00ff00ffff00ff00ff00ff00ff00ff00ff00ff00ff00ff00ff00ff00ff00ff00ff00ff0000000000ffffffff00000000ffffffff00000000ffffffff00000000ffffffffa2646970667358221220e467e3500f61c1efc33bb7051eacdeebdc1fd819bf7c365101a625a8949b0a3264736f6c634300060c0033","linkReferences":{}},"methodIdentifiers":{"MAX_FUTURE_SKEW()":"15db04fc","SOLANA_CHAIN_HASH()":"2dd146fd","ed25519Signer()":"fb7e5680","getSnapshot(bytes32)":"10d8f901","maxAttestationAge()":"8a21aa44","owner()":"8da5cb5b","setEd25519Signer(bytes32)":"4b29fc3d","setMaxAttestationAge(uint64)":"e37e71d4","submitReputation((bytes32,uint16,uint16[8],bytes32,uint64),bytes32,bytes32)":"5cb62e14","transferOwnership(address)":"f2fde38b","verifyReputation((bytes32,uint16,uint16[8],bytes32,uint64),bytes32,bytes32)":"ac4d081b"},"id":0}